:100000000C94DC020C9404030C9404030C9404037D
:100010000C9404030C9404030C9404030C94040344
:100020000C9404030C9404030C9404030C94040334
:100030000C9404030C9404030C9404030C94040324
:100040000C945B2B0C9404030C94CB2B0C94A52BDD
:100050000C9404030C9404030C9404030C94040304
:100060000C94FD2B0C94040344455700434F32007D
:1000700048554D00436972632E00496E74616B658B
:100080000045786861757374005254440070706D57
:100090000072482500C2B043005802840384034E16
:1000A000616D652C004F2C742C30004F2C4465770B
:1000B0002C31004F2C542C31004F2C48554D2C31F5
:1000C00000532C63004C2C31000100016472790054
:1000D000686967682C006D69642C006C6F772C0070
:1000E00043616C003A2000C2B043005D20403A00FA
:1000F0005B00455252000001030256616C3A200039
:10010000455252002056005374617475733A2000B2
:10011000536C61766520403A2000446F2028417579
:10012000746F2D29416464726573732865732900A7
:10013000283173742920284175746F2D2941646416
:1001400072657373203D2000446F20284175746FE1
:100150002D294E616D6528732900284175746F2D16
:10016000294E616D65203D200044656C65746520F5
:100170004E616D6528732900436C6561722043618F
:100180006C6962726174696F6E2873292020202067
:1001900020005265736574202020202000493243DE
:1001A0002C003D20002D50742E200020746F205311
:1001B000657474696E672D4E6F2E205B312D335D33
:1001C00000290020280020436F70792046554C4CB0
:1001D0002053455454494E4720007C20202054652C
:1001E0006D705254442020207C20202054656D7076
:1001F00048554D2020207C20202048756D69646979
:1002000074792020207C2020202020434F32202081
:10021000202020207C2020446577696E6720506F65
:10022000696E7420207C0000000000230026002955
:10023000007E007E003C007E003C007E003E003ED2
:10024000003A2000426F6F7420466F72205465722E
:100250006D696E616C2055736500426F6F7420414B
:1002600073204D6F6442555320536C617665202096
:1002700020202000890070006C0068004661696CD5
:100280005361666500746F6F4C6F772020207C206F
:100290002020204C6F7720202020207C2020202030
:1002A00048696768202020207C2020746F6F48698F
:1002B00067682020207C00204F4B2D5374657020F0
:1002C000200044656C617954696D65730020436F4B
:1002D0007079546F536574205B312D345D00205369
:1002E000656C656374536574203D200045646974D2
:1002F0004E616D652020200052756E416C6C436527
:100300006E742E0052756E414C4C202020002052FD
:10031000756E53696E676C65202020002045646906
:100320007420202000890081007A00740070006C25
:10033000006800207C202020202020204C4F5720C7
:100340002020202020207C202020202020484947D9
:1003500048202020202020207C20202020202056E3
:10036000616C75652020202020207C002D44756D57
:100370006D794E616D652D0053657420486967681D
:1003800000536574204C6F770053657420415647C5
:10039000204173204D6964005365742053696E6772
:1003A0006C652F4D696400446F20332D50742E20EE
:1003B00043616C2E00446F20322D50742E20436117
:1003C0006C2E202020202000446F20312D50742ED0
:1003D0002043616C2E202020202000434F32202D0E
:1003E0000048554D202D00525444202D002D20430F
:1003F000616C696272617465200053656C65637439
:1004000020414C4C0053656C6563742053696E67E2
:100410006C650043616C6962726174696F6E287308
:10042000292E2E2E002053656C2E53657474696E30
:1004300067205B312D335D203D2000536574746966
:100440006E672D4E616D65203D20004D616E7561BA
:100450006C2E2E2E0054696D657320262053746512
:1004600070732E2E2E2020200056616C7565732E21
:100470002E2E202020004D6F72652E2E2E20202043
:1004800000417344656661756C74004B6579436F18
:100490006C6F7220202000436F6C6F722020200050
:1004A00044696D005370656564203D2000416464BB
:1004B000722E203D200054696D652020200044618B
:1004C0007465202020005265426F6F742020200048
:1004D00052655363616E2020200048003B001B5B87
:1004E000001B5B324A006D001B5B001B5B316D0023
:1004F0001B5B32326D0044001B5B0043001B5B0042
:100500001B5B376D001B5B346D002040200020001A
:100510001B5B32346D003A002900207C20001B3721
:10052000001B5B32376D001B38003E3E2000000090
:100530000000240027002A000000000025002800F9
:100540002B00040404040404040402020202020254
:100550000303030303030102040810204080010287
:100560000408102001020408102000000008000206
:1005700001000003040700000000000000009500D7
:1005800091008D0095009500202020002020202043
:1005900053656C656374206B65792C206F72204500
:1005A0006E74657228666F722072657475726E293A
:1005B0002E2E2E000A001C2D11241FBECFEFD8E0D6
:1005C000DEBFCDBF26E0AAE2B2E001C01D92AD3D84
:1005D000B207E1F712E0A0E0B1E0EEE7FAE602C010
:1005E00005900D92AA32B107D9F712E0CCEDD2E016
:1005F00004C02197FE010E94FE34CB3DD107C9F70C
:100600000E94552D0C943D350C9400008091890575
:1006100090918A05891B990B0895833081F028F405
:10062000813099F08230A9F008958730A9F08830A0
:10063000C9F08430B1F4809180008F7D03C0809137
:1006400080008F7780938000089584B58F7784BD74
:10065000089584B58F7DFBCF8091B0008F77809314
:10066000B00008958091B0008F7DF9CF1F93CF9394
:10067000DF93282F30E0F901E659FA4F8491F90110
:10068000EA5AFA4FD491F901EE5BFA4FC491CC23A8
:10069000A9F0162F81110E940D03EC2FF0E0EE0F50
:1006A000FF1FE85CFA4FA591B4918FB7F894EC91D5
:1006B000111108C0D095DE23DC938FBFDF91CF915D
:1006C0001F910895DE2BF8CF3FB7F89480915C0519
:1006D00090915D05A0915E05B0915F0526B5A89B40
:1006E00005C02F3F19F00196A11DB11D3FBFBA2FC4
:1006F000A92F982F8827BC01CD01620F711D811D84
:10070000911D42E0660F771F881F991F4A95D1F708
:1007100008958F929F92AF92BF92CF92DF92EF9205
:10072000FF926B017C010E9464034B015C01C114C8
:10073000D104E104F104B9F00E9464036819790955
:100740008A099B09683E73408105910580F321E089
:10075000C21AD108E108F10888EE880E83E0981EDD
:10076000A11CB11CE4CFFF90EF90DF90CF90BF9021
:10077000AF909F908F90089508950895AF92BF9283
:10078000CF92DF92EF92FF920F931F93CF93DF935D
:100790006C017B018B01040F151FEB015E01AE188C
:1007A000BF08C017D10759F06991D601ED91FC91AE
:1007B0000190F081E02DC6010995892B79F7C501DB
:1007C000DF91CF911F910F91FF90EF90DF90CF902D
:1007D000BF90AF900895FC01538D448D252F30E0DC
:1007E000842F90E0821B930B541710F0CF9608953E
:1007F00001970895FC01918D828D981761F0A28D6B
:10080000AE0FBF2FB11D5D968C91928D9F5F9F7330
:10081000928F90E008958FEF9FEF0895FC01918DE6
:10082000828D981731F0828DE80FF11D858D90E053
:1008300008958FEF9FEF0895FC01918D228D892FF0
:1008400090E0805C9F4F821B91098F7399270895D8
:1008500080E396E00E941C0421E0892B09F420E04B
:10086000822F089580E090E0892B29F00E942804CF
:1008700081110C9400000895FC01A48DA80FB92FDC
:10088000B11DA35ABF4F2C91848D90E001968F73B8
:100890009927848FA689B7892C93A089B1898C91D7
:1008A000837080648C93938D848D981306C0028826
:1008B000F389E02D80818F7D80830895EF92FF92F0
:1008C0000F931F93CF93DF93EC0181E0888F9B8D73
:1008D0008C8D98131AC0E889F989808185FF15C02D
:1008E0009FB7F894EE89FF896083E889F989808150
:1008F0008370806480839FBF81E090E0DF91CF911F
:100900001F910F91FF90EF900895F62E0B8D10E040
:100910000F5F1F4F0F731127E02E8C8D8E110CC0AF
:100920000FB607FCFACFE889F989808185FFF5CFFA
:10093000CE010E943C04F1CFEB8DEC0FFD2FF11D99
:10094000E35AFF4FF0829FB7F8940B8FEA89FB8937
:1009500080818062CFCF0F931F93CF93DF938C0161
:10096000D0E0C0E0F801EC0FFD1F6491662341F078
:1009700080E396E00E945E04892B11F02196F2CF6D
:10098000CE01DF91CF911F910F910895682F80E3E1
:1009900096E00C945E04CF93DF93EC01888D88235E
:1009A000B9F0AA89BB89E889F9898C9185FD03C0D2
:1009B000808186FD0DC00FB607FCF7CF8C9185FFB7
:1009C000F2CF808185FFEDCFCE010E943C04E9CFBC
:1009D000DF91CF9108952091A602260F3327331F70
:1009E00021323105ECF42091F505FC0190E080E026
:1009F000243069F082E00895A091A6022191AC0113
:100A00004A575D4FA40FB52FB11D2C930196861741
:100A100098F38091A602680F6093A60280E0089583
:100A200081E008951092F50581E08093F40510921D
:100A3000CF0561E082E10E94360361E083E10E941C
:100A40003603E9EBF0E080818E7F808380818D7FAB
:100A5000808388E48093B80085E48093BC00089587
:100A6000CF93DF9391E0909385028823B9F0C091F2
:100A7000B800D091BA008091BC008A7B8093BC0002
:100A800060E082E10E94360360E083E10E94360369
:100A90000E941205D093BA00C093B800DF91CF91A5
:100AA00008958F929F92AF92BF92CF92DF92EF9272
:100AB000FF920F931F93CF93DF93D0911E06D132F5
:100AC00008F0D7C0182FC0911D060E9464036B0167
:100AD0007C018091F50581116BC082E08093F50562
:100AE0001093F4058FEF8093F3051092F205D093E5
:100AF000F105ADEFB5E0E1EDF5E080E0D81391C090
:100B00001092D0058091D005CC0FC82BC093D00592
:100B10008091CF05813009F088C01092CF050E94E6
:100B200064036B017C018091D0058093BB008091B0
:100B3000F7059091F805A091F905B091FA05892B78
:100B40008A2B8B2BA1F00E9464030091F705109172
:100B5000F8052091F9053091FA056C197D098E0987
:100B60009F09061717072807390708F442C0809124
:100B7000BC0083FDD8CF85EC8093BC000E94640349
:100B80006B017C018091F505823009F450C08091A1
:100B9000F3058F3F09F46FC08091F305803209F4AB
:100BA0006CC08091F305803309F469C084E026C0ED
:100BB0008091F7059091F805A091F905B091FA059B
:100BC000892B8A2B8B2B09F484CF0E94640380909D
:100BD000F7059090F805A090F905B090FA056C190A
:100BE0007D098E099F0986169706A806B90608F0A2
:100BF00070CF8091F6050E94300585E01092FC05CB
:100C000010921E061092FB05DF91CF911F910F915C
:100C1000FF90EF90DF90CF90BF90AF909F908F901C
:100C200008959D9191938F5F69CF85EEA5CF8091B7
:100C3000F7059091F805A091F905B091FA05892B77
:100C40008A2B8B2B09F49ECF0E9464030091F70539
:100C50001091F8052091F9053091FA056C197D097C
:100C60008E099F09061717072807390708F08ACF4A
:100C7000C0CF81E0C3CF80E0C1CF82E0BFCF83E0AF
:100C8000BDCF0895E0918A0580918905E81730F479
:100C9000F0E0E557FA4F808190E008958FEF9FEFE5
:100CA000089590918A05809189052FEF3FEF98175D
:100CB00048F4E92FF0E0E557FA4F208130E09F5FDC
:100CC00090938A05C9010895CF92DF92EF92FF9227
:100CD0000F931F93CF93DF937C01CB018A01209167
:100CE000FB05222389F0EB016B01C40ED51ECC1548
:100CF000DD0569F06991D701ED91FC910190F081DA
:100D0000E02DC7010995F3CF642F0E94EB04C801C1
:100D1000DF91CF911F910F91FF90EF90DF90CF90D7
:100D20000895CF93DF931F92CDB7DEB769832091EB
:100D3000FB052223F9F020911E06203258F021E015
:100D400030E0FC013383228390E080E00F90DF915C
:100D5000CF9108958091FC05E82FF0E0E350FA4F21
:100D6000998190838F5F8093FC0580931E0681E0BC
:100D700090E0ECCF61E0CE0101960E94EB04F7CF4A
:100D800090E080E00895CF9380E396E00E94FA031C
:100D9000C82F6CE070E080E090E00E94890380E35F
:100DA00096E00E941C04892B61F080E396E00E948B
:100DB000FA036CE070E080E090E00E948903C0E0FC
:100DC000EECF8C2FCF9108959C0164E670E00E94D5
:100DD000AF34FC01C90183709927892B11F4309736
:100DE00079F4C90160E971E00E94AF349C01EF2BF6
:100DF00011F4892B19F481E0232B09F080E0089588
:100E000081E00895863029F034F4823051F0843046
:100E100031F48EE108958930E1F38B30D1F38FE125
:100E20000895CB010E94E406882311F08DE1089516
:100E30008CE108952F923F924F925F926F927F9232
:100E40008F929F92AF92BF92CF92DF92EF92FF92DA
:100E50000F931F93CF93DF932B013C011A0149019C
:100E6000E80187EE97E09983888340E853E361EED9
:100E700071E04415550566057705B0F488819981C0
:100E8000019699838883441A550A660A770A0E9454
:100E9000E40640E450E761E370E08111EACF40EC02
:100EA0005EE160E370E0E5CF81E0F401808360E81B
:100EB0007EED88E290E06415750586059705B0F42F
:100EC000F40120812F5F2083461A570A680A790AA5
:100ED00068817981822F0E940207A82FB0E020E864
:100EE00031E541E050E00E945E34E5CFC301B2013C
:100EF00020E831E541E050E00E943C342F5FF101F1
:100F0000208320E13EE040E050E00E943C34F701C5
:100F100020832CE330E040E050E00E943C34F601B6
:100F20002083F5016083DF91CF911F910F91FF9096
:100F3000EF90DF90CF90BF90AF909F908F907F9079
:100F40006F905F904F903F902F9008954F925F92D7
:100F50006F927F928F929F92AF92BF92CF92DF92C9
:100F6000EF92FF920F93CF93DF93C82FC62E3A01D3
:100F7000D22F97EE492E97E0592E812C912C5401B7
:100F800046145704C0F4C2010E94E40681110CC04B
:100F900020E8821A2CEC920A2EE1A20A2EEFB20A65
:100FA0004FEF441A540AECCF3BE7931A3DE1A30AF2
:100FB0003EEFB30AF5CF44244394512CD12C4C146A
:100FC0005D04A4F4B301842D0E940207A82FB0E0B1
:100FD00020E831E541E050E00E945E34860E971E25
:100FE000A81EB91E5FEF451A550AE9CF202F30E041
:100FF000ACE3B0E00E94A0349B01AC012E0D311D8A
:10100000411D511D69017A012D2F30E0A0E1BEE0A4
:101010000E94A034C60ED71EE81EF91E4C2F415068
:10102000550BDA0120E831E541E050E00E94F6344A
:101030006C0D7D1D8E1D9F1D680D791D8A1D9B1DCC
:10104000DF91CF910F91FF90EF90DF90CF90BF9005
:10105000AF909F908F907F906F905F904F9008958A
:101060000F931F938FB7F8944091580550915905ED
:1010700060915A0570915B058FBF009181021091BC
:1010800082022091830230918402DB01CA01401761
:1010900051076207730718F40197A109B109801B72
:1010A000910BA20BB30B00917D0210917E02209157
:1010B0007F0230918002800F911FA21FB31F883ED4
:1010C00023E09207A105B10508F4C7C0409381024F
:1010D000509382026093830270938402885E9340EF
:1010E000A109B10980937D0290937E02A0937F02B3
:1010F000B09380028091790290917A02A0917B0254
:10110000B0917C020196A11DB11D8093790290934C
:101110007A02A0937B02B0937C02809178028F5F69
:10112000809378028C3339F48091770210927802A0
:101130008F5F80937702809177028C3339F48091AE
:101140007602109277028F5F80937602809176020A
:10115000883159F410927602809174029091750250
:1011600001969093750280937402809173028F5F51
:1011700080937302409174045091750460917604D9
:10118000709177044F5F5F4F6F4F7F4F40937404B0
:101190005093750460937604709377048C3339F41C
:1011A00080917202109273028F5F8093720280911D
:1011B00072028C3339F480917102109272028F5F47
:1011C0008093710280917102883121F081E01F913A
:1011D0000F91089510927102909105019F5F909375
:1011E000050180910401823009F59D3170F08091F4
:1011F0000201909103010E94E406811106C081E082
:101200008093050183E080930401809104018D3077
:10121000E9F681E08093040180910201909103013D
:1012200001969093030180930201D0CF863019F08C
:1012300020F4843031F42FE105C08930E1F38B30A4
:10124000D1F320E2022E000C330B92171306E9F6BD
:1012500091E0909305018F5FD6CF80E0B8CFCF9219
:10126000DF92EF92FF920F931F93CF93CCE3E62E82
:10127000F12C082F10E068018FE1C81AD1080E94F4
:1012800030088111C15080E396E00E941C04892B34
:10129000B9F10E94C306982F892F992369F19033E1
:1012A0004CF0292F092E000C330B20533109E21684
:1012B000F306D4F4913634F1292F092E000C330BA8
:1012C000021713078CF4292F092E000C330B2C1551
:1012D0003D0554F09B31D1F09B3231F09D3221F02D
:1012E000CCE39D7F9C3359F6CF911F910F91FF90D6
:1012F000EF90DF90CF900895C111C1CF8FEFF4CF61
:1013000090E0CACF9134FCF69D3021F780E0ECCF1D
:10131000CF93C82FC15020F080E20E94C604FACFBC
:10132000CF91089581E00C948809CF93C82F0E9433
:1013300092098C2F0E94C604CF910C94920980E0F0
:1013400095E00C94AB04813671F02AE5853261F0AA
:10135000882349F021E0280F93EE980F983020F071
:101360008955883008F02EE1822F0895613091F47C
:10137000E6E1E49FD0011124A659BC4FE89FF0019B
:101380001124E659FC4F81E02C919081291729F016
:1013900080E003C081E06230D9F708954F925F92F8
:1013A0006F927F92AF92BF92CF92EF920F931F9363
:1013B000CF93DF9300D000D0CDB7DEB72B013C0137
:1013C00029833A834B835C838E2DF501108240E0A4
:1013D00050E0BA01411451046104710461F040917C
:1013E00074045091750460917604709177044419E7
:1013F000550966097709A02FB0E0AA0FBB1FA854B2
:10140000BB4F0D911C9130E020E004171507260713
:10141000370778F4401B510B620B730B09811A815B
:101420002B813C810417150726073707D8F091E078
:101430009083C1101BC08E5F60810E943603C30180
:10144000B2010F900F900F900F90DF91CF911F91ED
:101450000F91EF90CF90BF90AF907F906F905F9083
:101460004F900895412C512C3201E3CF8A5FE4CF95
:1014700096E1899FF0011124E659FC4FE081F0E0EC
:10148000EE0FFF1FE756FF4F65917491072E000C7A
:10149000880B990B0C948903CF93C2E060E08C2FEA
:1014A0000E943603CF5FC231C9F7CF910895FC0186
:1014B00001900020E9F73197AF01481B590BBC019F
:1014C00080E396E00C94BE038F929F92AF92BF92FE
:1014D0000F931F93CF93DF93CDB7DEB7A1970FB6CE
:1014E000F894DEBF0FBECDBF19A2423008F44AE027
:1014F0008E010F5D1F4F842E912CB12CA12CA501C4
:1015000094010E943C34E62FB901CA01EA30F4F498
:10151000E05DD801EE938D01232B242B252B79F749
:1015200090E080E0109719F0CD010E94570AA19633
:101530000FB6F894DEBF0FBECDBFDF91CF911F91E4
:101540000F91BF90AF909F908F900895E95CE1CF8D
:10155000009711F00C94570A90E080E0089582E41F
:1015600091E00C94570ACF93DF930E94AB04EC01F7
:101570000E94AF0A8C0F9D1FDF91CF91089584EBDD
:1015800095E00E94B30A8CE895E00C94AB04CF92EE
:10159000DF92FF920F931F93CF93DF93EB0109909C
:1015A0000020E9F72197C61BD70BCC2369F18B01EB
:1015B00091E09093FB0580931D061092FC0510921C
:1015C0001E06F12CEC2FE40FFF27FF1F6F018F2D5C
:1015D00090E08C159D0554F4800F911FFC016081F3
:1015E0008DEC96E00E949106F394F1CF81E00E9489
:1015F000510581110BC08C2FDF91CF911F910F915D
:10160000FF90DF90CF90089580E0F6CF8FEFF4CF7A
:1016100096E1899FF0011124E659FC4F40E065E412
:1016200071E082810C94C70A0F931F93CF938C01B2
:10163000FC0101900020E9F73197E81BF90B6E1BC4
:10164000862F8695C62FC81B0E948809C8010E9454
:10165000A80A8C2FCF911F910F910C948809682FA5
:1016600070E090E080E04AE00C94640ACF93C82FC9
:101670008DEF94E00E94AB048C2F0E942F0B8BEF18
:1016800094E0CF910C94AB04CF93C82F88EF94E0F3
:101690000E94AB048C2F0E942F0B86EF94E0CF9119
:1016A0000C94AB04CF93C82F811101C0C7E2809185
:1016B000700281110CC082EE8C0F883030F086EA07
:1016C0008C0F883010F0C73211F4C093010188EEFE
:1016D00094E00E94AB048C2F0E942F0B86EE94E0C6
:1016E0000E94AB04C73211F0CF910895C1E3DFCF60
:1016F000CF93C82F1092700280E00E948B0B8091D4
:101700000101CC2329F081E08093700280910001D7
:10171000CF910C94520BCF93C82F809170028823E5
:1017200019F080E00E94780B8BEE94E0C11102C0AA
:1017300080EF94E0CF910C94AB04CF93C82F80E05E
:101740000E948B0B8AE195E00E94AB04CC2321F030
:1017500081E0CF910C948B0BCF91089580E00E9493
:101760009D0B81E00C94440BCF93C62F0E948809F7
:1017700081E00E949D0B8C2FCF910C948809CF9310
:10178000C82F80E00E94780B8C2F0E94520B81E0C2
:10179000CF910C948B0B81110C94BF0B80E00E94B5
:1017A0008B0B80E00C94520B8091D8020E94CB0BE3
:1017B00085E095E00C94AB0480E00E94520B81EE32
:1017C00094E00C94AB048F929F92AF92BF92CF9211
:1017D000DF92EF92FF920F931F9324E0829FC0014C
:1017E00011249C0128543B4FF901EA58FF4FC08057
:1017F000D180E280F380389740815181628173818A
:10180000709780809180A280B380805A9A4FFC01AB
:1018100080819181A281B381225B3F4FF9010081D8
:1018200011812281338180179107A207B307E4F069
:1018300088159905AA05BB05CCF0C816D906EA0695
:10184000FB06B4F0481759076A077B079CF080E253
:101850001F910F91FF90EF90DF90CF90BF90AF90CE
:101860009F908F900C94520B84E2F2CF82E2F0CFE3
:101870008FE1EECF81E2ECCF0F931F938230B0F176
:1018800024E0829FC00111249C0128543B4FF901A0
:10189000E25AFF4F4081518162817381805A9A4F91
:1018A000FC0180819181A281B381225B3F4FF901CC
:1018B000008111812281338180179107A207B3072C
:1018C0007CF084179507A607B70764F0803896491F
:1018D000A849B1054CF480E21F910F910C94520B72
:1018E00084E2FACF82E2F8CF8FE1F6CF1F910F9119
:1018F0000C94E30BCF93DF93C82FD62F8EED94E09B
:101900000E94AB048D2F0E942F0B8CED94E00E945F
:10191000AB048C2F0E942F0B8AED94E0DF91CF91C6
:101920000C94AB041F93CF93DF93C82F862FD42F33
:10193000CC2331F011E01C0F6C2F0E947A0CC12FC8
:10194000D15020F08DE20E94C604FACF8C2FDF9197
:10195000CF911F910895CF93C82F81E00E948B0BE8
:101960008AED91E00E94AB044CE463E08C2F0E946E
:10197000920CC82F80E00E948B0B8C2FCF91089582
:101980009F92AF92BF92CF92DF92EF92FF920F930E
:101990001F93CF93DF93CDB7DEB729970FB6F89497
:1019A000DEBF0FBECDBF86E0E6E0F1E0DE011196BE
:1019B00001900D928A95E1F780910C0190910D01B3
:1019C000A0910E018F839887A9873AE2C32E32E057
:1019D000D32E760102E010E0A12CF801E659FA4F6F
:1019E0008491F801EA5AFA4FB490F801EE5BFA4F8D
:1019F0009490992079F081110E940D03E92DF0E077
:101A0000EE0FFF1FE95DFD4FA591B491EC91BE2251
:101A100081E009F480E0F70191917F01981721F0AE
:101A200031978083AA24A3940F5F1F4F08301105BC
:101A3000A1F680913002833029F083E08093300258
:101A4000AA24A39480913102833029F083E080930B
:101A50003102AA24A39480913202833009F49DC0FC
:101A600083E080933202CE0101967C0110E0609108
:101A70003402F70181917F010E947A0CF601819175
:101A80006F01882309F4A2C081E00E948B0B812F93
:101A90000E943C0C8FE392E00E94AB0481E00E9424
:101AA000780B8BE392E00E94AB041F5F1430F9F6D1
:101AB0007E01F5E0EF0EF11C9EE2C92E92E0D92ED8
:101AC00010E060913402F70181917F010E947A0C4D
:101AD000F60181916F01882309F488C081E00E949A
:101AE0008B0B812F0E943C0C89E392E00E94AB0497
:101AF00082E00E94440B81E00E94780B87E392E031
:101B00000E94AB04113009F06FC08E01095F1F4FB6
:101B100080E3E82E82E0F82E6E01FAE0CF0ED11CB1
:101B200060913402F80181918F010E947A0C81E06A
:101B30000E948B0B80E00E94E30BF70181917F01F3
:101B40000E942F0B80E00E94520B80E00E948B0BC2
:101B500083E392E00E94AB0483E00E94440B81E3A4
:101B600092E00E94AB04C016D106D1F681E08093CA
:101B7000330280E029960FB6F894DEBF0FBECDBFCA
:101B8000DF91CF911F910F91FF90EF90DF90CF9059
:101B9000BF90AF909F900C94CB0BA11064CF80911D
:101BA0003302882309F45FCF29960FB6F894DEBF7D
:101BB0000FBECDBFDF91CF911F910F91FF90EF909E
:101BC000DF90CF90BF90AF909F90089581E00E94EA
:101BD000780B8DE392E00E94AB0481E00E948B0BB6
:101BE000812F0E943C0C5DCF11E06BCF81E00E9401
:101BF000780B85E392E084CFCF92DF92EF92FF9251
:101C00000F931F93CF93DF93C82F1092AB050E94C1
:101C100064036B017C018091F505811166C081E050
:101C20008093F5058093F4059FEF9093F305109250
:101C3000F2059FE19093F1058093D0058091D00546
:101C4000CC0FC82BC093D0058091CF05813009F00F
:101C5000A3C01092CF050E9464036B017C018091A8
:101C6000D0058093BB008091F7059091F805A09175
:101C7000F905B091FA05892B8A2B8B2BA1F00E94D4
:101C800064030091F7051091F8052091F905309152
:101C9000FA056C197D098E099F0906171707280791
:101CA000390708F443C08091BC0083FDD8CF85EC90
:101CB0008093BC000E9464036B017C018091F50558
:101CC000813009F46BC08091F205D0E2803210F4CB
:101CD000D091F205A1EDB5E0EBE8F5E080E08D17DD
:101CE00051F19D9191938F5FFACF8091F70590917B
:101CF000F805A091F905B091FA05892B8A2B8B2B59
:101D000009F489CF0E9464030091F7051091F8054A
:101D10002091F9053091FA056C197D098E099F090A
:101D2000061717072807390708F075CF8091F605C1
:101D30000E943005D0E010928A05D093890511E009
:101D4000C0E080918A05D817B1F0C132A4F48DECBF
:101D500096E00E945106112309F445C0813009F430
:101D60003FC0C0E08F3F39F0CFEF8E3F21F0CEEF84
:101D7000823009F0CCEF81E00E945105882311F0F8
:101D8000C7FFCDEF8C2FDF91CF911F910F91FF9067
:101D9000EF90DF90CF90089585EE8ACF8091F70580
:101DA0009091F805A091F905B091FA05892B8A2B3D
:101DB0008B2B09F483CF0E9464030091F7051091E7
:101DC000F8052091F9053091FA056C197D098E0905
:101DD0009F09061717072807390708F06FCFA6CF06
:101DE000C0E010E0AECFEC2F0C2E000CFF0BE55541
:101DF000FA4F8083882309F4BECFCF5FEC2FF0E049
:101E0000E555FA4F1082EDCFCF92DF92EF92FF921D
:101E1000CF93DF936C01092E000CEE08FF0897FFAB
:101E200017C08DE20E94C604EC0166277727CB011C
:101E30006C197D098E099F094AE00E94640A8C0F83
:101E40009D1FDF91CF91FF90EF90DF90CF9008958D
:101E50004AE0C701B601DF91CF91FF90EF90DF908C
:101E6000CF900C94640ACF92EF920F931F93CF936D
:101E7000DF93182FD42FC22F61110E949209EE20F8
:101E800011F0C11005C080E00E94780B0E94D40BB5
:101E9000DD2319F08D2F0E94C604812F0E94C604F5
:101EA00088E195E00E94AB04002321F086E195E0F3
:101EB0000E94AB0480E00E948B0B80E195E00E94C1
:101EC000AB0401110E949209CC2319F08C2F0E94BF
:101ED000C60480E00E94520BEE20A1F0C11014C095
:101EE00081E0DF91CF911F910F91EF90CF900C94F3
:101EF0008B0B81E0DF91CF911F910F91EF90CF90ED
:101F00000C94780BC110F5CFDF91CF911F910F91F9
:101F1000EF90CF900895CF92EF920F93C12CE12CC8
:101F200001E020E040E060E00E94330F0F91EF906D
:101F3000CF900895CF92EF920F93C42EE62E01E03A
:101F400020E040E060E00E94330F0F91EF90CF90CF
:101F50000895CF93DF93EC010E94DC0B80E00E9498
:101F6000520B0E949F0961E081E00E947A0C81E09F
:101F70000E948B0B60E5CE010E94140B80E00E9452
:101F80008B0B81E295E00E94AB0482E0DF91CF9160
:101F90000895CF93DF93EC0180E00E94780B0E94BC
:101FA000D40BCE010E94A80A80E00E94780B80E149
:101FB00095E00E94AB0480E0DF91CF910C94CB0BB5
:101FC000CF93C82F682F85E00E947A0C87E491E0B8
:101FD0000E94C90F86EC91E00E94AB0482E20E944D
:101FE000520B86E395E00E94A80A83EC91E00E94E0
:101FF000AB048091D60290E001960E94040F81EC20
:1020000091E00E94AB0480E00E94520B8BEA91E0C9
:102010000E94AB0481E08C0FCF910895FF920F9343
:102020001F93CF93DF936BE471E08FE196E00E9402
:102030007933F12C00E010E0D0E0C0E00097E9F047
:10204000C330D105E1F00E944B338C33910598F5F4
:10205000209761F48831910574F5182F6BE471E0D5
:1020600090E080E00E9479332196E8CFC130D1051D
:1020700011F4082FF3CFF82EF1CF2397E1F4212F9D
:1020800030E0A0E1BEE00E94A0342CE3029F80017A
:102090001124012E000C220B330B600F711F821FC5
:1020A000931F6F0D711D811D911DDF91CF911F91A8
:1020B0000F91FF90089560E070E0CB01F6CFCF93D1
:1020C000DF93C82FD62F80E00E948809DD23C9F056
:1020D00081E00E94780BEC2FF0E0EE0FFF1FE2583A
:1020E000FA4F659174918FE196E00E9472330E94DD
:1020F000A80A83E00E94880980E0DF91CF910C94C8
:10210000780B80E00E94520BE6CF6F927F928F9205
:102110009F92AF92BF92CF92DF92EF92FF920F9376
:102120001F93CF93DF93CDB7DEB7E6970FB6F89442
:10213000DEBF0FBECDBF782E662E8AE6C82E83E0A6
:10214000D82EF12CE12C8091D9028E151F0409F0B4
:102150000CF460C07E1441F04E2D662D872D0E9438
:10216000B609882309F44FC065EC70E0CE010196F2
:102170000E947233F6018081813069F020F0823054
:10218000C9F101E01BC061EC70E0CE010A960E942B
:10219000723302E013C069EB70E0CE010A960E9430
:1021A000723363EB70E0CE0143960E9472336BEAA8
:1021B00070E0CE014C960E94723304E0CE0101968D
:1021C0005C01912C812C10E080169106B4F440E063
:1021D000B501F60182810E94C70A6CE271E080E0DD
:1021E00090E00E948903FFEF8F1A9F0A89E0A80EF2
:1021F000B11CEACF65EA70E0C8CF6CE271E080E024
:1022000090E00E9489039FEFE91AF90AE6E1CE0EF9
:10221000D11C99CFE6960FB6F894DEBF0FBECDBFA6
:10222000DF91CF911F910F91FF90EF90DF90CF90B2
:10223000BF90AF909F908F907F906F9008950F9375
:102240001F93CF93DF930DEC12E0C8EED3E0CE01E5
:102250000E941634F80181938F012196C43FF3E068
:10226000DF07A9F76091CE027091CF028091D00272
:102270009091D10220EB34E040E050E00E943C34E9
:10228000672B682B692B61F080E895E2A0E0B0E055
:102290008093CE029093CF02A093D002B093D1024C
:1022A0008091D602833020F01092D6021092D40290
:1022B0008091D702843020F01092D7021092D4027D
:1022C0008091D5028D3020F01092D5021092D40268
:1022D0008091D20280930001DF91CF911F910F91E5
:1022E00008950F931F93CF93DF9329E2289F8001D6
:1022F000299F100D1124C5E3D2E000581F4FC801DB
:102300008C0F9D1F0E941634899382E0CE35D8072A
:10231000B1F7DF91CF911F910F9108950F931F9304
:10232000CF93DF932FE8289F8001299F100D112460
:10233000C8EBD4E0005B1340C8018C0F9D1F0E94C6
:102340001634899385E0C734D807B1F7DF91CF9170
:102350001F910F91089585ED8093BC008091F70542
:102360009091F805A091F905B091FA050796A11D85
:10237000B11D23E0B695A795979587952A95D1F736
:102380002091BC0024FD03C01092F50508954091F2
:10239000F7055091F8056091F9057091FA05452B04
:1023A000462B472B69F30097A105B10541F025E3C2
:1023B0002A95F1F700000197A109B109E1CF8091B9
:1023C000F6050C9430052F923F924F925F926F92D8
:1023D0007F928F929F92AF92BF92CF92DF92EF92B5
:1023E000FF920F931F93CF93DF937C01FC01019029
:1023F0000020E9F731977E2E781A20E1271518F48E
:10240000FC011082712C81E00E948B0B8AE295E026
:102410000E94AB0480E00E948B0B84E20E94520B6E
:102420008EE195E00E94AB04772049F00E949F095D
:10243000C7010E94A80A81E295E00E94AB04B7019F
:102440008FE196E00E942D35E72DF0E0E15EF94F37
:102450001082572C172DC12CD12C212C912CC0E08F
:10246000D0E090E1892E0CE3DD3009F4B1C10E9487
:1024700030088823C9F00150B9F480E00E94520B63
:1024800080E0DF91CF911F910F91FF90EF90DF904F
:10249000CF90BF90AF909F908F907F906F905F9004
:1024A0004F903F902F90089580E396E00E941C0487
:1024B000892BD1F280E396E00E94FA03D82F412EB7
:1024C0004518772009F493C1992493945C12912CB8
:1024D000DC2ED70C312E3D18CC24C394C30CDD3038
:1024E00009F443C1A4F4D830B1F0DA3009F43DC1A5
:1024F0002C2E80EE8D0F8F3508F0B5CF103108F4FB
:102500001AC1772009F4AFCFAA24A394DFC0DB312E
:1025100029F0DF3769F72C2EA12CD8C02C2E6CE0C7
:1025200070E080E090E00E94890300E0A12C612C23
:10253000DBE180E396E00E941C04892B09F44BC088
:10254000639480E396E00E94FA03D82F6CE070E079
:1025500080E090E00E948903F3E06F1651F1F615D8
:1025600058F021E06216A9F032E06316A9F0AA241F
:10257000A394DFCF342CD3CF84E0681641F195E0EB
:102580006912F5CF8FEB8D0F843088F70FE70D0FB1
:10259000D0CFDB3561F7CDCFD53334F4D33314F45A
:1025A000D13329F70D2FC5CF8FEB8D0F8430F8F67F
:1025B000F9CFDB3309F4BDCFDE37C9F6013309F4B7
:1025C000B8CFA8F28DEC800F823088F6B2CFD2332C
:1025D00009F4AFCFCCCF662009F44FCFA11043CF81
:1025E000033409F456C0E0F4043389F058F401339D
:1025F00009F449C0033309F45EC0772009F433CFEE
:10260000412C0AC0013409F43EC00234B1F7642CF5
:10261000772009F44EC04318642C650C712C7AC0E5
:10262000013C69F168F4043409F43BC0003C29F72B
:10263000652C6194552009F416CF71105DC012C04D
:10264000023C49F0033CC9F641E0511001C040E0B2
:10265000642E619405C066246394411001C0612C0E
:10266000711047C0662009F4DFC0762C652C670C1A
:10267000C52D17140CF44EC07194C62D4BC0642C9C
:102680004110DBCFF0CE772009F4CCC04C2E45189A
:10269000C3CF7110C0CF6624639441100AC0612C6F
:1026A00008C07110F3CF41E0511001C040E0642E2A
:1026B0006194712C7FC0711009C0511680F7DD2420
:1026C000D394D50CC42C252C772473944C2D50E036
:1026D0006D2D70E0615E794F822D90E0815E994FA3
:1026E0000E9409351719622CAA2009F497CF522CA1
:1026F00024C0662009F4B7CE8C2F870D9920A1F055
:10270000C60D6C2EC81718F4982F8C2FC92F7C2E4D
:10271000781AC82F87E295E00E94AB04772009F46D
:1027200085C0C11188C097C0680E862DC61578F780
:102730008C2FC62DECCF7110E7CE852D90E0FC01DB
:10274000E15EF94F5F01805E994F511680F4442D90
:1027500050E04F5F5F4FBF010E940935F501D08304
:1027600066246394650C1F5F59CF2C2E7CCEFC0130
:102770001082F4CF81E295E00E94AB045C2E570CEE
:10278000852D90E09C01215E394F5901511638F496
:10279000F50181915F010E94C6045394F7CF5C2E2E
:1027A000882D811B0E94880987E295E00E94AB0476
:1027B000C52D512C662009F456CE560C862D1614C4
:1027C0001CF40E94360B4FCE81950E94440B4BCED9
:1027D000E12FF0E0E15EF94F108280E00E94520BA1
:1027E0006FE176E0C7010E942D3581E04ACE8D3041
:1027F00009F439CE34F4883051F08A3009F433CEFC
:1028000078CE8B3109F4B6CE8F3709F072CE5520D1
:1028100059F022242A94250CCC24C394C40CD52C22
:10282000A12C52CF652C44CF712C1DCE512C1123DD
:1028300009F4B6CFC12F8FE1A82E86E0B82E512C17
:10284000F50181915F010E94C60453945C12F8CF98
:10285000772009F4A5CF0E949F095C2E2C2F270D0D
:102860003327331F5901852D90E08A159B050CF005
:1028700081CF815E994FFC0180810E94C6045394F0
:10288000F2CF5F926F927F928F929F92AF92BF92A0
:10289000CF92DF92EF92FF920F931F93CF93DF932C
:1028A00000D000D000D0CDB7DEB75C01762E542E1C
:1028B000622ECE0101966C0186E0D6011D928A95AA
:1028C000E9F70AE613E0F12CE12C8091D9028E158C
:1028D0001F0409F00CF48CC07E1441F04E2D652DC0
:1028E000872D0E94B609882309F461C06FE970E062
:1028F0008BEA95E00E9472336620C1F0D801EC911A
:10290000F0E0D601AE0FBF1F8C918F5F8C93EE0F5E
:10291000FF1FEC58FD4F659174918FE196E00E9486
:102920007233BC0180EB95E00E942D358BEA882E36
:1029300085E0982EF40101900020E9F7CF01B50160
:1029400001970E942D35662091F0F401019000203E
:10295000E9F7EC5AF540FF27E555FA4FD8018C917D
:10296000D601A80FB11D8C91805D808311820E94D9
:10297000AF0AF80182810E942F0B8BE491E00E9444
:10298000A80A8BEA95E00E94570A0E94AF0A41E02C
:102990006BEA75E0D80112968C910E94C70A18164E
:1029A00034F460EB75E0C80105960E942D356DE4A6
:1029B00071E080E090E00E948903F801828191E05B
:1029C0009093FB0580931D061092FC0510921E0645
:1029D00060E08DEC96E00E949106D80112968C91F1
:1029E0000E945105BFEFEB1AFB0A0A5E1F4F6DCF25
:1029F00026960FB6F894DEBF0FBECDBFDF91CF9104
:102A00001F910F91FF90EF90DF90CF90BF90AF900C
:102A10009F908F907F906F905F900895FF920F939B
:102A20001F93CF93DF938C01F62E6EE270E00E942D
:102A30002235EC01892B11F0F1101BC04AE050E067
:102A400070E060E0C8010E9434328B019C01F7FE07
:102A500008C0A8EEB3E0AC019B010E945E348B017C
:102A60009C01C901B801DF91CF911F910F91FF9097
:102A7000089518824AE050E070E060E0C8010E94CA
:102A800034329B01AC01A8EEB3E00E945E348B01AE
:102A90009C01F12C37FF09C03095209510950195C8
:102AA0001F4F2F4F3F4FFF24F394FE01319684E6D2
:102AB00090E0CAE0D0E041914423F9F018161906DD
:102AC000E4F4042E000C550B405351094A305105D3
:102AD00090F7489FB001499F700D589F700D1124C9
:102AE000AB01770F660B770B040F151F261F371FDF
:102AF000BE010E94C334CB01DECFFF2009F4B1CF69
:102B000030952095109501951F4F2F4F3F4FA9CF1E
:102B1000009721F09093CE058093CD056DE471E090
:102B20008091CD059091CE050E9479330097A1F058
:102B30001092CE051092CD05FC014081242F042E69
:102B4000000C330B205331092A30310510F04D327F
:102B500029F76FEF0C940E1560E070E0CB0108953B
:102B6000FF920F931F93CF93DF93082F10E096E10E
:102B7000899FE0011124C659DC4F8A810E94FC0D17
:102B800018168CF58BEA95E00E9488152CE0209FA2
:102B9000F001219FF00D1124E652FD4F60837183F7
:102BA00082839383FF24F394C801880F991F080F31
:102BB000191FE881F0E0E950FF4FE491FE16D0F4D0
:102BC00090E080E00E948815F801EF0DF11DEE0FF6
:102BD000FF1FEE0FFF1FE652FD4F6083718382835C
:102BE0009383F394E6CF80E0DF91CF911F910F9113
:102BF000FF90089581E0F8CF4F925F926F927F929D
:102C0000BF92CF92DF92EF92FF920F931F93CF93D9
:102C1000DF931092D9020E94AF0AC0E2D0E046E1F1
:102C2000D42EBB24B394C7FD71C18091D9028C30DE
:102C300008F06CC180EB8C0F883008F45EC1C83698
:102C400009F45BC1DC1372C06DE471E080E090E0D8
:102C50000E948903D1116CC0B092FB05C0931D0680
:102C60001092FC0510921E0681E00E945105811110
:102C700044C180E191E00E94AB048C2F0E942F0B95
:102C80008AE30E9495096DE471E080E090E00E9483
:102C9000890340E06FE471E08C2F0E94C70A082E80
:102CA000000C990B0E94040F8AE30E9495096DE4C1
:102CB00071E080E090E00E9489038C2F0E94FC0D5F
:102CC000182F082E000C990B0E94040F8AE30E9413
:102CD00095091C5F153008F415C18BEA95E00E9438
:102CE000A80A8AE30E9495098091AB058F3309F009
:102CF00009C18091AC05893409F004C1E091D90281
:102D0000DE9EF0011124E659FC4F1182158280915C
:102D1000AE0501E011E08834A9F0823559F000E0F9
:102D200012E0833479F001E01FEF0CC0DC2F94CF68
:102D3000D0E09FCF11E08091AF05843509F410E019
:102D4000119501E0E12E012E000CFF08C7010E9441
:102D5000040F0E94AF0A1F3F09F4D4C0E091D902CA
:102D6000DE9EF0011124E659FC4FC28310838BEAEA
:102D700095E00E9488151091D902D19E90011124EE
:102D8000A90146595C4F3A01FA0174836383002319
:102D9000B1F040E061E571E08C2F0E94C70A6DE45C
:102DA00071E080E090E00E9489038C2F0E94FC0D6E
:102DB00018162CF48091B0058053F301818340E014
:102DC00067E571E08C2F0E94C70A6DE471E080E036
:102DD00090E00E9489038C2F0E94FC0D18164CF481
:102DE0001D9DC001112461EB75E081599C4F0E942B
:102DF0002D3540E06EE571E08C2F0E94C70A87E018
:102E000091E00E94AB046CE271E080E090E00E94EF
:102E100089038C2F0E94FC0D18160CF05EC0809167
:102E2000B3050E94C60480E40E94950985EB95E0F5
:102E30000E94A80A84E091E00E94B30A8AEF90E021
:102E40000E94AB041091D902812F0E94080B812FA0
:102E50000E94380A812F0E94B015882309F44FC0C0
:102E6000C12C870109501F4FF8018491C816C0F585
:102E7000EC2CF12CE091D9028E2F90E0FC01EE0FAA
:102E8000FF1FE80FF91FEE0DFF1DEE0FFF1FEE0FE6
:102E9000FF1FE652FD4F40805180628073804AE000
:102EA000C301B20177FE0BC08DE20E94C604662703
:102EB0007727CB0164197509860997094AE00E94B2
:102EC000640AF80184918150990BE816F9061CF404
:102ED0008CE20E949509C394C7CF80E091E0ACCF0B
:102EE00086EF90E00E94B30A0E94AF0A8091D90257
:102EF0008F5F8093D9028093D502CF5F94CE82EF0B
:102F000090E0F0CFCD13F9CFC150F7CFDF91CF9143
:102F10001F910F91FF90EF90DF90CF90BF907F9027
:102F20006F905F904F900895DF92EF92FF920F9312
:102F30001F93CF93DF93142FD22F2AE04FE156E057
:102F40000E94B0334FE156E0FA0101900020E9F70A
:102F5000AF0140525640C42F4430A8F4552784E0B6
:102F600090E07C01E41AF50A6FE176E0C701815E2A
:102F7000994F0E940935A70160E370E08FE196E068
:102F80000E941B35C4E01D5FD12EDC1A1D14B4F461
:102F90004C2F50E06FE176E0ED2C0D2C000CFF087B
:102FA000C701815E994F0E940935602F000F770B92
:102FB000A7018FE196E00E941B35C12F8C2F90E076
:102FC0008C01045E194F43E050E0B801835E994FD5
:102FD0000E9409358EE2F8018083CF5F12E01D0F59
:102FE0001D0D412F4C1B141664F4042E000C550BC0
:102FF0008C2F90E060E370E0815E994F0E941B355A
:10300000C12FECEFEC0F80E0DD2321F08E2FEDEFF0
:10301000ED0FEC0FF0E0E15EF94F1082DF91CF9100
:103020001F910F91FF90EF90DF900895CF92DF9264
:10303000EF92FF920F93CF936B017C01C42F442337
:10304000E9F000E223E041E00E9494176FE176E0AE
:1030500088E795E00E942D3588E795E00E94E3110E
:10306000882391F06C2F61958FE196E0CF910F91BD
:10307000FF90EF90DF90CF900C940E152AE048E778
:1030800055E00E94B033E8CFC701B601CF910F9150
:10309000FF90EF90DF90CF900895CF93DF93EC01F6
:1030A000688179818A819B8141E00E94161868833A
:1030B00079838A839B8381E0DF91CF910895CF92BA
:1030C000DF92EF92FF920F931F93CF93DF93D62F50
:1030D0007A01122FC02F282F30E0A8EEB3E00E9413
:1030E000A03400E320E042E00E9494176FE176E014
:1030F00088E795E00E942D3588E7C82E85E0D82E18
:10310000F60112832D2F30E0A8EEB3E00E94A03428
:1031100020E042E00E9494176FE176E08BE795E0B3
:103120000E942D35F60115839701A8EEB3E00E94A9
:10313000A03420E04C2F0E9494176FE176E08EE7D8
:1031400095E00E942D35EC2FF0E0E858FA4F1682FA
:10315000DF91CF911F910F91FF90EF90DF90CF9073
:103160000895AF92BF92CF92DF92EF92FF920F93AA
:103170001F93CF93DF9300D01F92CDB7DEB7198294
:103180001A821B829E012D5F3F4F59012150310948
:10319000690121503109790110E000E030E020E0C0
:1031A00050E040E00E941A074B8150E002E02AE321
:1031B0006A8189810E945F180F900F900F90DF91B4
:1031C000CF911F910F91FF90EF90DF90CF90BF9024
:1031D000AF900895CF92DF92EF92FF920F93CF932B
:1031E000DF93C0907902D0907A02E0907B02F09059
:1031F0007C02C701B6010E94B118C701B60120E8E0
:1032000031E541E050E00E943C34A8EEB3E00E947A
:103210005E3400E220E043E00E94941749E050E071
:1032200068E775E08DE795E00E940935C8E7D5E0CD
:1032300083E0EFE1F6E0DE0101900D928A95E1F77F
:1032400084E68B8380E28C83CE01DF91CF910F9156
:10325000FF90EF90DF90CF900C94A80A0F931F93EC
:10326000CF93DF93D82FC62F8A010E949F0968E170
:1032700081E00E947A0CDF3F49F589E20E94520BFF
:1032800084E00E948809C8010E94A80A80E00E9488
:103290008B0B81E30E94520B8AE095E00E94AB0405
:1032A0000E94EA18C11106C0E80109900020E9F760
:1032B0002197C01B88E28C1B0E94880981E295E05F
:1032C000DF91CF911F910F910C94AB0481E00E948C
:1032D0008B0BD6CFCF93DF93EC016881798190E09F
:1032E00080E00E94B11888E795E00E94E3110E94F7
:1032F0000E1079836883DF91CF910895CF93DF9388
:10330000EC01662331F00E946A1981E0DF91CF91D0
:1033100008956881798190E080E040E00E9416186D
:1033200079836883F2CF0F9361E083E40E947A0C83
:103330000E949F090E94EA1868E18DE30E947A0CBE
:10334000409102015091030104E02EE260910401DA
:10335000809105010E945F1888E795E00E94A80A05
:103360000E9492094091730250E002E02AE36091CA
:103370007202809171020E945F1888E795E00E94B6
:10338000A80A8EE095E00E94AB0481E295E00F91DF
:103390000C94AB046F927F928F929F92AF92BF92E8
:1033A000CF92DF92EF92FF920F931F93CF93DF9311
:1033B000CDB7DEB7C155D1090FB6F894DEBF0FBE49
:1033C000CDBFD82EC62E89E0EFE0F1E0DE01A75B8D
:1033D000BF4F01900D928A95E1F785E691E00E943A
:1033E000A90F182F61E0680F83E00E947A0C82E039
:1033F000810F0E94AB0C182F4CE463E081E0810F39
:103400000E94920C1093340210923302E5E3F2E032
:10341000DE0111968191919111969C938E9318964D
:1034200022E0E334F207B1F7809143029091440225
:103430009AAF89AF80914B0290914C0223969FAF37
:103440008EAF2397FE01319680E0F12CE12CD81647
:1034500019F03FEFD31209C02081318121153105C8
:1034600021F0E216F30608F479018F5F389689306F
:1034700071F7FE01319640E0D41619F05FEFD512D6
:103480005BC0208131812115310509F455C081E0EF
:10349000C81609F4E4C0C701B9010E94AF348B011A
:1034A0002617370708F48901C901B8010E94AF3413
:1034B0005B01609FC001619F900D709F900D112472
:1034C0008217930718F49FEFA91AB90A0A9DC00141
:1034D0000B9D900D1A9D900D11242817390738F473
:1034E0000115110509F4C5C001501109DDCFB582E0
:1034F000A482C701821B930BB8010E94AF3477836B
:1035000066836A0D7B1D609FC001619F900D709F57
:10351000900D11249701281B390BC90196958795A9
:103520009383828382819381892B31F48681978171
:1035300096958795938382834F5F3896493009F03B
:103540009BCF3FEFE31AF30AB12CA12C88E7882E1A
:1035500085E0982EE114F10409F46AC00E94300855
:10356000882309F45AC041E0E41AF108B70190E059
:1035700080E00E94B11864E771E080E895E00E9465
:103580002D35F40101900020E9F7BF01695775401E
:1035900048E755E080E00E942E199E01275B3F4FCF
:1035A00039018E010F5F1F4FC12CDC1419F03FEF62
:1035B000D3121AC0F80180819181892BA9F08281F0
:1035C0009381A816B90680F024813581A501481B96
:1035D000590BCA0166817781620F731F0E94AF3455
:1035E00061E08217930708F060E08FEF8C0D833065
:1035F00020F0F30180810E943603C394FFEF6F1A1D
:103600007F0A085F1F4F29E0C212CFCF3FEFA31AF6
:10361000B30A0E9493190E94C00C80E396E00E94B6
:103620001C04892B09F496CF80E396E00E94FA03EC
:10363000CF5ADF4F0FB6F894DEBF0FBECDBFDF917C
:10364000CF911F910F91FF90EF90DF90CF90BF909F
:10365000AF909F908F907F906F900C944C0A358321
:103660002483C701821B930B978386831382128264
:1036700059CF0E9404358F929F92AF92BF92EF92E2
:103680000F93CF93DF934B015C01C42FD22F8E2D6C
:103690000E948B0BDD23C1F02D2F4C2FC501B401EF
:1036A0000E949417C82F8FE196E00E94A80A80E03C
:1036B0000E948B0B8C2FDF91CF910F91EF90BF90D9
:1036C000AF909F908F900895A8EEB3E0A50194016C
:1036D0000E945E3420E04C2FE3CFBF92CF92DF9266
:1036E000EF92FF920F931F93CF93DF93F82EEB018E
:1036F000B42ED22E11E0209709F010E0C12EE12C5B
:1037000000E020E240E060E08F2D0E94330FBE0118
:1037100090E080E0BB20F1F00E94B11888E795E0CE
:103720000E94A80ADD20E9F0C12EE12E00E020E091
:1037300048E261E080EE8F0D0E94330F81E0DF915F
:10374000CF911F910F91FF90EF90DF90CF90BF909E
:103750000C949D0BE12C00E220E048E00E943B1B12
:10376000E1CF88E895E00E94AB04E8CFEF920F9399
:103770001F93CF93DF93C82FD62F142F0E943C0C9A
:10378000612F8D2F0E947A0C84E0C89FF0011124D4
:10379000E05AFA4F6081718182819381EE24E39433
:1037A00000E222E043E00E943B1B60E08C2FDF91AF
:1037B000CF911F910F91EF900C945F10EF920F93A8
:1037C000CF93C82F482F6EE080E00E94B61B4C2F8D
:1037D00063E281E00E94B61B82E00E943C0C6C2FE9
:1037E00083E30E947A0C609168057091690580916D
:1037F0006A0590916B0528EE33E040E050E00E94AE
:10380000D734CA01B901EE24E39400E220E044E099
:103810000E943B1B60E082E00E945F104C2F62E43C
:1038200083E00E94B61B81E08C0FCF910F91EF9047
:1038300008952F923F924F925F926F927F928F9254
:103840009F92AF92BF92CF92DF92EF92FF920F932F
:103850001F93CF93DF93CDB7DEB7A1970FB6F89440
:10386000DEBF0FBECDBF888F8091180190911901E6
:10387000A0911A0189839A83AB8380911B01909157
:103880001C01A0911D018C839D83AE8320E635E051
:103890003F872E87AE014C5F5F4F5F8B4E8BCE0113
:1038A00001969D8B8C8B10E0188A123009F4B2C0FF
:1038B00081E090E0E2E0EB8BEE89FF892191FF8BC4
:1038C000EE8B298FEC89FD892191FD8BEC8B2F8369
:1038D0004AE653E05A8B498BEAEDF2E0F987E88734
:1038E000288C412C512C3201812C912C54011A86A8
:1038F0001B861C861D86D12CC12C312C9C01990F56
:10390000440B550B2E8F3F8F48A359A38091D902AA
:103910008C151D0409F00CF493C0E989FA898081A3
:1039200081136AC03394E885F98580819181A281F1
:10393000B3812A853B854C855D85280F391F4A1F39
:103940005B1F2A873B874C875D8784819581A68191
:10395000B781880E991EAA1EBB1E80859185A285FF
:10396000B385480E591E6A1E7B1EF12CA6014F5FBF
:103970005F4F5B8F4A8FC601880F991FFC01EC0DCA
:10398000FD1DFD8FEC8F622D8F810E947A0C8A8D38
:103990009B8D0E94040F81E492E00E94AB04EC8DA9
:1039A000FD8DEF0DF11DEE0FFF1FEE0FFF1FE65215
:1039B000FD4F60817181828193812E8D3F8D48A161
:1039C00059A10E94D734CA01B901EE24E39400E260
:1039D0002B89498D0E943B1B113041F5FF2031F1AD
:1039E0002F81235D2F8361E085E08F190E945F1096
:1039F000F394113099F023944FEFC41AD40A8989B3
:103A00009A8946969A8B898BE885F9853C96F98741
:103A1000E8877CCF88EE93E01B8A4ECFF2E0FF155B
:103A200008F0B1CF4F814C544F83E5CF61E0812F37
:103A30000E945F101130E1F63F813E503F83D8CFA6
:103A40003320A1F1C32CD12CF12CE12C6A857B858C
:103A50008C859D85A70196010E94D734EE85FF8550
:103A600020833183428353831130E1F4C501B401D3
:103A7000A70196010E94D7342093700530937105F9
:103A80004093720550937305C301B201A7019601DB
:103A90000E94D73420936C0530936D0540936E05DA
:103AA00050936F05F889F31508F4388A1F5F2E8547
:103AB0003F852C5F3F4F3F872E87133009F0F5CEAF
:103AC000888D3889830FA1960FB6F894DEBF0FBE9C
:103AD000CDBFDF91CF911F910F91FF90EF90DF90BD
:103AE000CF90BF90AF909F908F907F906F905F909E
:103AF0004F903F902F900895CF93DF930E94DC0B5F
:103B00000E949F098DE791E00E94A90FC82F81E2D2
:103B100095E00E94AB04D2E0DC0F61E06C0F83E023
:103B20000E947A0C8D2F0E94AB0CC82F4FE851E0F9
:103B300060E080E00E942E198C2F0E94191C4CE43A
:103B400063E00E94920C0E94DE1B4CE463E00E9442
:103B5000920CC82F81E00E948B0BC093340210920C
:103B600033024CE463E081E08C0FDF91CF910C9441
:103B7000920C8F929F92AF92BF92CF92EF920F933F
:103B8000962F49015A01C12CE12C00E020E240E0CF
:103B900060E0890F0E94330F00E222E044E0C5019B
:103BA000B4010E943B1B80E00F91EF90CF90BF903B
:103BB000AF909F908F900C949D0B8F929F92AF929D
:103BC000BF92EF920F93CF93C82F4A015B0185EA12
:103BD00091E00E94AB046C2F8DE10E947A0C82EA86
:103BE00091E00E94AB04EE24E39400E222E044E082
:103BF000C501B4010E943B1BCF910F91EF90BF9084
:103C0000AF909F908F9008952F923F924F925F9226
:103C10006F927F928F929F92AF92BF92CF92DF92DC
:103C2000EF92FF920F931F93CF93DF9300D000D0BA
:103C3000CDB7DEB7782E662E19012A0128E7298331
:103C40001A821C82C12CD12C76018091D9023A8132
:103C5000381770F5032F10E046E1409FF001419FB7
:103C6000F00D1124E659FC4F808181111DC08C811B
:103C70008F5F8C83832F0E94080B8A810E94380AF1
:103C80008A810E94B015ECE0E09FC001E19F900D99
:103C9000112486529D4FFC0180819181A281B381C4
:103CA000C80ED91EEA1EFB1EFA81FF5FFA83CDCF34
:103CB0002C81222309F4AEC030E050E040E0C7017F
:103CC000B6010E94D73449015A0180926005909252
:103CD0006105A0926205B09263050E94AF0A80E080
:103CE0000E94780B0E94D40B80EF90E00E94AB04FE
:103CF000E12C00E222E044E0C201B1010E943B1B42
:103D00008BEE90E00E94AB0480E00E94780B80E193
:103D100095E00E94AB0480E00E94CB0B0E949209C8
:103D200022E043E0C501B4010E943B1B81E00E94F8
:103D3000780B87EE90E00E94AB0480E00E94780B45
:103D400083E00E94360B10E094E1F92E8091D902B5
:103D5000181708F075CF171541F0412F662D872DE4
:103D60000E94B609882309F443C0812F0E94080BE2
:103D7000812F0E94380A812F0E94B015812F90E078
:103D80009B838A83BC016F5F7F4F072E000C880BDB
:103D9000990BE12C00E320E042E00E943B1B84EE03
:103DA00090E00E94AB042CE0EA81FB812E9FC001D1
:103DB0002F9F900D112486529D4FFC0160817181CF
:103DC00082819381EE24E39400E222E044E00E94A9
:103DD0003B1B80E00E949D0BFEE0FF0E22E42F15AE
:103DE00038F40E94AF0A84E10E94360B85E1F82E78
:103DF0000E943008882319F039813150398380E3DB
:103E000096E00E941C04892B71F44981442359F0E7
:103E10001F5F9CCF8090600590906105A090620527
:103E2000B090630552CF80E396E00E94FA034B976F
:103E300019F4812C912C5401C501B4010F900F90FD
:103E40000F900F90DF91CF911F910F91FF90EF9006
:103E5000DF90CF90BF90AF909F908F907F906F90AA
:103E60005F904F903F902F900895CF92EF92FF92E6
:103E70000F931F93CF93DF93EB01142FF22ECC24DB
:103E8000C394209709F0C12CE12C00E020E240E02F
:103E900060E00E94330FFF20A1F0BE0190E080E0BF
:103EA0000E94B11888E795E00E94A80A1123D9F072
:103EB000DF91CF911F910F91FF90EF90CF900C94D5
:103EC000AE0B9E01A8EEB3E00E94A03400E220E019
:103ED00046E00E9494178FE196E00E94A80A82E0D3
:103EE0000E948809E3CFDF91CF911F910F91FF903E
:103EF000EF90CF9008952F923F924F925F926F92E2
:103F00007F928F929F92AF92BF92CF92DF92EF9269
:103F1000FF920F931F93CF93DF93082FD62E142F6A
:103F2000322EF12C8F3F19F4FF24F39400E04FE37D
:103F300065E0812F0E94920CCAE6D3E02AED622E42
:103F400022E0722E912C812C402E512C26E1029FD2
:103F5000C0011124FC01E659FC4F5F018091D90298
:103F60008815190409F00CF4C0C09881F50180810E
:103F7000981719F0FF2009F4ADC01F5F2224239485
:103F80004814590419F0D11001C0212C612F85E08B
:103F90000E947A0C31100FC0CC24C394C224E22CAE
:103FA00000E020E048E260E081E3880D0E94330FEA
:103FB00081E00E94440B81E0222009F493C00E941A
:103FC0008B0B83E00E94360BCE0105960E94A80A57
:103FD000612F8AE10E947A0C822D0E949D0BF301D1
:103FE000608171818281938100E222E045E00E943C
:103FF000941788810E943C0C211003C081E00E942C
:10400000780B8FE196E00E94A80A80E00E94CB0B1B
:1040100081E00E94780B0E949209E881F0E0EE0FA7
:10402000FF1FE258FA4F659174918FE196E00E946C
:1040300072330E94A80A612F89E20E947A0C80E004
:104040000E949D0BE881F0E0EE0FFF1FEC58FD4F42
:10405000659174918FE196E00E9472330E94A80AE4
:10406000612F80E30E947A0C80E00E949D0B6B819F
:104070007C8190E080E000E322E042E00E9494171F
:104080008FE196E00E94A80A612F88E30E947A0CD3
:1040900080E00E949D0B2A8130E0A8EEB3E00E94F0
:1040A000A03400E220E043E00E9494178FE196E004
:1040B0000E94A80A612F8EE30E947A0C89810E94D7
:1040C0009D0B89810E942F0B80E00E948B0B80E06A
:1040D0000E949D0BFFEF8F1A9F0A66962CE0620EDE
:1040E000711C3CCF0E94780B6CCF80E00E94780B53
:1040F0004FE365E081E0810F0E94920C82E0810F26
:10410000DF91CF911F910F91FF90EF90DF90CF90B3
:10411000BF90AF909F908F907F906F905F904F90E7
:104120003F902F9008950F93CF93DF93C82F682F60
:1041300085E00E947A0C81E60E948B0F82E991E073
:104140000E94AB0482E60E948B0F88E791E00E94F8
:10415000AB0483E60E948B0F89E691E00E94AB04DA
:10416000D2E0DC0F43E068E081E08C0F0E94920C0B
:104170006D2F85E00E947A0C84E60E948B0F8AE501
:1041800091E00E94AB0481E00E948B0B8EE592E0EF
:104190000E94A80A6D2F8AE20E947A0C85E60E948E
:1041A0008B0F88E491E00E94AB0443E068E083E079
:1041B0008C0F0E94920C64E06C0F85E00E947A0CD8
:1041C00086E60E948B0F80E391E00E94AB0481E0C1
:1041D0000E948B0B20916F0230E0A8EEB3E00E94AA
:1041E000A03400E320E043E00E9494178FE196E0C2
:1041F0000E94A80A85E00E94880987E60E948B0F2A
:104200008AE191E00E94AB0485E08C0FDF91CF91B1
:104210000F9108958F929F92AF92BF92CF92DF92AB
:10422000EF92FF920F931F93CF93DF936C01D62FE2
:10423000F42E48015901CE2D60EE70E08BEA95E036
:104240000E947233EE20E9F18CE28093AE05C33018
:1042500059F150F4C13099F066ED70E0C23089F048
:10426000C53078F5C4E012C0C53031F1C630C1F7B1
:104270006CEC70E08FEA95E00E94723322C06BED27
:1042800070E08FEA95E00E947233C8E000E322E01C
:1042900041E0C501B4010E9494178C2F90E06FE1BA
:1042A00076E085559A4F0BC060ED70E08FEA95E09F
:1042B0000E947233C9E0EACFB6018FEA95E00E940E
:1042C0002D35C0E086E1E82EED9E800111240659CF
:1042D0001C4F8091D902C81798F5CD1739F04C2F93
:1042E0006F2D8D2F0E94B609882341F1D801EC91E2
:1042F000F0E0E753FF4FE491EE2301F10E94AF0A93
:10430000EC9EC0011124FC01E659FC4F6F01828133
:104310000E942F0B8BE491E00E94A80A8BEA95E0A3
:104320000E94570A0E94AF0A40E06BEA75E0D6018E
:1043300012968C910E94C70AF6011182CF5FC9CFF5
:10434000DF91CF911F910F91FF90EF90DF90CF9071
:10435000BF90AF909F908F900895CF92DF92EF9291
:10436000FF920F931F93CF93DF93D62FF42E8336B4
:1043700009F46BC09CF4813609F461C00CF09CC058
:104380008F5F823008F45FC080E0DF91CF911F9192
:104390000F91FF90EF90DF90CF900895853609F44C
:1043A0005FC00CF458C0863609F45EC0873661F7EA
:1043B000C0916F029AE6C92E93E0D92E10E000E07A
:1043C0008091D9028017110609F00CF46CC080EBC3
:1043D0008C0F883008F465C0C83609F4C9E6D017D8
:1043E00039F0402F6F2D8D2F0E94B609882309F1D7
:1043F0006DE971E08FE196E00E9472334AE068E770
:1044000075E08C2F90E00E94A53368E775E083E2A9
:1044100096E00E942D3540E06FE176E0F601828162
:104420000E94C70ACF5F6CE271E080E090E00E94DA
:1044300089030F5F1F4FF6E1CF0ED11CC1CF642F50
:104440008D2F0E94851081E0A0CF20E084E491E0D0
:104450000E944114F8CF8EE592E00E94E311F3CF61
:1044600021E08EE592E0F4CF60916F0270E090E081
:1044700080E040E00E94161860936F022091D902FC
:104480008FE790E0821B91096817190631F02CF034
:104490008FE7821B80936F02D6CF6032A0F680E256
:1044A000F9CFC8E59CCF68EE73E080E090E00E9411
:1044B00089030E94FC15C7CF85E0E82E00E010E0DC
:1044C000980184EA91E00E940A21BDCFFF920F93E8
:1044D0001F93CF93DF93EC01F62E08811981C80159
:1044E0000E941634F81621F06F2DC8010E941E3468
:1044F000CE01DF91CF911F910F91FF900895EF9220
:10450000FF920F931F93CF93DF9300D0CDB7DEB709
:104510008DECE82E82E0F82E08EE13E01A83098372
:10452000F70161917F01CE0101960E9466220F5F23
:104530001F4F043FF3E01F0789F70F900F90DF91A3
:10454000CF911F910F91FF90EF900895EF92FF92FE
:104550000F931F93CF93DF9300D0CDB7DEB729E23F
:10456000AC01249FC001259F900D112405E312E0AA
:10457000FC01E058FF4F7F01C701800F911F9A8314
:104580008983F80161918F01CE0101960E94662214
:10459000F2E00E351F0781F70F900F90DF91CF915A
:1045A0001F910F91FF90EF900895EF92FF920F935C
:1045B0001F93CF93DF9300D0CDB7DEB72FE8AC01C8
:1045C000249FC001259F900D112408EB14E0FC01ED
:1045D000E05BF3407F01C701800F911F9A838983BD
:1045E000F80161918F01CE0101960E946622F5E0EB
:1045F00007341F0781F70F900F90DF91CF911F9124
:104600000F91FF90EF900895EF92FF920F931F93F9
:10461000CF93DF9300D0CDB7DEB78AE6E82E83E0F4
:10462000F82E10E000E01A830983F70161917F0101
:10463000CE0101960E9466220F5F1F4F0830F1E005
:104640001F0789F70F900F90DF91CF911F910F9166
:10465000FF90EF9008952F923F924F925F926F924A
:104660007F928F929F92AF92BF92CF92DF92EF9202
:10467000FF920F931F93CF93DF93CDB7DEB7689769
:104680000FB6F894DEBF0FBECDBF8DE791E00E945C
:10469000A90F20E0482F61E08FEF0E947B1FC82EFA
:1046A000082E000CDD08682F85E00E947A0C81E658
:1046B0000E948B0F80ED94E00E94AB0482E60E9482
:1046C0008B0F86EC94E00E94AB0483E60E948B0F74
:1046D0008EEB94E00E94AB0484E60E948B0F86EB85
:1046E00094E00E94AB0485E60E948B0F8DEA94E073
:1046F0000E94AB046091D30270E090E080E0EE2471
:10470000E39400E320E043E00E943B1B43E068E0C9
:1047100081E08C0D0E94920CB6016E5F7F4F85E0A8
:104720000E947A0C86E60E948B0F84EA94E00E9435
:10473000AB0481E00E948B0B6091CE027091CF029E
:104740008091D0029091D1024AE00E94640A80E0F8
:104750000E948B0B83E00E94880987E60E948B0FE2
:1047600080EA94E00E94AB0481E00E94780B87E924
:1047700094E00E94AB0480E00E94780B88E60E94DF
:104780008B0F8BE894E00E94AB046091D40241E06F
:10479000611140E089E60E949A0F81E894E00E944E
:1047A000AB0443E068E083E08C0D0E94920C182F6C
:1047B000682F85E00E947A0C8AE60E948B0F86E7BC
:1047C00094E00E94AB048BE60E948B0F89E694E094
:1047D0000E94AB048CE60E948B0F85E594E00E945A
:1047E000AB048DE60E948B0F8BE494E00E94AB0437
:1047F00043E068E081E0810F0E94920C62E0610F6B
:1048000085E00E947A0C8EE60E948B0F8BE394E089
:104810000E94AB0482E20E94BF0B86E395E00E94F7
:10482000A80A83E00E9488098AEA91E00E94C90FE1
:1048300085E294E00E94AB0482E20E94BF0B80916B
:10484000D60290E001960E94040F80E00E94CB0BFC
:104850000E94BF0A6091D90281E70E942F098D83CF
:10486000873609F4ACC40CF046C0823609F460C146
:10487000B4F48F3F34F018160CF0DCC1813609F423
:104880004EC19D802FEC920E6CE673E08EE592E0B7
:104890000E94723381E280936F02A12CA2C42D8109
:1048A000243609F494C10CF447C1253609F4DDC15E
:1048B000263639F76091CE027091CF028091D002F6
:1048C0009091D10240E00E9416186093CE0270933E
:1048D000CF028093D0029093D10220EB34E040E0ED
:1048E00050E00E943C34672B682B692B09F0CAC149
:1048F0000E947F22CACE3D813C3609F43BC20CF0B7
:10490000A0C0393609F4C1C10CF462C43A3609F4C6
:10491000ABC03B3609F0B5CF8DEB91E00E94A90FFB
:10492000082F61E0680F8CE00E947A0C61E080E063
:104930000E94B40B8CE792E00E94AB0462E081E03D
:104940000E94B40B85E892E00E94AB044CE463E063
:1049500082E0800F0E94920C94E0F92EF00E63E04A
:10496000600F83E00E947A0C24E7A22E22E0B22E90
:1049700036EFC32E34E0D32E10E081E00E948B0B83
:10498000F501659174918FE196E00E94723369E0C0
:104990000E94140B80E00E949D0BF6012191319141
:1049A000419151916F01612F81E60E94B91DF6017D
:1049B0002485358546855785612F85E60E94B91D7A
:1049C000F601248D358D468D578D612F89E60E9425
:1049D000B91D123090F4F60124A535A546A557A5BA
:1049E000612F8DE60E94B91DF60124A935A946A9BB
:1049F00057A9612F8FE60E94B91D6F2D610F83E0CB
:104A00000E947A0C1F5FF2E0AF0EB11C143009F067
:104A1000B4CF88E0800F0E94E00F0E94BF0A63E0DD
:104A200080E70E942F0918160CF02FCE81360CF467
:104A30005FC185360CF03AC124E08202C001112426
:104A40003BC18D818E3609F4B0C30CF4B8C28237F5
:104A50000CF017CF8D818F568093D60290E00E9484
:104A60008E110E947F22E2C081E280936F026CE689
:104A700073E08EE592E00E94723380EB91E00E9439
:104A8000A90F21E0482F61E08FEF0E947B1F0E9459
:104A90009320182F43E068E00E94920C61E0610FC0
:104AA00085E00E947A0C6091CD0241E0611140E006
:104AB00088E60E949A0F8AE592E00E94AB0480E0AB
:104AC0000E94780B4091CD0261E0411160E089E6DF
:104AD0000E949A0F84E492E00E94AB0480E00E945E
:104AE000780B0E94BF0A6FEF89E60E942F09182FEA
:104AF00042E060E00E94AD21811104C0183631F01F
:104B0000193651F011160CF4B8CFBFCD81E0809367
:104B1000CD020E947F22B1CF1092CD02FACF0E9427
:104B2000DC0B61E081E00E947A0C0E94FC15ADCDA7
:104B3000F0E0E0E00995A9CD6091740470917504EE
:104B400080917604909177041C821B821A821982CC
:104B5000B12CA12CD12CC12CF12CE12C8E010F5F9A
:104B60001F4F9E012D5F3F4FAE014C5F5F4F0E9474
:104B70001A0749815A8104E02EE26B818C810E94E0
:104B80005F1888E795E00E94E31162EA71E08FE127
:104B900096E00E94793310E000E0009709F45BC5CD
:104BA0000330110509F457C50E944B3397FD53C5D7
:104BB0000115110519F480970CF04DC562EA71E0FA
:104BC00090E080E00E9479330F5F1F4FE6CF60E0F6
:104BD00070E0CB0143E7A42E42E0B42E52E7C52E8D
:104BE00052E0D52EE1E7EE2EE2E0FE2E02E011E0EB
:104BF00024E031E045E051E00E941A0740910201B3
:104C000050910301E09073020091720220917102B1
:104C100060910401809105010E94A60760937404CD
:104C20007093750480937604909377043D811316F6
:104C30000CF42BCD0E947C1D68960FB6F894DEBF55
:104C40000FBECDBFDF91CF911F910F91FF90EF90DD
:104C5000DF90CF90BF90AF909F908F907F906F909C
:104C60005F904F903F902F9008956091D30270E035
:104C700090E080E040E00E9416186093D3026F3FFE
:104C800009F036CE0E941F1100CD81E09091D40230
:104C9000911180E08093D4020E947F228091D402FF
:104CA000882309F4F2CC0E940423EFCC893674F4F3
:104CB00034E08302C00111248E589C4F0E944D188D
:104CC000813019F58091D60290E01CC08D362CF40D
:104CD000E4E08E02C0011124EFCF8F362CF4F4E013
:104CE0008F02C0011124E8CF81370CF015CEA4CE7D
:104CF00081330CF4D4C483330CF00ECE082E000C98
:104D0000990BC1970E94D52207CE18160CF404CE39
:104D1000BCCC4CE463E081E0D3C01F5FD5C08037DA
:104D200044F083370CF4EEC089E8890F833008F42F
:104D3000E9C061E019160CF0A8CC292F092E000C4F
:104D4000330B91360CF4E0C0983674F4C901880F27
:104D5000991F8A509C4F0E947E19813009F0EAC049
:104D60008091D60290E0E3C09F3684F3963774F3C7
:104D70009B3764F38CEC91E00E94A90F11E0180FAF
:104D800005E2A02E03E0B02E88EBC82E84E0D82EDA
:104D900000E0002321F0612F0430E9F41F5F612F50
:104DA0008CE00E947A0C81E00E949D0B82EC92E0E4
:104DB0000E94AB0462E080E00E94B40B85E892E0C0
:104DC0000E94AB044CE463E081E0810F0E94920CEE
:104DD000612F6E5F1D5F83E00E947A0CFF24F394C5
:104DE0008FEF800F833008F4F12C81E00E948B0B51
:104DF000F501659174918FE196E00E94723369E04C
:104E00000E94140B0E94AE0BF601619171916F012B
:104E10002F2D40E081E6800F0E94351F0E94AE0BCF
:104E2000F601648575852F2D41E088E6800F0E948C
:104E3000351FF601628D738D2F2D41E08FE6800FB7
:104E40000E94351F0530A0F4F60160A571A52F2D35
:104E500041E086E7800F0E94351FF60162A973A921
:104E60002F2D40E081E4800F0E94351F0E94AE0B81
:104E7000612F83E00E947A0C033009F44ACF04309A
:104E800019F101114ACF4CE463E0812F0E94920C8A
:104E9000182F61E0680F8CE00E947A0C81E00E947C
:104EA0009D0B87EB92E00E94AB0462E080E00E94E1
:104EB000B40B85E892E00E94AB044CE463E082E02E
:104EC000810F0E94920C182F0F5FF2E0AF0EB11C01
:104ED000073009F05ECF81E0810F0E94E00F0E9451
:104EE000BF0A63E08AE70E942F09982F8C360CF0E6
:104EF00016CF89363CF482340CF41BCF8EE99534FE
:104F00000CF013CF60E016CF91344CF096340CF0D7
:104F100031CFC901880F991F86599B4F1CCF913300
:104F20000CF4C1C394330CF025CFC901C1970E9482
:104F3000D52220CF18160CF41DCFA7CB8FEF800FF2
:104F4000833008F09CC060E08FE00E94B40BF60153
:104F50006485758520E040E08EC09FE9980F97300A
:104F600050F4880F990B8D589E4F0E946A198091BA
:104F7000D70290E017C1893674F08C3674F4880F2C
:104F8000990B60E08D589E4F0E947E19813079F315
:104F90001816ACF0E0C0883621F38C3611F39FEB85
:104FA000980F973040F0982F9B7F983409F0D6C027
:104FB00061E0825402C061E0892F0E94CA1984EE28
:104FC00091E00E94A90F182F61E0680F85E00E9410
:104FD0007A0CC12CEE24E39400E020E248E260E089
:104FE0008FE60E94330F82E20E94520B60E18DE453
:104FF00092E00E94140B80E00E94520B83E393E046
:105000000E94AB04E3E0FE2EF10E49E465E082E08D
:10501000810F0E94920CF5E2AF2EF3E0BF2EA5E3C4
:10502000CA2EA2E0DA2E6F2D600F88E00E947A0C63
:1050300081E00E948B0BF501659174918FE196E000
:105040000E94723361E10E94140B81E00E949D0B6B
:10505000F601619171916F0121E041E081E6800FDD
:105060000E946D1B802F8B7F09F068CFF60164854D
:10507000758521E041E088E6800F0E946D1B0F5F7F
:10508000F2E0AF0EB11C073071F649E465E08AE04A
:10509000810F0E94920C6CE0610F85E00E947A0CF7
:1050A00084EF91E00E94C90F8CE193E00E94AB0471
:1050B0008AEF91E00E94C90F8EE093E00E94AB045A
:1050C0008DE60E948B0F84E093E00E94AB048EE695
:1050D0000E948B0F88EF92E00E94AB0443E068E0EF
:1050E0008DE0810F0E94920C6EE0610F85E00E94BE
:1050F0007A0C8FE60E948B0F8CEE92E00E94AB043C
:1051000084E092E00E94C90F8EED92E00E94AB0411
:1051100082E20E94520B81E00E948B0B8091D702A9
:1051200090E001960E94040F80E00E94520B83E001
:105130000E9488098AE092E00E94C90F8DEC92E0FB
:105140000E94AB040E94BF0A68E08FE60E942F090C
:1051500018160CF402CF0E944C0A97CA60E08D36F4
:1051600019F08E3619F461E08FEF27CF81330CF4FC
:105170009EC285334CF481538093D70290E00E9405
:1051800071110E947F221BCF893344F08F3609F0C2
:1051900016CF8DE492E00E94E311E9CE082E000CB8
:1051A000990BC5970E94A6220ACF86E395E00E943C
:1051B000E3118091D60290E00E94D52266CA8091C8
:1051C000D2020E94A3098093D2028093000190CB67
:1051D0008091D8020E94A3098093D80289CBAA2487
:1051E000A39480E192E00E94A90F20E0482F6A2D4D
:1051F000892D0E947B1F8F5F0E94932001E0080F82
:1052000043E068E00E94920C602F85E00E947A0CD7
:1052100088E60E948B0F83E194E00E94AB04602F2C
:105220008EE10E947A0C4A2D11E01A25612F89E641
:105230000E949A0F85E094E00E94AB04602F83E304
:105240000E947A0C412F6A2D8AE60E949A0F8AEFFB
:1052500093E00E94AB0480E00E948B0B0E94BF0A87
:1052600069E08AE60E942F09182F4A2D692D0E94B5
:10527000AD218111ECC1193609F40FCB1A3609F4AE
:10528000AECF183609F0E0C110E01C8A1B8A1A8ADA
:105290001B861C861D861E861F86412C512C3201C2
:1052A000312C212CF12CD12C1F82188619861A86BC
:1052B00036E1939EC0011124FC01E659FC4FF88FA2
:1052C000EF8B05C03C842D84FE84DF8411E06DEEFD
:1052D00073E08BEA95E00E947233EF89F88D80814C
:1052E000813009F4E9C008F4BDC0823009F4EBC094
:1052F0008BEA95E00E94A90F082F111104C06A2DB6
:10530000892D0E94851021E0402F6A2D892D0E9451
:105310007B1FCC24C394C80E682F85E00E947A0CB2
:105320002B8520FB80F83A8930FB81F8E89482F8DD
:1053300020FB83F88B8980FB84F89C8990FB85F89F
:10534000E89486F8082D017080FE07C081E60E946F
:105350008B0F88EC93E00E94AB04182D127081FE35
:1053600007C082E60E948B0F85EB93E00E94AB049E
:1053700082FE07C083E60E948B0F87EA93E00E94BB
:10538000AB0443E068E08C2D0E94920CB82EC82E2E
:1053900083FE15C0682F85E00E947A0C84E60E9487
:1053A0008B0F88E993E00E94AB04CC24C394CB0C10
:1053B000432D522D6F2D7D2D8B2D0E94DD1D84FEE2
:1053C00013C06C2D85E00E947A0C85E60E948B0F3D
:1053D00089E893E00E94AB044C855D856E857F85EE
:1053E0008C2DC3940E94DD1D85FE13C06C2D85E0BD
:1053F0000E947A0C86E60E948B0F81E893E00E945F
:10540000AB044F81588569857A858C2DC3940E94A1
:10541000DD1D86FE10C06C2D85E00E947A0C87E6AB
:105420000E948B0F88E793E00E94AB04B301A201B6
:105430008C2D0E94DD1D0E94BF0A60E087E60E945D
:105440002F098E83843609F4D3C00CF060C08136F6
:1054500009F46EC0823609F4AEC02E8112160CF02B
:10546000C0CE34CF67EE73E087EB95E00E947233D5
:1054700011113ECFF0916005FC87209161052D87C9
:10548000309162053E87809163058F8791E09B8B09
:10549000E1E0EB8750EA452E56E8552E66246394EA
:1054A000712C68E0362E72E5272EF12CD12C1F824C
:1054B000188619861A861CCF61EE73E087EB95E09B
:1054C0000E94723315CF6BED73E087EB95E00E947D
:1054D000723311110DCFF0916805FC872091690599
:1054E0002D8730916A053E8780916B058F8791E00B
:1054F0009C8BE1E0EA8BF1E0FB87412C512C3201DF
:1055000020E6322E32E8232E4BE3F42ECFCFEE816D
:10551000E63609F479C00CF4D5CEE73609F09DCF14
:1055200041E0C301B2010E9416182B013C01CECE0E
:10553000002309F4CBCE232D322D4F2D5D2D6A2D66
:10554000892D0E94041E672B682B692B09F4BECE9F
:105550001E8A032D122D2F2D3D2DB12CC12C188A02
:10556000198A81E08D8B84E0E82E4A2D692D84E430
:1055700091E00E940A2181E0FD898F1708F052C056
:105580002B2D3C2D488959896A2D892D0E94041E96
:10559000672B682B692B09F443C0EE880B2D1C2D5B
:1055A000288939894A2D692D84E491E00E940A21D5
:1055B00081E08F5FE1CF112309F488CE2F813885F8
:1055C00049855A856A2D892D0E94041E672B682BF8
:1055D000692B09F47BCEB32CC22CF88AD98A0F81AF
:1055E000188529853A8594E09E8BE2E0ED8BBBCF50
:1055F00041E0632D722D8F2D9D2D0E941618362EA1
:10560000272EF82ED92E62CE41E06F8178858985CC
:105610009A850E9416186F83788789879A8756CE55
:1056200082E0C7CF1091D9020E94FC158091D90267
:10563000811710F40E94FC158091D402882309F48C
:105640000CCF0E94042309CF9FEC992E910E1116C6
:105650000CF4C7CDEBCA4091020150910301E12C3B
:1056600000E020E060910401809105010E94A607FE
:105670002B013C0160917404709175048091760453
:10568000909177040E94B11888E795E00E94E31199
:105690000E940E10640D751D861D971D9BCA8130DA
:1056A00009F03AC90FCB913009F064CB59CB813066
:1056B00009F45DCC84CC1F920F920FB60F92112487
:1056C0002F933F938F939F93AF93BF9380915805F0
:1056D00090915905A0915A05B0915B0530915705FD
:1056E00023E0230F2D3758F50196A11DB11D2093FE
:1056F00057058093580590935905A0935A05B09388
:105700005B0580915C0590915D05A0915E05B0916F
:105710005F050196A11DB11D80935C0590935D0509
:10572000A0935E05B0935F05BF91AF919F918F915C
:105730003F912F910F900FBE0F901F90189526E864
:10574000230F0296A11DB11DD2CF1F920F920FB64B
:105750000F9211242F933F934F935F936F937F93F7
:105760008F939F93AF93BF93EF93FF9380E396E064
:105770000E943C04FF91EF91BF91AF919F918F9157
:105780007F916F915F914F913F912F910F900FBE3D
:105790000F901F9018951F920F920FB60F92112421
:1057A0002F938F939F93EF93FF93E0914006F09197
:1057B00041068081E0914606F091470682FD1BC0BC
:1057C0009081809149068F5F8F7320914A068217DE
:1057D00041F0E0914906F0E0E05DF94F958F80934C
:1057E0004906FF91EF919F918F912F910F900FBEDE
:1057F0000F901F9018958081F4CF1F920F920FB6D3
:105800000F9211242F933F934F935F936F937F9346
:105810008F939F93AF93BF93EF93FF938091B900C2
:10582000887F803609F44AC0F0F5883209F4A7C0B1
:1058300018F5803109F49BC0B8F4882309F4F9C045
:10584000883009F494C0FF91EF91BF91AF919F917F
:105850008F917F916F915F914F913F912F910F9019
:105860000FBE0F901F901895883109F488C08032C0
:1058700051F78093F30514C0803409F49DC040F4BF
:105880008033B9F38833F9F68093F30585ECB0C023
:10589000803509F485C0883509F496C0883499F6B6
:1058A0000E94AB11D0CF883909F48CC038F5883705
:1058B00029F050F4883611F0803729F683E0809380
:1058C000F5051092C80257C0883809F47BC08039AA
:1058D00019F0803809F0B7CF8091C802803208F003
:1058E00071C0E091C80281E08E0F8093C802809160
:1058F000BB00F0E0E855FD4F80833DC0803B39F0B0
:10590000E0F4803A09F479C0883A09F09CCF84E049
:105910008093F5051092A7021092A602E091CB02A7
:10592000F091CC0209958091A60281110FC081E00F
:105930008093A6021092860209C0803C09F4A6CF8B
:10594000883C09F4A3CF883B09F07DCFE091A70202
:1059500081E08E0F8093A702F0E0EA57FD4F80812F
:105960008093BB009091A7028091A60229C08091EC
:10597000D0058093BB0085EC8093BC0064CF9091F0
:10598000F2058091F105981758F5E091F20581E054
:105990008E0F8093F205F0E0EF52FA4F8081E9CF4D
:1059A000E091F20581E08E0F8093F2058091BB00BB
:1059B000F0E0EF52FA4F80839091F2058091F1056B
:1059C0009817C8F285E8D8CFE091F20581E08E0FF4
:1059D0008093F2058091BB00F0E0EF52FA4F808394
:1059E0008091F40581115CCF81E08093CF0584EA3A
:1059F0008093BC001092F50526CF85EC8093BC0007
:105A00001092F5058091C802803230F4E091C8020E
:105A1000F0E0E855FD4F10826091C80270E0E0911F
:105A2000C902F091CA0288EA92E009951092C80270
:105A30000ACF1092F30534CFE0E3F6E0138212822E
:105A400088EE93E0A0E0B0E084839583A683B783DB
:105A500022E231E03183208325EC30E03587248752
:105A600024EC30E03787268720EC30E0318B208B28
:105A700021EC30E0338B228B22EC30E0358B248B11
:105A800026EC30E0378B268B118E128E138E148EFF
:105A9000EDECF6E01382128284839583A683B783AC
:105AA00084E391E0918380830895CF93DF93CDB712
:105AB000DEB76F970FB6F894DEBF0FBECDBF7894F8
:105AC00084B5826084BD84B5816084BD85B5826003
:105AD00085BD85B5816085BD80916E0081608093B4
