:100000000C94DC020C9404030C9404030C9404037D
:100010000C9404030C9404030C9404030C94040344
:100020000C9404030C9404030C9404030C94040334
:100030000C9404030C9404030C9404030C94040324
:100040000C942B2B0C9404030C949B2B0C94752B6D
:100050000C9404030C9404030C9404030C94040304
:100060000C94CD2B0C94040344455700434F3200AD
:1000700048554D00436972632E00496E74616B658B
:100080000045786861757374005254440070706D57
:100090000072482500C2B043005802840384034E16
:1000A000616D652C004F2C742C30004F2C4465770B
:1000B0002C31004F2C542C31004F2C48554D2C31F5
:1000C00000532C63004C2C31000100016472790054
:1000D000686967682C006D69642C006C6F772C0070
:1000E00043616C003A2000C2B043005D20403A00FA
:1000F0005B00455252000001030256616C3A200039
:10010000455252002056005374617475733A2000B2
:10011000536C61766520403A2000446F2028417579
:10012000746F2D29416464726573732865732900A7
:10013000283173742920284175746F2D2941646416
:1001400072657373203D2000446F20284175746FE1
:100150002D294E616D6528732900284175746F2D16
:10016000294E616D65203D200044656C65746520F5
:100170004E616D6528732900436C6561722043618F
:100180006C6962726174696F6E2873292020202067
:1001900020005265736574202020202000493243DE
:1001A0002C003D20002D50742E200020746F205311
:1001B000657474696E672D4E6F2E205B312D335D33
:1001C00000290020280020436F70792046554C4CB0
:1001D0002053455454494E4720007C20202054652C
:1001E0006D705254442020207C20202054656D7076
:1001F00048554D2020207C20202048756D69646979
:1002000074792020207C2020202020434F32202081
:10021000202020207C2020446577696E6720506F65
:10022000696E7420207C0000000000230026002955
:10023000007E007E003C007E003C007E003E003ED2
:10024000003A2000426F6F7420466F72205465722E
:100250006D696E616C2055736500426F6F7420414B
:1002600073204D6F6442555320536C617665202096
:1002700020202000890070006C0068004661696CD5
:100280005361666500746F6F4C6F772020207C206F
:100290002020204C6F7720202020207C2020202030
:1002A00048696768202020207C2020746F6F48698F
:1002B00067682020207C00204F4B2D5374657020F0
:1002C000200044656C617954696D65730020436F4B
:1002D0007079546F536574205B312D345D00205369
:1002E000656C656374536574203D200045646974D2
:1002F0004E616D652020200052756E416C6C436527
:100300006E742E0052756E414C4C202020002052FD
:10031000756E53696E676C65202020002045646906
:100320007420202000890081007A00740070006C25
:10033000006800207C202020202020204C4F5720C7
:100340002020202020207C202020202020484947D9
:1003500048202020202020207C20202020202056E3
:10036000616C75652020202020207C002D44756D57
:100370006D794E616D652D0053657420486967681D
:1003800000536574204C6F770053657420415647C5
:10039000204173204D6964005365742053696E6772
:1003A0006C652F4D696400446F20332D50742E20EE
:1003B00043616C2E00446F20322D50742E20436117
:1003C0006C2E202020202000446F20312D50742ED0
:1003D0002043616C2E202020202000434F32202D0E
:1003E0000048554D202D00525444202D002D20430F
:1003F000616C696272617465200053656C65637439
:1004000020414C4C0053656C6563742053696E67E2
:100410006C650043616C6962726174696F6E287308
:10042000292E2E2E002053656C2E53657474696E30
:1004300067205B312D335D203D2000536574746966
:100440006E672D4E616D65203D20004D616E7561BA
:100450006C2E2E2E0054696D657320262053746512
:1004600070732E2E2E2020200056616C7565732E21
:100470002E2E202020004D6F72652E2E2E20202043
:1004800000417344656661756C74004B6579436F18
:100490006C6F7220202000436F6C6F722020200050
:1004A00044696D005370656564203D2000416464BB
:1004B000722E203D200054696D652020200044618B
:1004C0007465202020005265426F6F742020200048
:1004D00052655363616E2020200048003B001B5B87
:1004E000001B5B324A006D001B5B001B5B316D0023
:1004F0001B5B32326D0044001B5B0043001B5B0042
:100500001B5B376D001B5B346D002040200020001A
:100510001B5B32346D003A002900207C20001B3721
:10052000001B5B32376D001B38003E3E2000000090
:100530000000240027002A000000000025002800F9
:100540002B00040404040404040402020202020254
:100550000303030303030102040810204080010287
:100560000408102001020408102000000008000206
:1005700001000003040700000000000000009500D7
:1005800091008D0095009500202020002020202043
:1005900053656C656374206B65792C206F72204500
:1005A0006E74657228666F722072657475726E293A
:1005B0002E2E2E000A00EC2C11241FBECFEFD8E007
:1005C000DEBFCDBF26E0AAE2B2E001C01D92A13F8E
:1005D000B207E1F712E0A0E0B1E0E8EBF9E602C013
:1005E00005900D92AA32B107D9F712E0CCEDD2E016
:1005F00004C02197FE010E949B34CB3DD107C9F76F
:100600000E94252D0C94DA340C94000080919D05F5
:1006100090919E05891B990B0895833081F028F4F1
:10062000813099F08230A9F008958730A9F08830A0
:10063000C9F08430B1F4809180008F7D03C0809137
:1006400080008F7780938000089584B58F7784BD74
:10065000089584B58F7DFBCF8091B0008F77809314
:10066000B00008958091B0008F7DF9CF1F93CF9394
:10067000DF93282F30E0F901E659FA4F8491F90110
:10068000EA5AFA4FD491F901EE5BFA4FC491CC23A8
:10069000A9F0162F81110E940D03EC2FF0E0EE0F50
:1006A000FF1FE85CFA4FA591B4918FB7F894EC91D5
:1006B000111108C0D095DE23DC938FBFDF91CF915D
:1006C0001F910895DE2BF8CF3FB7F8948091700505
:1006D00090917105A0917205B091730526B5A89B04
:1006E00005C02F3F19F00196A11DB11D3FBFBA2FC4
:1006F000A92F982F8827BC01CD01620F711D811D84
:10070000911D42E0660F771F881F991F4A95D1F708
:1007100008958F929F92AF92BF92CF92DF92EF9205
:10072000FF926B017C010E9464034B015C01C114C8
:10073000D104E104F104B9F00E9464036819790955
:100740008A099B09683E73408105910580F321E089
:10075000C21AD108E108F10888EE880E83E0981EDD
:10076000A11CB11CE4CFFF90EF90DF90CF90BF9021
:10077000AF909F908F90089508950895AF92BF9283
:10078000CF92DF92EF92FF920F931F93CF93DF935D
:100790006C017B018B01040F151FEB015E01AE188C
:1007A000BF08C017D10759F06991D601ED91FC91AE
:1007B0000190F081E02DC6010995892B79F7C501DB
:1007C000DF91CF911F910F91FF90EF90DF90CF902D
:1007D000BF90AF900895FC01538D448D252F30E0DC
:1007E000842F90E0821B930B541710F0CF9608953E
:1007F00001970895FC01918D828D981761F0A28D6B
:10080000AE0FBF2FB11D5D968C91928D9F5F9F7330
:10081000928F90E008958FEF9FEF0895FC01918DE6
:10082000828D981731F0828DE80FF11D858D90E053
:1008300008958FEF9FEF0895FC01918D228D892FF0
:1008400090E0805C9F4F821B91098F7399270895D8
:1008500084E496E00E941C0421E0892B09F420E046
:10086000822F089580E090E0892B29F00E942804CF
:1008700081110C9400000895FC01A48DA80FB92FDC
:10088000B11DA35ABF4F2C91848D90E001968F73B8
:100890009927848FA689B7892C93A089B1898C91D7
:1008A000837080648C93938D848D981306C0028826
:1008B000F389E02D80818F7D80830895EF92FF92F0
:1008C0000F931F93CF93DF93EC0181E0888F9B8D73
:1008D0008C8D98131AC0E889F989808185FF15C02D
:1008E0009FB7F894EE89FF896083E889F989808150
:1008F0008370806480839FBF81E090E0DF91CF911F
:100900001F910F91FF90EF900895F62E0B8D10E040
:100910000F5F1F4F0F731127E02E8C8D8E110CC0AF
:100920000FB607FCFACFE889F989808185FFF5CFFA
:10093000CE010E943C04F1CFEB8DEC0FFD2FF11D99
:10094000E35AFF4FF0829FB7F8940B8FEA89FB8937
:1009500080818062CFCF0F931F93CF93DF938C0161
:10096000D0E0C0E0F801EC0FFD1F6491662341F078
:1009700084E496E00E945E04892B11F02196F2CF68
:10098000CE01DF91CF911F910F910895682F84E4DC
:1009900096E00C945E04CF93DF93EC01888D88235E
:1009A000B9F0AA89BB89E889F9898C9185FD03C0D2
:1009B000808186FD0DC00FB607FCF7CF8C9185FFB7
:1009C000F2CF808185FFEDCFCE010E943C04E9CFBC
:1009D000DF91CF9108952091A602260F3327331F70
:1009E00021323105ECF420910906FC0190E080E011
:1009F000243069F082E00895A091A6022191AC0113
:100A00004A575D4FA40FB52FB11D2C930196861741
:100A100098F38091A602680F6093A60280E0089583
:100A200081E008951092090681E0809308061092F3
:100A3000E30561E082E10E94360361E083E10E9408
:100A40003603E9EBF0E080818E7F808380818D7FAB
:100A5000808388E48093B80085E48093BC00089587
:100A6000CF93DF9391E0909385028823B9F0C091F2
:100A7000B800D091BA008091BC008A7B8093BC0002
:100A800060E082E10E94360360E083E10E94360369
:100A90000E941205D093BA00C093B800DF91CF91A5
:100AA00008958F929F92AF92BF92CF92DF92EF9272
:100AB000FF920F931F93CF93DF93D0913206D132E1
:100AC00008F0D7C0182FC09131060E9464036B0153
:100AD0007C018091090681116BC082E08093090638
:100AE000109308068FEF8093070610920606D093A6
:100AF0000506A1E1B6E0E5EEF5E080E0D81391C08F
:100B00001092E4058091E405CC0FC82BC093E40556
:100B10008091E305813009F088C01092E3050E94BE
:100B200064036B017C018091E4058093BB0080919C
:100B30000B0690910C06A0910D06B0910E06892B24
:100B40008A2B8B2BA1F00E94640300910B0610915D
:100B50000C0620910D0630910E066C197D098E0948
:100B60009F09061717072807390708F442C0809124
:100B7000BC0083FDD8CF85EC8093BC000E94640349
:100B80006B017C0180910906823009F450C080918C
:100B900007068F3F09F46FC080910706803209F481
:100BA0006CC080910706803309F469C084E026C0D8
:100BB00080910B0690910C06A0910D06B0910E0647
:100BC000892B8A2B8B2B09F484CF0E94640380909D
:100BD0000B0690900C06A0900D06B0900E066C19B6
:100BE0007D098E099F0986169706A806B90608F0A2
:100BF00070CF80910A060E94300585E010921006A1
:100C00001092320610920F06DF91CF911F910F9133
:100C1000FF90EF90DF90CF90BF90AF909F908F901C
:100C200008959D9191938F5F69CF85EEA5CF8091B7
:100C30000B0690910C06A0910D06B0910E06892B23
:100C40008A2B8B2B09F49ECF0E94640300910B0624
:100C500010910C0620910D0630910E066C197D093D
:100C60008E099F09061717072807390708F08ACF4A
:100C7000C0CF81E0C3CF80E0C1CF82E0BFCF83E0AF
:100C8000BDCF0895E0919E0580919D05E81730F451
:100C9000F0E0E156FA4F808190E008958FEF9FEFEA
:100CA000089590919E0580919D052FEF3FEF981735
:100CB00048F4E92FF0E0E156FA4F208130E09F5FE1
:100CC00090939E05C9010895CF92DF92EF92FF9213
:100CD0000F931F93CF93DF937C01CB018A01209167
:100CE0000F06222389F0EB016B01C40ED51ECC1533
:100CF000DD0569F06991D701ED91FC910190F081DA
:100D0000E02DC7010995F3CF642F0E94EB04C801C1
:100D1000DF91CF911F910F91FF90EF90DF90CF90D7
:100D20000895CF93DF931F92CDB7DEB769832091EB
:100D30000F062223F9F020913206203258F021E0EC
:100D400030E0FC013383228390E080E00F90DF915C
:100D5000CF91089580911006E82FF0E0EF5EF94FF3
:100D6000998190838F5F809310068093320681E093
:100D700090E0ECCF61E0CE0101960E94EB04F7CF4A
:100D800090E080E008959C0164E670E00E944C349D
:100D9000FC01C90183709927892B11F4309779F4EC
:100DA000C90160E971E00E944C349C01EF2B11F401
:100DB000892B19F481E0232B09F080E0089581E06C
:100DC0000895863029F034F4823051F0843031F4C3
:100DD0008EE108958930E1F38B30D1F38FE10895EE
:100DE000CB010E94C306882311F08DE108958CE1A8
:100DF00008952F923F924F925F926F927F928F92BF
:100E00009F92AF92BF92CF92DF92EF92FF920F9399
:100E10001F93CF93DF932B013C011A014901E80195
:100E200087EE97E09983888340E853E361EE71E0B1
:100E30004415550566057705B0F4888199810196BA
:100E400099838883441A550A660A770A0E94C30662
:100E500040E450E761E370E08111EACF40EC5EE1ED
:100E600060E370E0E5CF81E0F401808360E87EED2F
:100E700088E290E06415750586059705B0F4F401E5
:100E800020812F5F2083461A570A680A790A6881F1
:100E90007981822F0E94E106A82FB0E020E831E599
:100EA00041E050E00E94FB33E5CFC301B20120E8EE
:100EB00031E541E050E00E94D9332F5FF1012083FA
:100EC00020E13EE040E050E00E94D933F70120836A
:100ED0002CE330E040E050E00E94D933F60120835B
:100EE000F5016083DF91CF911F910F91FF90EF90FB
:100EF000DF90CF90BF90AF909F908F907F906F903A
:100F00005F904F903F902F9008954F925F926F9215
:100F10007F928F929F92AF92BF92CF92DF92EF9289
:100F2000FF920F93CF93DF93C82FC62E3A01D22F93
:100F300097EE492E97E0592E812C912C540146149E
:100F40005704C0F4C2010E94C30681110CC020E8FE
:100F5000821A2CEC920A2EE1A20A2EEFB20A4FEF6F
:100F6000441A540AECCF3BE7931A3DE1A30A3EEF43
:100F7000B30AF5CF44244394512CD12C4C145D0476
:100F8000A4F4B301842D0E94E106A82FB0E020E86C
:100F900031E541E050E00E94FB33860E971EA81E0B
:100FA000B91E5FEF451A550AE9CF202F30E0ACE3B8
:100FB000B0E00E943D349B01AC012E0D311D411D5E
:100FC000511D69017A012D2F30E0A0E1BEE00E94A1
:100FD0003D34C60ED71EE81EF91E4C2F4150550B4E
:100FE000DA0120E831E541E050E00E9493346C0DD5
:100FF0007D1D8E1D9F1D680D791D8A1D9B1DDF9116
:10100000CF910F91FF90EF90DF90CF90BF90AF9076
:101010009F908F907F906F905F904F9008950F9367
:101020001F938FB7F89440916C0550916D056091B6
:101030006E0570916F058FBF009181021091820241
:101040002091830230918402DB01CA0140175107CD
:101050006207730718F40197A109B109801B910B6E
:10106000A20BB30B00917D0210917E0220917F02B2
:1010700030918002800F911FA21FB31F883E23E092
:101080009207A105B10508F4C7C0409381025093AF
:1010900082026093830270938402885E9340A10968
:1010A000B10980937D0290937E02A0937F02B0935A
:1010B00080028091790290917A02A0917B02B09196
:1010C0007C020196A11DB11D8093790290937A0252
:1010D000A0937B02B0937C02809178028F5F809313
:1010E00078028C3339F480917702109278028F5F06
:1010F00080937702809177028C3339F48091760265
:10110000109277028F5F8093760280917602883109
:1011100059F41092760280917402909175020196B2
:101120009093750280937402809173028F5F809315
:10113000730240917404509175046091760470912B
:1011400077044F5F5F4F6F4F7F4F4093740450930E
:10115000750460937604709377048C3339F480912E
:101160007202109273028F5F8093720280917202FA
:101170008C3339F480917102109272028F5F8093E8
:10118000710280917102883121F081E01F910F91ED
:10119000089510927102909105019F5F909305014F
:1011A00080910401823009F59D3170F08091020137
:1011B000909103010E94C306811106C081E08093D3
:1011C000050183E080930401809104018D30E9F6EC
:1011D00081E08093040180910201909103010196C6
:1011E0009093030180930201D0CF863019F020F450
:1011F000843031F42FE105C08930E1F38B30D1F335
:1012000020E2022E000C330B92171306E9F691E050
:10121000909305018F5FD6CF80E0B8CFCF92DF9259
:10122000EF92FF920F931F93CF93DF93CFEFDCE307
:10123000E62EF12C082F10E068018FE1C81AD108C2
:10124000DD23A1F10E940F088111D15084E496E0C2
:101250000E941C04892BA1F384E496E00E94FA0307
:10126000C82F803304F1082E000C990B9C012053E9
:101270003109E216F306D4F4C1369CF008171907B9
:10128000ACF48C159D0594F0CB3179F0CB3271F034
:10129000CD3261F0DCE38C2F8D7F8C3339F0CFEFD2
:1012A000D1CFC13474F7CD3079F7C0E08C2FDF9106
:1012B000CF911F910F91FF90EF90DF90CF90089505
:1012C000CF93C82FC15020F080E20E94C604FACF0D
:1012D000CF91089581E00C946009CF93C82F0E94AC
:1012E0006A098C2F0E94C604CF910C946A0980E091
:1012F00095E00C94AB04813671F02AE5853261F0FB
:10130000882349F021E0280F93EE980F983020F0C1
:101310008955883008F02EE1822F0895613091F4CC
:10132000E6E1E49FD0011124A659BC4FE89FF001EB
:101330001124E659FC4F81E02C919081291729F066
:1013400080E003C081E06230D9F708954F925F9248
:101350006F927F928F929F92AF92BF92CF92DF92C5
:10136000EF92FF920F934B015C016E2DD6011C9200
:10137000C12CD12C760181149104A104B10461F037
:10138000C0907404D0907504E0907604F0907704D7
:10139000C818D908EA08FB08E02FF0E0EE0FFF1F9D
:1013A000E054FB4F40805180712C612C4C145D0443
:1013B0006E047F0458F4C418D508E608F7082C1505
:1013C0003D054E055F05C8F081E08C936623C9F0AA
:1013D000002319F187E00430E1F0C501B4010F9159
:1013E000FF90EF90DF90CF90BF90AF909F908F9045
:1013F0007F906F905F904F900895812C912C5401B5
:10140000E5CF002361F08CEF800F833030F78FEF52
:10141000800F6C910E943603E0CF86E0FACF82E025
:10142000F8CF96E1899FF0011124E659FC4FE08145
:10143000F0E0EE0FFF1FE756FF4F65917491072E06
:10144000000C880B990B0C948903CF93C2E060E0E9
:101450008C2F0E943603CF5FC231C9F7CF91089518
:10146000FC0101900020E9F73197AF01481B590BAF
:10147000BC0184E496E00C94BE038F929F92AF92DD
:10148000BF920F931F93CF93DF93CDB7DEB7A19792
:101490000FB6F894DEBF0FBECDBF19A2423008F4DC
:1014A0004AE08E010F5D1F4F842E912CB12CA12C90
:1014B000A50194010E94D933E62FB901CA01EA308F
:1014C000F4F4E05DD801EE938D01232B242B252B22
:1014D00079F790E080E0109719F0CD010E94300A72
:1014E000A1960FB6F894DEBF0FBECDBFDF91CF91AE
:1014F0001F910F91BF90AF909F908F900895E95CDE
:10150000E1CF009711F00C94300A90E080E008954C
:1015100082E491E00C94300ACF93DF930E94AB04F5
:10152000EC010E94880A8C0F9D1FDF91CF910895D6
:1015300084EB95E00E948C0A8CE895E00C94AB0457
:10154000CF92DF92FF920F931F93CF93DF93EB0124
:1015500009900020E9F72197C61BD70BCC2369F12E
:101560008B0191E090930F06809331061092100644
:1015700010923206F12CEC2FE40FFF27FF1F6F01B2
:101580008F2D90E08C159D0554F4800F911FFC0168
:10159000608181EE96E00E949106F394F1CF81E0A4
:1015A0000E94510581110BC08C2FDF91CF911F91AB
:1015B0000F91FF90DF90CF90089580E0F6CF8FEFEE
:1015C000F4CF96E1899FF0011124E659FC4F40E0E9
:1015D00065E471E082810C94A00A0F931F93CF936E
:1015E0008C01FC0101900020E9F73197E81BF90B11
:1015F0006E1B862F8695C62FC81B0E946009C801E6
:101600000E94810A8C2FCF911F910F910C94600939
:10161000682F70E090E080E04AE00C943D0ACF93A0
:10162000C82F8DEF94E00E94AB048C2F0E94080B12
:101630008BEF94E0CF910C94AB04CF93C82F88EF3D
:1016400094E00E94AB048C2F0E94080B86EF94E07C
:10165000CF910C94AB04CF93C82F811101C0C7E286
:101660008091700281110CC082EE8C0F883030F0B6
:1016700086EA8C0F883010F0C73211F4C093010154
:1016800088EE94E00E94AB048C2F0E94080B86EE3B
:1016900094E00E94AB04C73211F0CF910895C1E3EA
:1016A000DFCFCF93C82F1092700280E00E94640BAE
:1016B00080910101CC2329F081E080937002809118
:1016C0000001CF910C942B0BCF93C82F8091700207
:1016D000882319F080E00E94510B8BEE94E0C11139
:1016E00002C080EF94E0CF910C94AB04CF93C82F4D
:1016F00080E00E94640B8AE195E00E94AB04CC2359
:1017000021F081E0CF910C94640BCF91089580E09B
:101710000E94760B81E00C941D0BCF93C62F0E9484
:10172000600981E00E94760B8C2FCF910C946009A8
:10173000CF93C82F80E00E94510B8C2F0E942B0B5F
:1017400081E0CF910C94640B81110C94980B80E094
:101750000E94640B80E00C942B0B8091D8020E94B5
:10176000A40B85E095E00C94AB0480E00E942B0B69
:1017700081EE94E00C94AB048F929F92AF92BF9253
:10178000CF92DF92EF92FF920F931F9324E0829FFC
:10179000C00111249C0120543B4FF901EA58FF4F2E
:1017A000C080D180E280F38038974081518162818E
:1017B0007381709780809180A280B3808C589A4FFB
:1017C000FC0180819181A281B381225B3F4FF901AD
:1017D000008111812281338180179107A207B3070D
:1017E000E4F088159905AA05BB05CCF0C816D90602
:1017F000EA06FB06B4F0481759076A077B079CF016
:1018000080E21F910F91FF90EF90DF90CF90BF90FB
:10181000AF909F908F900C942B0B84E2F2CF82E2DA
:10182000F0CF8FE1EECF81E2ECCF0F931F938230A8
:10183000B0F124E0829FC00111249C0120543B4F51
:10184000F901E25AFF4F40815181628173818C58C6
:101850009A4FFC0180819181A281B381225B3F4F2D
:10186000F901008111812281338180179107A2073C
:10187000B3077CF084179507A607B70764F0803894
:101880009649A849B1054CF480E21F910F910C9440
:101890002B0B84E2FACF82E2F8CF8FE1F6CF1F91D3
:1018A0000F910C94BC0BCF93DF93C82FD62F8EEDE6
:1018B00094E00E94AB048D2F0E94080B8CED94E005
:1018C0000E94AB048C2F0E94080B8AED94E0DF91FC
:1018D000CF910C94AB041F93CF93DF93C82F862F27
:1018E000D42FCC2331F011E01C0F6C2F0E94530C2D
:1018F000C12FD15020F08DE20E94C604FACF8C2F68
:10190000DF91CF911F910895CF93C82F81E00E945E
:10191000640B8AED91E00E94AB044CE463E08C2FF1
:101920000E946B0CC82F80E00E94640B8C2FCF911B
:101930000895CF92DF92EF92FF920F931F93CF9370
:10194000DF93C82F1092BF050E9464036B017C01D6
:1019500080910906811166C081E080930906809319
:1019600008069FEF90930706109206069FE190935A
:1019700005068093E4058091E405CC0FC82BC09345
:10198000E4058091E305813009F0A3C01092E305DE
:101990000E9464036B017C018091E4058093BB008D
:1019A00080910B0690910C06A0910D06B0910E0649
:1019B000892B8A2B8B2BA1F00E94640300910B06CC
:1019C00010910C0620910D0630910E066C197D09C0
:1019D0008E099F09061717072807390708F443C01F
:1019E0008091BC0083FDD8CF85EC8093BC000E9421
:1019F00064036B017C0180910906813009F46BC09E
:101A000080910606D0E2803210F4D0910606A5EE51
:101A1000B5E0EFE9F5E080E08D1751F19D919193EC
:101A20008F5FFACF80910B0690910C06A0910D0666
:101A3000B0910E06892B8A2B8B2B09F489CF0E943B
:101A4000640300910B0610910C0620910D06309155
:101A50000E066C197D098E099F09061717072807BE
:101A6000390708F075CF80910A060E943005D0E052
:101A700010929E05D0939D0511E0C0E080919E05D7
:101A8000D817B1F0C132A4F481EE96E00E9451065D
:101A9000112309F445C0813009F43FC0C0E08F3FF5
:101AA00039F0CFEF8E3F21F0CEEF823009F0CCEF4E
:101AB00081E00E945105882311F0C7FFCDEF8C2FE4
:101AC000DF91CF911F910F91FF90EF90DF90CF901A
:101AD000089585EE8ACF80910B0690910C06A09117
:101AE0000D06B0910E06892B8A2B8B2B09F483CF20
:101AF0000E94640300910B0610910C0620910D06C4
:101B000030910E066C197D098E099F09061717077B
:101B10002807390708F06FCFA6CFC0E010E0AECF9E
:101B2000EC2F0C2E000CFF0BE154FA4F808388231E
:101B300009F4BECFCF5FEC2FF0E0E154FA4F1082F2
:101B4000EDCFCF92DF92EF92FF92CF93DF936C01B4
:101B5000092E000CEE08FF0897FF17C08DE20E94C7
:101B6000C604EC0166277727CB016C197D098E0925
:101B70009F094AE00E943D0A8C0F9D1FDF91CF9183
:101B8000FF90EF90DF90CF9008954AE0C701B60133
:101B9000DF91CF91FF90EF90DF90CF900C943D0AB2
:101BA000CF92EF920F931F93CF93DF93182FD42FE1
:101BB000C22F61110E946A09EE2011F0C11005C008
:101BC00080E00E94510B0E94AD0BDD2319F08D2F98
:101BD0000E94C604812F0E94C60488E195E00E94FD
:101BE000AB04002321F086E195E00E94AB0480E085
:101BF0000E94640B80E195E00E94AB0401110E94F9
:101C00006A09CC2319F08C2F0E94C60480E00E9440
:101C10002B0BEE20A1F0C11014C081E0DF91CF9119
:101C20001F910F91EF90CF900C94640B81E0DF91A6
:101C3000CF911F910F91EF90CF900C94510BC11049
:101C4000F5CFDF91CF911F910F91EF90CF90089535
:101C5000CF92EF920F93C12CE12C01E020E040E005
:101C600060E00E94D00D0F91EF90CF900895CF9239
:101C7000EF920F93C42EE62E01E020E040E060E0FA
:101C80000E94D00D0F91EF90CF900895CF93DF93E6
:101C9000EC010E94B50B80E00E942B0B0E9477099B
:101CA00061E081E00E94530C81E00E94640B60E5DA
:101CB000CE010E94ED0A80E00E94640B81E295E073
:101CC0000E94AB0482E0DF91CF9108959F92AF9282
:101CD000BF92CF92DF92EF92FF920F931F93CF9319
:101CE000DF93CDB7DEB729970FB6F894DEBF0FBEEE
:101CF000CDBF86E0E6E0F1E0DE01119601900D92A5
:101D00008A95E1F780910C0190910D01A0910E014F
:101D10008F839887A9874AE2C42E42E0D42E7601A9
:101D200002E010E0A12CF801E659FA4F8491F80185
:101D3000EA5AFA4FB490F801EE5BFA4F949099206A
:101D400079F081110E940D03E92DF0E0EE0FFF1FE5
:101D5000E95DFD4FA591B491EC91BE2281E009F4BB
:101D600080E0F70191917F01981721F031978083EE
:101D7000AA24A3940F5F1F4F08301105A1F680918C
:101D80003002833029F083E080933002AA24A394A8
:101D900080913102833029F083E080933102AA24BC
:101DA000A39480913202833009F49DC083E0809334
:101DB00032027E01F5E0EF0EF11C8E010F5F1F4F26
:101DC00060913402F80181918F010E94530CF60159
:101DD00081916F01882309F49FC082E20E94980BD1
:101DE0008FE392E00E94AB0481E00E94510B8BE3F1
:101DF00092E00E94AB040E151F0511F79EE2C92E5A
:101E000092E0D92EEE24E394F12CEC0EFD1EF6E0C8
:101E1000EF0EF11C60913402F80181918F010E9454
:101E2000530CF60181916F01882309F480C081E28F
:101E30000E94980B89E392E00E94AB0482E00E942A
:101E40001D0B81E00E94510B87E392E00E94AB04DE
:101E50000E151F05F9F68E01095F1F4F80E3E82E6E
:101E600082E0F82E6E01FAE0CF0ED11C60913402B0
:101E7000F80181918F010E94530C80E00E94BC0BFD
:101E800081E00E94640BF70181917F010E94080BA1
:101E900080E00E942B0B80E00E94640B83E392E0C1
:101EA0000E94AB0483E00E941D0B81E392E00E943C
:101EB000AB04C016D106D1F681E08093330280E0F6
:101EC00029960FB6F894DEBF0FBECDBFDF91CF913C
:101ED0001F910F91FF90EF90DF90CF90BF90AF9048
:101EE0009F900C94A40BA11064CF8091330288239F
:101EF00009F45FCF29960FB6F894DEBF0FBECDBFB1
:101F0000DF91CF911F910F91FF90EF90DF90CF90D5
:101F1000BF90AF909F90089581E00E94510B8DE398
:101F200092E00E94AB0480E20E94980B60CF81E0B7
:101F30000E94510B85E392E089CFCF93DF93EC01B0
:101F400080E00E94510B0E94AD0BCE010E94810ADD
:101F500080E00E94510B80E195E00E94AB0480E09C
:101F6000DF91CF910C94A40BCF93C82F682F85E0FD
:101F70000E94530C87E491E00E949D0F86EC91E053
:101F80000E94AB0482E20E942B0B8EE395E00E943C
:101F9000810A83EC91E00E94AB048091D60290E02C
:101FA00001960E94A10D81EC91E00E94AB0480E0BB
:101FB0000E942B0B8BEA91E00E94AB0481E08C0F16
:101FC000CF910895FF920F931F93CF93DF936BE40C
:101FD00071E083E396E00E941633F12C00E010E0FC
:101FE000D0E0C0E00097E9F0C330D105E1F00E94F5
:101FF000E8328C33910598F5209761F4883191058A
:1020000074F5182F6BE471E090E080E00E941633C5
:102010002196E8CFC130D10511F4082FF3CFF82E67
:10202000F1CF2397E1F4212F30E0A0E1BEE00E9440
:102030003D342CE3029F80011124012E000C220B61
:10204000330B600F711F821F931F6F0D711D811D58
:10205000911DDF91CF911F910F91FF90089560E046
:1020600070E0CB01F6CFCF93DF93C82FD62F80E05F
:102070000E946009DD23C9F081E00E94510BEC2F22
:10208000F0E0EE0FFF1FE258FA4F6591749183E381
:1020900096E00E940F330E94810A83E00E9460094B
:1020A00080E0DF91CF910C94510B80E00E942B0BCC
:1020B000E6CF6F927F928F929F92AF92BF92CF9214
:1020C000DF92EF92FF920F931F93CF93DF93CDB7E1
:1020D000DEB7E6970FB6F894DEBF0FBECDBF782E01
:1020E000662E8AE6C82E83E0D82EF12CE12C809152
:1020F000D9028E151F0409F00CF460C07E1441F063
:102100004E2D662D872D0E948E09882309F44FC01D
:1021100065EC70E0CE0101960E940F33F6018081DC
:10212000813069F020F08230C9F101E01BC061EC20
:1021300070E0CE010A960E940F3302E013C069EBF3
:1021400070E0CE010A960E940F3363EB70E0CE017F
:1021500043960E940F336BEA70E0CE014C960E94CA
:102160000F3304E0CE0101965C01912C812C10E02C
:1021700080169106B4F440E0B501F60182810E9418
:10218000A00A6CE271E080E090E00E948903FFEF1A
:102190008F1A9F0A89E0A80EB11CEACF65EA70E0A9
:1021A000C8CF6CE271E080E090E00E9489039FEF6D
:1021B000E91AF90AE6E1CE0ED11C99CFE6960FB6E0
:1021C000F894DEBF0FBECDBFDF91CF911F910F916D
:1021D000FF90EF90DF90CF90BF90AF909F908F9047
:1021E0007F906F9008950F931F93CF93DF930DEC23
:1021F00012E0C8EED3E0CE010E94B333F801819320
:102200008F012196C43FF3E0DF07A9F76091CE026A
:102210007091CF028091D0029091D10220EB34E0F6
:1022200040E050E00E94D933672B682B692B61F0A6
:1022300080E895E2A0E0B0E08093CE029093CF02D8
:10224000A093D002B093D1028091D602833020F0C7
:102250001092D6021092D4028091D702843020F0DE
:102260001092D7021092D4028091D5028D3020F0C6
:102270001092D5021092D4028091D2028093000174
:10228000DF91CF911F910F9108950F931F93CF93DB
:10229000DF9329E2289F8001299F100D1124C5E3B7
:1022A000D2E000581F4FC8018C0F9D1F0E94B3330E
:1022B000899382E0CE35D807B1F7DF91CF911F9196
:1022C0000F9108950F931F93CF93DF932FE8289FCB
:1022D0008001299F100D1124C0ECD4E0085B13404D
:1022E000C8018C0F9D1F0E94B333899385E0CF34C2
:1022F000D807B1F7DF91CF911F910F91089585ED28
:102300008093BC0080910B0690910C06A0910D0665
:10231000B0910E060796A11DB11D23E0B695A795B5
:10232000979587952A95D1F72091BC0024FD03C08D
:1023300010920906089540910B0650910C06609189
:102340000D0670910E06452B462B472B69F300971F
:10235000A105B10541F025E32A95F1F700000197A9
:10236000A109B109E1CF80910A060C9430052F92A2
:102370003F924F925F926F927F928F929F92AF9215
:10238000BF92CF92DF92EF92FF920F931F93CF9362
:10239000DF937C01FC0101900020E9F731977E2E4C
:1023A000781A20E1271518F4FC011082712C81E0C5
:1023B0000E94640B8AE295E00E94AB0480E00E94D8
:1023C000640B84E20E942B0B8EE195E00E94AB042B
:1023D000772049F00E947709C7010E94810A81E2B3
:1023E00095E00E94AB04B70183E396E00E94CA34F3
:1023F000E72DF0E0ED5CF94F1082572C172DC12C22
:10240000D12C212C912CC0E0D0E090E1892E0CE35E
:10241000DD3009F4B1C10E940F088823C9F00150D2
:10242000B9F480E00E942B0B80E0DF91CF911F91E7
:102430000F91FF90EF90DF90CF90BF90AF909F9063
:102440008F907F906F905F904F903F902F90089566
:1024500084E496E00E941C04892BD1F284E496E087
:102460000E94FA03D82F412E4518772009F493C112
:10247000992493945C12912CDC2ED70C312E3D18AC
:10248000CC24C394C30CDD3009F443C1A4F4D83088
:10249000B1F0DA3009F43DC12C2E80EE8D0F8F356E
:1024A00008F0B5CF103108F41AC1772009F4AFCF86
:1024B000AA24A394DFC0DB3129F0DF3769F72C2E83
:1024C000A12CD8C02C2E6CE070E080E090E00E943F
:1024D000890300E0A12C612CDBE184E496E00E94FA
:1024E0001C04892B09F44BC0639484E496E00E9499
:1024F000FA03D82F6CE070E080E090E00E9489033E
:10250000F3E06F1651F1F61558F021E06216A9F0CC
:1025100032E06316A9F0AA24A394DFCF342CD3CFE2
:1025200084E0681641F195E06912F5CF8FEB8D0FCD
:10253000843088F70FE70D0FD0CFDB3561F7CDCFB3
:10254000D53334F4D33314F4D13329F70D2FC5CF59
:102550008FEB8D0F8430F8F6F9CFDB3309F4BDCF64
:10256000DE37C9F6013309F4B8CFA8F28DEC800F3D
:10257000823088F6B2CFD23309F4AFCFCCCF662009
:1025800009F44FCFA11043CF033409F456C0E0F44F
:10259000043389F058F4013309F449C0033309F4D2
:1025A0005EC0772009F433CF412C0AC0013409F40E
:1025B0003EC00234B1F7642C772009F44EC04318B2
:1025C000642C650C712C7AC0013C69F168F4043408
:1025D00009F43BC0003C29F7652C6194552009F4AF
:1025E00016CF71105DC012C0023C49F0033CC9F621
:1025F00041E0511001C040E0642E619405C06624A2
:102600006394411001C0612C711047C0662009F429
:10261000DFC0762C652C670CC52D17140CF44EC04A
:102620007194C62D4BC0642C4110DBCFF0CE7720C7
:1026300009F4CCC04C2E4518C3CF7110C0CF66240E
:10264000639441100AC0612C08C07110F3CF41E0BF
:10265000511001C040E0642E6194712C7FC0711054
:1026600009C0511680F7DD24D394D50CC42C252C39
:10267000772473944C2D50E06D2D70E06D5C794F94
:10268000822D90E08D5C994F0E94A6341719622C20
:10269000AA2009F497CF522C24C0662009F4B7CEA3
:1026A0008C2F870D9920A1F0C60D6C2EC81718F439
:1026B000982F8C2FC92F7C2E781AC82F87E295E08F
:1026C0000E94AB04772009F485C0C11188C097C06F
:1026D000680E862DC61578F78C2FC62DECCF71109D
:1026E000E7CE852D90E0FC01ED5CF94F5F018C5C3D
:1026F000994F511680F4442D50E04F5F5F4FBF015A
:102700000E94A634F501D08366246394650C1F5F94
:1027100059CF2C2E7CCEFC011082F4CF81E295E0C3
:102720000E94AB045C2E570C852D90E09C012D5C23
:10273000394F5901511638F4F50181915F010E941A
:10274000C6045394F7CF5C2E882D811B0E9460092C
:1027500087E295E00E94AB04C52D512C662009F458
:1027600056CE560C862D16141CF40E940F0B4FCE1D
:1027700081950E941D0B4BCEE12FF0E0ED5CF94FEF
:10278000108280E00E942B0B63E376E0C7010E9479
:10279000CA3481E04ACE8D3009F439CE34F4883021
:1027A00051F08A3009F433CE78CE8B3109F4B6CEAD
:1027B0008F3709F072CE552059F022242A94250C27
:1027C000CC24C394C40CD52CA12C52CF652C44CF5F
:1027D000712C1DCE512C112309F4B6CFC12F83E3E8
:1027E000A82E86E0B82E512CF50181915F010E9440
:1027F000C60453945C12F8CF772009F4A5CF0E9449
:1028000077095C2E2C2F270D3327331F5901852D77
:1028100090E08A159B050CF081CF8D5C994FFC01EF
:1028200080810E94C6045394F2CF5F926F927F9290
:102830008F929F92AF92BF92CF92DF92EF92FF92D0
:102840000F931F93CF93DF9300D000D000D0CDB76C
:10285000DEB75C01762E542E622ECE0101966C01FD
:1028600086E0D6011D928A95E9F70AE613E0F12C7D
:10287000E12C8091D9028E151F0409F00CF48CC054
:102880007E1441F04E2D652D872D0E948E098823E0
:1028900009F461C06FE970E08FEB95E00E940F339F
:1028A0006620C1F0D801EC91F0E0D601AE0FBF1F59
:1028B0008C918F5F8C93EE0FFF1FEC58FD4F65914D
:1028C000749183E396E00E940F33BC0184EC95E0A1
:1028D0000E94CA348FEB882E85E0982EF401019077
:1028E0000020E9F7CF01B50101970E94CA346620A4
:1028F00091F0F40101900020E9F7E05CF540FF273A
:10290000E154FA4FD8018C91D601A80FB11D8C91DA
:10291000805D808311820E94880AF80182810E9472
:10292000080B8BE491E00E94810A8FEB95E00E94F6
:10293000300A0E94880A41E06FEB75E0D8011296D8
:102940008C910E94A00A181634F464EC75E0C8015A
:1029500005960E94CA346DE471E080E090E00E9428
:102960008903F801828191E090930F0680933106EC
:10297000109210061092320660E081EE96E00E94FE
:102980009106D80112968C910E945105BFEFEB1A67
:10299000FB0A0A5E1F4F6DCF26960FB6F894DEBF76
:1029A0000FBECDBFDF91CF911F910F91FF90EF90A0
:1029B000DF90CF90BF90AF909F908F907F906F905F
:1029C0005F900895FF920F931F93CF93DF938C0135
:1029D000F62E6EE270E00E94BF34EC01892B11F0FC
:1029E000F1101BC04AE050E070E060E0C8010E94B6
:1029F000D1318B019C01F7FE08C0A8EEB3E0AC0119
:102A00009B010E94FB338B019C01C901B801DF913E
:102A1000CF911F910F91FF90089518824AE050E0E6
:102A200070E060E0C8010E94D1319B01AC01A8EECA
:102A3000B3E00E94FB338B019C01F12C37FF09C0EE
:102A400030952095109501951F4F2F4F3F4FFF2434
:102A5000F394FE01319684E690E0CAE0D0E0419123
:102A60004423F9F018161906E4F4042E000C550B53
:102A7000405351094A30510590F7489FB001499F92
:102A8000700D589F700D1124AB01770F660B770BFB
:102A9000040F151F261F371FBE010E946034CB0193
:102AA000DECFFF2009F4B1CF309520951095019528
:102AB0001F4F2F4F3F4FA9CF009721F09093E20572
:102AC0008093E1056DE471E08091E1059091E2056C
:102AD0000E9416330097A1F01092E2051092E105D2
:102AE000FC014081242F042E000C330B20533109AC
:102AF0002A30310510F04D3229F76FEF0C94E214B3
:102B000060E070E0CB010895FF920F931F93CF9385
:102B1000DF93082F10E096E1899FE0011124C65948
:102B2000DC4F8A810E94990C18168CF58FEB95E08A
:102B30000E945C152CE0209FF001219FF00D1124D4
:102B4000E652FD4F6083718382839383FF24F39465
:102B5000C801880F991F080F191FE881F0E0E9509C
:102B6000FF4FE491FE16D0F490E080E00E945C15E7
:102B7000F801EF0DF11DEE0FFF1FEE0FFF1FE652E4
:102B8000FD4F6083718382839383F394E6CF80E06B
:102B9000DF91CF911F910F91FF90089581E0F8CFC1
:102BA0004F925F926F927F92BF92CF92DF92EF929D
:102BB000FF920F931F93CF93DF931092D9020E943D
:102BC000880AC0E2D0E046E1D42EBB24B394C7FD0E
:102BD00071C18091D9028C3008F06CC180EB8C0FF0
:102BE000883008F45EC1C83609F45BC1DC1372C0DA
:102BF0006DE471E080E090E00E948903D1116CC027
:102C0000B0920F06C0933106109210061092320651
:102C100081E00E945105811144C180E191E00E9450
:102C2000AB048C2F0E94080B8AE30E946D096DE4AF
:102C300071E080E090E00E94890340E06FE471E081
:102C40008C2F0E94A00A082E000C990B0E94A10D47
:102C50008AE30E946D096DE471E080E090E00E94DB
:102C600089038C2F0E94990C182F082E000C990BA9
:102C70000E94A10D8AE30E946D091C5F153008F4C3
:102C800015C18FEB95E00E94810A8AE30E946D09CD
:102C90008091BF058F3309F009C18091C005893447
:102CA00009F004C1E091D902DE9EF0011124E65939
:102CB000FC4F118215828091C20501E011E0883439
:102CC000A9F0823559F000E012E0833479F001E098
:102CD0001FEF0CC0DC2F94CFD0E09FCF11E080918C
:102CE000C305843509F410E0119501E0E12E012EB1
:102CF000000CFF08C7010E94A10D0E94880A1F3F17
:102D000009F4D4C0E091D902DE9EF0011124E65905
:102D1000FC4FC28310838FEB95E00E945C151091ED
:102D2000D902D19E90011124A90146595C4F3A0164
:102D3000FA01748363830023B1F040E061E571E040
:102D40008C2F0E94A00A6DE471E080E090E00E9468
:102D500089038C2F0E94990C18162CF48091C405BD
:102D60008053F301818340E067E571E08C2F0E947E
:102D7000A00A6DE471E080E090E00E9489038C2F4E
:102D80000E94990C18164CF41D9DC001112465EC8D
:102D900075E081599C4F0E94CA3440E06EE571E0B5
:102DA0008C2F0E94A00A87E091E00E94AB046CE2A5
:102DB00071E080E090E00E9489038C2F0E94990CC2
:102DC00018160CF05EC08091C7050E94C60480E40E
:102DD0000E946D0989EC95E00E94810A84E091E0EF
:102DE0000E948C0A8AEF90E00E94AB041091D902F5
:102DF000812F0E94E10A812F0E94110A812F0E94D7
:102E00008415882309F44FC0C12C870109501F4F36
:102E1000F8018491C816C0F5EC2CF12CE091D90290
:102E20008E2F90E0FC01EE0FFF1FE80FF91FEE0D53
:102E3000FF1DEE0FFF1FEE0FFF1FE652FD4F4080FC
:102E40005180628073804AE0C301B20177FE0BC0FB
:102E50008DE20E94C60466277727CB0164197509A5
:102E6000860997094AE00E943D0AF8018491815041
:102E7000990BE816F9061CF48CE20E946D09C394C4
:102E8000C7CF80E091E0ACCF86EF90E00E948C0A43
:102E90000E94880A8091D9028F5F8093D902809323
:102EA000D502CF5F94CE82EF90E0F0CFCD13F9CF73
:102EB000C150F7CFDF91CF911F910F91FF90EF900D
:102EC000DF90CF90BF907F906F905F904F9008956C
:102ED000DF92EF92FF920F931F93CF93DF93142F04
:102EE000D22F2AE043E356E00E944D3343E356E0FD
:102EF000FA0101900020E9F7AF0144535640C42F76
:102F00004430A8F4552784E090E07C01E41AF50AE7
:102F100063E376E0C7018D5C994F0E94A634A70158
:102F200060E370E083E396E00E94B834C4E01D5F84
:102F3000D12EDC1A1D14B4F44C2F50E063E376E07C
:102F4000ED2C0D2C000CFF08C7018D5C994F0E94E1
:102F5000A634602F000F770BA70183E396E00E9451
:102F6000B834C12F8C2F90E08C01005D194F43E0E5
:102F700050E0B8018F5C994F0E94A6348EE2F801B0
:102F80008083CF5F12E01D0F1D0D412F4C1B1416C7
:102F900064F4042E000C550B8C2F90E060E370E07D
:102FA0008D5C994F0E94B834C12FECEFEC0F80E09C
:102FB000DD2321F08E2FEDEFED0FEC0FF0E0ED5C57
:102FC000F94F1082DF91CF911F910F91FF90EF90F9
:102FD000DF900895CF92DF92EF92FF920F93CF93FD
:102FE0006B017C01C42F4423E9F000E223E041E0BF
:102FF0000E94681763E376E08CE895E00E94CA348B
:103000008CE895E00E94B711882391F06C2F6195B0
:1030100083E396E0CF910F91FF90EF90DF90CF90F8
:103020000C94E2142AE04CE855E00E944D33E8CFBE
:10303000C701B601CF910F91FF90EF90DF90CF9035
:103040000895CF93DF93EC01688179818A819B8118
:1030500041E00E94EA17688379838A839B8381E039
:10306000DF91CF910895CF92DF92EF92FF920F936D
:103070001F93CF93DF93D62F7A01122FC02F282FC3
:1030800030E0A8EEB3E00E943D3400E320E042E0EF
:103090000E94681763E376E08CE895E00E94CA34EA
:1030A0008CE8C82E85E0D82EF60112832D2F30E053
:1030B000A8EEB3E00E943D3420E042E00E94681791
:1030C00063E376E08FE895E00E94CA34F601158349
:1030D0009701A8EEB3E00E943D3420E04C2F0E94FF
:1030E000681763E376E082E995E00E94CA34EC2F2A
:1030F000F0E0E457FA4F1682DF91CF911F910F91C4
:10310000FF90EF90DF90CF900895AF92BF92CF9253
:10311000DF92EF92FF920F931F93CF93DF9300D034
:103120001F92CDB7DEB719821A821B829E012D5FD6
:103130003F4F59012150310969012150310979016D
:1031400010E000E030E020E050E040E00E94F906AE
:103150004B8150E002E02AE36A8189810E943318A2
:103160000F900F900F90DF91CF911F910F91FF90D3
:10317000EF90DF90CF90BF90AF900895CF92DF9205
:10318000EF92FF920F93CF93DF93C0907902D0908C
:103190007A02E0907B02F0907C02C701B6010E94A7
:1031A0008518C701B60120E831E541E050E00E94F2
:1031B000D933A8EEB3E00E94FB3300E220E043E005
:1031C0000E94681749E050E06CE875E081E995E0FD
:1031D0000E94A634CCE8D5E083E0E3E3F6E0DE012C
:1031E00001900D928A95E1F784E68B8380E28C83CF
:1031F000CE01DF91CF910F91FF90EF90DF90CF90B4
:103200000C94810A0F931F93CF93DF93D82FC62F6F
:103210008A010E94770968E181E00E94530CDF3F38
:1032200049F589E20E942B0B84E00E946009C801E5
:103230000E94810A80E00E94640B81E30E942B0BB4
:103240008AE095E00E94AB040E94BE18C11106C03E
:10325000E80109900020E9F72197C01B88E28C1B48
:103260000E94600981E295E0DF91CF911F910F915B
:103270000C94AB0481E00E94640BD6CFCF93DF9314
:10328000EC016881798190E080E00E9485188CE8EB
:1032900095E00E94B7110E94E20F79836883DF9165
:1032A000CF910895CF93DF93EC01662331F00E9414
:1032B0003E1981E0DF91CF9108956881798190E096
:1032C00080E040E00E94EA1779836883F2CF0F9391
:1032D00061E083E40E94530C0E9477090E94BE18AB
:1032E00068E18DE30E94530C40910201509103016B
:1032F00004E02EE260910401809105010E943318E0
:103300008CE895E00E94810A0E946A09409173024C
:1033100050E002E02AE360917202809171020E9403
:1033200033188CE895E00E94810A8EE095E00E94B7
:10333000AB0481E295E00F910C94AB046F927F9205
:103340008F929F92AF92BF92CF92DF92EF92FF92B5
:103350000F931F93CF93DF93CDB7DEB7C155D1093C
:103360000FB6F894DEBF0FBECDBFD82EC62E89E0B3
:10337000EFE0F1E0DE01A75BBF4F01900D928A956F
:10338000E1F785E691E00E94460E182F61E0680F94
:1033900083E00E94530C82E0810F0E94840C182F5E
:1033A0004CE463E081E0810F0E946B0C10933402C7
:1033B00010923302E5E3F2E0DE01119681919191E2
:1033C00011969C938E93189622E0E334F207B1F79E
:1033D00080914302909144029AAF89AF80914B0251
:1033E00090914C0223969FAF8EAF2397FE013196AA
:1033F00080E0F12CE12CD81619F03FEFD31209C070
:10340000208131812115310521F0E216F30608F4FF
:1034100079018F5F3896893071F7FE01319640E06F
:10342000D41619F05FEFD5125BC0208131812115D0
:10343000310509F455C081E0C81609F4E4C0C7019C
:10344000B9010E944C348B012617370708F4890113
:10345000C901B8010E944C345B01609FC001619FAB
:10346000900D709F900D11248217930718F49FEF11
:10347000A91AB90A0A9DC0010B9D900D1A9D900DC5
:1034800011242817390738F40115110509F4C5C0AE
:1034900001501109DDCFB582A482C701821B930BB5
:1034A000B8010E944C34778366836A0D7B1D609F50
:1034B000C001619F900D709F900D11249701281BF2
:1034C000390BC90196958795938382838281938175
:1034D000892B31F486819781969587959383828392
:1034E0004F5F3896493009F09BCF3FEFE31AF30A5C
:1034F000B12CA12C8CE8882E85E0982EE114F104E3
:1035000009F46AC00E940F08882309F45AC041E0F8
:10351000E41AF108B70190E080E00E94851864E7A2
:1035200071E084E995E00E94CA34F4010190002022
:10353000E9F7BF016D5875404CE855E080E00E9406
:1035400002199E01275B3F4F39018E010F5F1F4F0C
:10355000C12CDC1419F03FEFD3121AC0F80180819E
:103560009181892BA9F082819381A816B90680F0F8
:1035700024813581A501481B590BCA0166817781D9
:10358000620F731F0E944C3461E08217930708F0AA
:1035900060E08FEF8C0D833020F0F30180810E947A
:1035A0003603C394FFEF6F1A7F0A085F1F4F29E0AD
:1035B000C212CFCF3FEFA31AB30A0E9467190E942D
:1035C000660E84E496E00E941C04892B09F496CFD1
:1035D00084E496E00E94FA03CF5ADF4F0FB6F894C6
:1035E000DEBF0FBECDBFDF91CF911F910F91FF9036
:1035F000EF90DF90CF90BF90AF909F908F907F9093
:103600006F900C94250A35832483C701821B930B8A
:10361000978386831382128259CF0E94A1348F929E
:103620009F92AF92BF92EF920F93CF93DF934B0194
:103630005C01C42FD22F8E2D0E94640BDD23C1F0BC
:103640002D2F4C2FC501B4010E946817C82F83E3AA
:1036500096E00E94810A80E00E94640B8C2FDF912B
:10366000CF910F91EF90BF90AF909F908F90089562
:10367000A8EEB3E0A50194010E94FB3320E04C2F9B
:10368000E3CFBF92CF92DF92EF92FF920F931F93FF
:10369000CF93DF93F82EEB01B42ED22E11E02097BA
:1036A00009F010E0C12EE12C00E020E240E060E0F3
:1036B0008F2D0E94D00DBE0190E080E0BB20F1F084
:1036C0000E9485188CE895E00E94810ADD20E9F0CF
:1036D000C12EE12E00E020E048E261E080EE8F0D97
:1036E0000E94D00D81E0DF91CF911F910F91FF904B
:1036F000EF90DF90CF90BF900C94760BE12C00E21E
:1037000020E048E00E940F1BE1CF88E895E00E948E
:10371000AB04E8CFEF920F931F93CF93DF93C82FA3
:10372000D62F142F0E94150C612F8D2F0E94530C41
:1037300084E0C89FF0011124EC58FA4F6081718138
:1037400082819381EE24E39400E222E043E00E9430
:103750000F1B60E08C2FDF91CF911F910F91EF90A5
:103760000C943310EF920F93CF93C82F482F6EE035
:1037700080E00E948A1B4C2F63E281E00E948A1B3A
:1037800082E00E94150C6C2F83E30E94530C609121
:103790007C0570917D0580917E0590917F0528EED6
:1037A00033E040E050E00E947434CA01B901EE24D5
:1037B000E39400E220E044E00E940F1B60E082E01E
:1037C0000E9433104C2F62E483E00E948A1B81E048
:1037D0008C0FCF910F91EF9008952F923F924F92BF
:1037E0005F926F927F928F929F92AF92BF92CF9291
:1037F000DF92EF92FF920F931F93CF93DF93CDB79A
:10380000DEB7A1970FB6F894DEBF0FBECDBF888F8D
:103810008091180190911901A0911A0189839A83CE
:10382000AB8380911B0190911C01A0911D018C83A1
:103830009D83AE8324E735E03F872E87AE014C5F42
:103840005F4F5F8B4E8BCE0101969D8B8C8B10E072
:10385000188A123009F4B2C081E090E0E2E0EB8B0C
:10386000EE89FF892191FF8BEE8B298FEC89FD89F1
:103870002191FD8BEC8B2F834AE653E05A8B498BC9
:10388000EAEDF2E0F987E887288C412C512C3201CF
:10389000812C912C54011A861B861C861D86D12CE6
:1038A000C12C312C9C01990F440B550B2E8F3F8F4F
:1038B00048A359A38091D9028C151D0409F00CF47A
:1038C00093C0E989FA89808181136AC03394E885BD
:1038D000F98580819181A281B3812A853B854C85C0
:1038E0005D85280F391F4A1F5B1F2A873B874C873E
:1038F0005D8784819581A681B781880E991EAA1E55
:10390000BB1E80859185A285B385480E591E6A1E0F
:103910007B1EF12CA6014F5F5F4F5B8F4A8FC60164
:10392000880F991FFC01EC0DFD1DFD8FEC8F622DA2
:103930008F810E94530C8A8D9B8D0E94A10D81E482
:1039400092E00E94AB04EC8DFD8DEF0DF11DEE0FAA
:10395000FF1FEE0FFF1FE652FD4F608171818281D4
:1039600093812E8D3F8D48A159A10E947434CA01C4
:10397000B901EE24E39400E22B89498D0E940F1BCC
:10398000113041F5FF2031F12F81235D2F8361E05C
:1039900085E08F190E943310F394113099F023942D
:1039A0004FEFC41AD40A89899A8946969A8B898BD3
:1039B000E885F9853C96F987E8877CCF88EE93E027
:1039C0001B8A4ECFF2E0FF1508F0B1CF4F814C5467
:1039D0004F83E5CF61E0812F0E9433101130E1F673
:1039E0003F813E503F83D8CF3320A1F1C32CD12C4F
:1039F000F12CE12C6A857B858C859D85A70196013C
:103A00000E947434EE85FF85208331834283538383
:103A10001130E1F4C501B401A70196010E9474348C
:103A20002093840530938505409386055093870540
:103A3000C301B201A70196010E947434209380054E
:103A4000309381054093820550938305F889F315DF
:103A500008F4388A1F5F2E853F852C5F3F4F3F87D4
:103A60002E87133009F0F5CE888D3889830FA19603
:103A70000FB6F894DEBF0FBECDBFDF91CF911F917F
:103A80000F91FF90EF90DF90CF90BF90AF909F90FD
:103A90008F907F906F905F904F903F902F90089500
:103AA000CF93DF930E94B50B0E9477098DE791E0D9
:103AB0000E94460EC82F81E295E00E94AB04D2E03E
:103AC000DC0F61E06C0F83E00E94530C8D2F0E948D
:103AD000840CC82F4FE851E060E080E00E9402199A
:103AE0008C2F0E94ED1B4CE463E00E946B0C0E9443
:103AF000B21B4CE463E00E946B0CC82F81E00E9473
:103B0000640BC0933402109233024CE463E081E012
:103B10008C0FDF91CF910C946B0C8F929F92AF9290
:103B2000BF92CF92EF920F93962F49015A01C12C69
:103B3000E12C00E020E240E060E0890F0E94D00D1F
:103B400000E222E044E0C501B4010E940F1B80E0C6
:103B50000F91EF90CF90BF90AF909F908F900C946B
:103B6000760B8F929F92AF92BF92EF920F93CF936B
:103B7000C82F4A015B0185EA91E00E94AB046C2FDB
:103B80008DE10E94530C82EA91E00E94AB04EE2486
:103B9000E39400E222E044E0C501B4010E940F1B5F
:103BA000CF910F91EF90BF90AF909F908F9008951D
:103BB0002F923F924F925F926F927F928F929F923D
:103BC000AF92BF92CF92DF92EF92FF920F931F932B
:103BD000CF93DF9300D000D0CDB7DEB7782E662E1E
:103BE00019012A0128E729831A821C82C12CD12CB1
:103BF00076018091D9023A81381770F5032F10E0D1
:103C000046E1409FF001419FF00D1124E659FC4F21
:103C1000808181111DC08C818F5F8C83832F0E94D6
:103C2000E10A8A810E94110A8A810E948415ECE0CF
:103C3000E09FC001E19F900D112486529D4FFC0131
:103C400080819181A281B381C80ED91EEA1EFB1E1C
:103C5000FA81FF5FFA83CDCF2C81222309F4AEC015
:103C600030E050E040E0C701B6010E9474344901E1
:103C70005A018092740590927505A0927605B092D3
:103C800077050E94880A80E00E94510B0E94AD0BCC
:103C900080EF90E00E94AB04E12C00E222E044E0DF
:103CA000C201B1010E940F1B8BEE90E00E94AB0499
:103CB00080E00E94510B80E195E00E94AB0480E01F
:103CC0000E94A40B0E946A0922E043E0C501B401EE
:103CD0000E940F1B81E00E94510B87EE90E00E9432
:103CE000AB0480E00E94510B83E00E940F0B10E0B8
:103CF00094E1F92E8091D902181708F075CF1715A5
:103D000041F0412F662D872D0E948E09882309F4EA
:103D100043C0812F0E94E10A812F0E94110A812F46
:103D20000E948415812F90E09B838A83BC016F5F82
:103D30007F4F072E000C880B990BE12C00E320E04D
:103D400042E00E940F1B84EE90E00E94AB042CE046
:103D5000EA81FB812E9FC0012F9F900D1124865276
:103D60009D4FFC016081718182819381EE24E394F7
:103D700000E222E044E00E940F1B80E00E94760BEC
:103D8000FEE0FF0E22E42F1538F40E94880A84E139
:103D90000E940F0B85E1F82E0E940F08882319F06E
:103DA00039813150398384E496E00E941C04892BC8
:103DB00071F44981442359F01F5F9CCF80907405B2
:103DC00090907505A0907605B090770552CF84E469
:103DD00096E00E94FA034B9719F4812C912C540120
:103DE000C501B4010F900F900F900F90DF91CF910C
:103DF0001F910F91FF90EF90DF90CF90BF90AF9009
:103E00009F908F907F906F905F904F903F902F90FA
:103E10000895CF92EF92FF920F931F93CF93DF936A
:103E2000EB01142FF22ECC24C394209709F0C12C5F
:103E3000E12C00E020E240E060E00E94D00DFF2095
:103E4000A1F0BE0190E080E00E9485188CE895E02A
:103E50000E94810A1123D9F0DF91CF911F910F9118
:103E6000FF90EF90CF900C94870B9E01A8EEB3E0EB
:103E70000E943D3400E220E046E00E94681783E3A0
:103E800096E00E94810A82E00E946009E3CFDF9100
:103E9000CF911F910F91FF90EF90CF9008952F92A7
:103EA0003F924F925F926F927F928F929F92AF92CA
:103EB000BF92CF92DF92EF92FF920F931F93CF9317
:103EC000DF93082FD62E142F322EF12C8F3F19F4AA
:103ED000FF24F39400E04FE365E0812F0E946B0C18
:103EE000CAE6D3E02AED622E22E0722E912C812CBC
:103EF000402E512C26E1029FC0011124FC01E659FD
:103F0000FC4F5F018091D9028815190409F00CF467
:103F1000C0C09881F5018081981719F0FF2009F43D
:103F2000ADC01F5F222423944814590419F0D11006
:103F300001C0212C612F85E00E94530C31100FC06D
:103F4000CC24C394C224E22C00E020E048E260E0EC
:103F500081E3880D0E94D00D81E00E941D0B81E05D
:103F6000222009F493C00E94640B83E00E940F0B8F
:103F7000CE0105960E94810A612F8AE10E94530CAE
:103F8000822D0E94760BF301608171818281938181
:103F900000E222E045E00E94681788810E94150C2B
:103FA000211003C081E00E94510B83E396E00E9440
:103FB000810A80E00E94A40B81E00E94510B0E94C4
:103FC0006A09E881F0E0EE0FFF1FE258FA4F6591B1
:103FD000749183E396E00E940F330E94810A612F5F
:103FE00089E20E94530C80E00E94760BE881F0E0A9
:103FF000EE0FFF1FEC58FD4F6591749183E396E03F
:104000000E940F330E94810A612F80E30E94530CAB
:1040100080E00E94760B6B817C8190E080E000E381
:1040200022E042E00E94681783E396E00E94810A42
:10403000612F88E30E94530C80E00E94760B2A8156
:1040400030E0A8EEB3E00E943D3400E220E043E01F
:104050000E94681783E396E00E94810A612F8EE335
:104060000E94530C89810E94760B89810E94080B63
:1040700080E00E94640B80E00E94760BFFEF8F1AB5
:104080009F0A66962CE0620E711C3CCF0E94510B79
:104090006CCF80E00E94510B4FE365E081E0810F1F
:1040A0000E946B0C82E0810FDF91CF911F910F91E5
:1040B000FF90EF90DF90CF90BF90AF909F908F9048
:1040C0007F906F905F904F903F902F9008950F9347
:1040D000CF93DF93C82F682F85E00E94530C81E6B1
:1040E0000E94280E82E991E00E94AB0482E60E94C1
:1040F000280E88E791E00E94AB0483E60E94280E18
:1041000089E691E00E94AB04D2E0DC0F43E068E076
:1041100081E08C0F0E946B0C6D2F85E00E94530C88
:1041200084E60E94280E8AE591E00E94AB0481E0BB
:104130000E94640B8EE592E00E94810A6D2F8AE254
:104140000E94530C85E60E94280E88E491E00E94AC
:10415000AB0443E068E083E08C0F0E946B0C64E0EA
:104160006C0F85E00E94530C86E60E94280E80E3C7
:1041700091E00E94AB0481E00E94640B20916F02E9
:1041800030E0A8EEB3E00E943D3400E320E043E0DD
:104190000E94681783E396E00E94810A85E00E94EE
:1041A000600987E60E94280E8AE191E00E94AB0434
:1041B00085E08C0FDF91CF910F9108958F929F92A0
:1041C000AF92BF92CF92DF92EF92FF920F931F9325
:1041D000CF93DF936C01D62FF42E48015901CE2DD9
:1041E00060EE70E08FEB95E00E940F33EE20E9F176
:1041F0008CE28093C205C33059F150F4C13099F07C
:1042000066ED70E0C23089F0C53078F5C4E012C0C8
:10421000C53031F1C630C1F76CEC70E083EC95E04D
:104220000E940F3322C06BED70E083EC95E00E949A
:104230000F33C8E000E322E041E0C501B4010E9471
:1042400068178C2F90E063E376E081549A4F0BC09F
:1042500060ED70E083EC95E00E940F33C9E0EACF97
:10426000B60183EC95E00E94CA34C0E086E1E82EF6
:10427000ED9E8001112406591C4F8091D902C81768
:1042800098F5CD1739F04C2F6F2D8D2F0E948E0988
:10429000882341F1D801EC91F0E0E753FF4FE4911E
:1042A000EE2301F10E94880AEC9EC0011124FC015A
:1042B000E659FC4F6F0182810E94080B8BE491E06C
:1042C0000E94810A8FEB95E00E94300A0E94880AC2
:1042D00040E06FEB75E0D60112968C910E94A00A27
:1042E000F6011182CF5FC9CFDF91CF911F910F915E
:1042F000FF90EF90DF90CF90BF90AF909F908F9006
:104300000895CF92DF92EF92FF920F931F93CF9376
:10431000DF93D62FF42E833609F46BC09CF48136DC
:1043200009F461C00CF09CC08F5F823008F45FC05C
:1043300080E0DF91CF911F910F91FF90EF90DF9080
:10434000CF900895853609F45FC00CF458C08636C6
:1043500009F45EC0873661F7C0916F029AE6C92EF4
:1043600093E0D92E10E000E08091D9028017110669
:1043700009F00CF46CC080EB8C0F883008F465C039
:10438000C83609F4C9E6D01739F0402F6F2D8D2FAC
:104390000E948E09882309F16DE971E083E396E0BC
:1043A0000E940F334AE06CE875E08C2F90E00E9489
:1043B00042336CE875E087E396E00E94CA3440E03F
:1043C00063E376E0F60182810E94A00ACF5F6CE28F
:1043D00071E080E090E00E9489030F5F1F4FF6E1DB
:1043E000CF0ED11CC1CF642F8D2F0E94591081E0B8
:1043F000A0CF20E084E491E00E941514F8CF8EE570
:1044000092E00E94B711F3CF21E08EE592E0F4CF65
:1044100060916F0270E090E080E040E00E94EA1757
:1044200060936F022091D9028FE790E0821B91097F
:104430006817190631F02CF08FE7821B80936F020A
:10444000D6CF6032A0F680E2F9CFC8E59CCF68EE07
:1044500073E080E090E00E9489030E94D015C7CFEE
:1044600085E0E82E00E010E0980184EA91E00E94E7
:10447000DE20BDCFFF920F931F93CF93DF93EC010C
:10448000F62E08811981C8010E94B333F81621F075
:104490006F2DC8010E94BB33CE01DF91CF911F91D8
:1044A0000F91FF900895EF92FF920F931F93CF9378
:1044B000DF9300D0CDB7DEB78DECE82E82E0F82E8A
:1044C00008EE13E01A830983F70161917F01CE01A1
:1044D00001960E943A220F5F1F4F043FF3E01F072F
:1044E00089F70F900F90DF91CF911F910F91FF905F
:1044F000EF900895EF92FF920F931F93CF93DF9366
:1045000000D0CDB7DEB729E2AC01249FC001259FC2
:10451000900D112405E312E0FC01E058FF4F7F01EC
:10452000C701800F911F9A838983F80161918F01E0
:10453000CE0101960E943A22F2E00E351F0781F764
:104540000F900F90DF91CF911F910F91FF90EF90FF
:104550000895EF92FF920F931F93CF93DF9300D0B4
:10456000CDB7DEB72FE8AC01249FC001259F900D89
:10457000112400EC14E0FC01E85BF3407F01C7016B
:10458000800F911F9A838983F80161918F01CE0179
:1045900001960E943A22F5E00F341F0781F70F9031
:1045A0000F90DF91CF911F910F91FF90EF900895A1
:1045B000EF92FF920F931F93CF93DF9300D0CDB76D
:1045C000DEB78AE6E82E83E0F82E10E000E01A83DA
:1045D0000983F70161917F01CE0101960E943A2281
:1045E0000F5F1F4F0830F1E01F0789F70F900F9002
:1045F000DF91CF911F910F91FF90EF9008952F922F
:104600003F924F925F926F927F928F929F92AF9262
:10461000BF92CF92DF92EF92FF920F931F93CF93AF
:10462000DF93CDB7DEB768970FB6F894DEBF0FBE45
:10463000CDBF8DE791E00E94460E20E0482F61E05B
:104640008FEF0E944F1FC82E082E000CDD08682F28
:1046500085E00E94530C81E60E94280E80ED94E0D4
:104660000E94AB0482E60E94280E86EC94E00E9431
:10467000AB0483E60E94280E8EEB94E00E94AB040C
:1046800084E60E94280E86EB94E00E94AB0485E647
:104690000E94280E8DEA94E00E94AB046091D30240
:1046A00070E090E080E0EE24E39400E320E043E05B
:1046B0000E940F1B43E068E081E08C0D0E946B0CB0
:1046C000B6016E5F7F4F85E00E94530C86E60E9424
:1046D000280E84EA94E00E94AB0481E00E94640BFF
:1046E0006091CE027091CF028091D0029091D10260
:1046F0004AE00E943D0A80E00E94640B83E00E9431
:10470000600987E60E94280E80EA94E00E94AB04CC
:1047100081E00E94510B87E994E00E94AB0480E0A5
:104720000E94510B88E60E94280E8BE894E00E94BC
:10473000AB046091D40241E0611140E089E60E943F
:10474000370E81E894E00E94AB0443E068E083E028
:104750008C0D0E946B0C182F682F85E00E94530C63
:104760008AE60E94280E86E794E00E94AB048BE65E
:104770000E94280E89E694E00E94AB048CE60E9419
:10478000280E85E594E00E94AB048DE60E94280E79
:104790008BE494E00E94AB0443E068E081E0810F89
:1047A0000E946B0C62E0610F85E00E94530C8EE664
:1047B0000E94280E8BE394E00E94AB0482E20E94E8
:1047C000980B8EE395E00E94810A83E00E946009C5
:1047D0008AEA91E00E949D0F85E294E00E94AB047A
:1047E00082E20E94980B8091D60290E001960E948E
:1047F000A10D80E00E94A40B0E94980A6091D9024A
:1048000081E70E940E098D83873609F4A8C40CF055
:1048100046C0823609F40DCFB4F48F3F34F0181639
:104820000CF0D4C1813609F44EC19D802FEC920E5C
:104830006CE673E08EE592E00E940F3381E2809394
:104840006F02A12C9EC42D81243609F490C10CF472
:1048500043C1253609F4D9C1263639F76091CE0215
:104860007091CF028091D0029091D10240E00E94DD
:10487000EA176093CE027093CF028093D002909398
:10488000D10220EB34E040E050E00E94D933672BA6
:10489000682B692B09F0C6C10E945322CACE3D8104
:1048A0003C3609F437C20CF0A0C0393609F4BDC15A
:1048B0000CF45EC43A3609F4ABC03B3609F0B5CF10
:1048C0008DEB91E00E94460E082F61E0680F8CE0AE
:1048D0000E94530C61E080E00E948D0B8CE792E017
:1048E0000E94AB0462E081E00E948D0B85E892E0BB
:1048F0000E94AB044CE463E082E0800F0E946B0CEA
:1049000094E0F92EF00E63E0600F83E00E94530CF8
:1049100024E7A22E22E0B22E3EEFC32E34E0D32EA7
:1049200010E081E00E94640BF5016591749183E3CE
:1049300096E00E940F3369E00E94ED0A80E00E9439
:10494000760BF60121913191419151916F01612FC7
:1049500081E60E948D1DF6012485358546855785A3
:10496000612F85E60E948D1DF601248D358D468DC3
:10497000578D612F89E60E948D1D123090F4F6014B
:1049800024A535A546A557A5612F8DE60E948D1D4E
:10499000F60124A935A946A957A9612F8FE60E94DF
:1049A0008D1D6F2D610F83E00E94530C1F5FF2E09D
:1049B000AF0EB11C143009F0B4CF88E0800F0E9414
:1049C000B40F0E94980A63E080E70E940E0918164F
:1049D0000CF02FCE81360CF45BC185360CF036C15D
:1049E00024E08202C001112437C18D818E3609F482
:1049F000ACC30CF4B4C282370CF017CF8D818F5644
:104A00008093D60290E00E9462110E945322DEC081
:104A100081E280936F026CE673E08EE592E00E9483
:104A20000F3380EB91E00E94460E21E0482F61E0B9
:104A30008FEF0E944F1F0E946720182F43E068E00D
:104A40000E946B0C61E0610F85E00E94530C609145
:104A5000CD0241E0611140E088E60E94370E8AE510
:104A600092E00E94AB0480E00E94510B4091CD0285
:104A700061E0411160E089E60E94370E84E492E033
:104A80000E94AB0480E00E94510B0E94980A6FEFD5
:104A900089E60E940E09182F42E060E00E94812101
:104AA000811104C0183631F0193651F011160CF48A
:104AB000B8CFBFCD81E08093CD020E945322B1CF09
:104AC0001092CD02FACF0E94B50B61E081E00E9406
:104AD000530C0E94D015ADCD609174047091750493
:104AE00080917604909177041C821B821A8219822D
:104AF000B12CA12CD12CC12CF12CE12C8E010F5FFB
:104B00001F4F9E012D5F3F4FAE014C5F5F4F0E94D4
:104B1000F90649815A8104E02EE26B818C810E9462
:104B200033188CE895E00E94B71162EA71E083E3E4
:104B300096E00E94163310E000E0009709F45BC590
:104B40000330110509F457C50E94E83297FD53C59B
:104B50000115110519F480970CF04DC562EA71E05A
:104B600090E080E00E9416330F5F1F4FE6CF60E0B9
:104B700070E0CB0143E7A42E42E0B42E52E7C52EED
:104B800052E0D52EE1E7EE2EE2E0FE2E02E011E04B
:104B900024E031E045E051E00E94F9064091020135
:104BA00050910301E0907302009172022091710212
:104BB00060910401809105010E948507609374044F
:104BC0007093750480937604909377043D81131657
:104BD0000CF42FCD0E94501D68960FB6F894DEBFDE
:104BE0000FBECDBFDF91CF911F910F91FF90EF903E
:104BF000DF90CF90BF90AF909F908F907F906F90FD
:104C00005F904F903F902F9008956091D30270E095
:104C100090E080E040E00E94EA176093D3026F3F8B
:104C200009F03ACE0E94F31004CD81E09091D402B5
:104C3000911180E08093D4020E9453228091D4028B
:104C4000882309F4F6CC0E94D822F3CC893674F478
:104C500034E08302C001112486589C4F0E94211821
:104C6000813019F58091D60290E01CC08D362CF46D
:104C7000E4E08E02C0011124EFCF8F362CF4F4E073
:104C80008F02C0011124E8CF81370CF019CEA8CED5
:104C900081330CF4D4C483330CF012CE082E000CF4
:104CA000990BC1970E94A9220BCE18160CF408CEBE
:104CB000C0CC4CE463E081E0D3C01F5FD5C0803737
:104CC00044F083370CF4EEC089E8890F833008F490
:104CD000E9C061E019160CF0ACCC292F092E000CAC
:104CE000330B91360CF4E0C0983674F4C901880F88
:104CF000991F82509C4F0E945219813009F0EAC0DE
:104D00008091D60290E0E3C09F3684F3963774F327
:104D10009B3764F38CEC91E00E94460E11E0180F73
:104D200005E2A02E03E0B02E80ECC82E84E0D82E41
:104D300000E0002321F0612F0430E9F41F5F612FB0
:104D40008CE00E94530C81E00E94760B82EC92E092
:104D50000E94AB0462E080E00E948D0B85E892E047
:104D60000E94AB044CE463E081E0810F0E946B0C75
:104D7000612F6E5F1D5F83E00E94530CFF24F3944C
:104D80008FEF800F833008F4F12C81E00E94640BD8
:104D9000F5016591749183E396E00E940F3369E019
:104DA0000E94ED0A0E94870BF601619171916F01DB
:104DB0002F2D40E081E6800F0E94091F0E94870B83
:104DC000F601648575852F2D41E088E6800F0E94ED
:104DD000091FF601628D738D2F2D41E08FE6800F44
:104DE0000E94091F0530A0F4F60160A571A52F2DC2
:104DF00041E086E7800F0E94091FF60162A973A9AE
:104E00002F2D40E081E4800F0E94091F0E94870B34
:104E1000612F83E00E94530C033009F44ACF043021
:104E200019F101114ACF4CE463E0812F0E946B0C11
:104E3000182F61E0680F8CE00E94530C81E00E9403
:104E4000760B87EB92E00E94AB0462E080E00E9468
:104E50008D0B85E892E00E94AB044CE463E082E0B5
:104E6000810F0E946B0C182F0F5FF2E0AF0EB11C88
:104E7000073009F05ECF81E0810F0E94B40F0E94DD
:104E8000980A63E08AE70E940E09982F8C360CF08E
:104E900016CF89363CF482340CF41BCF8EE995345E
:104EA0000CF013CF60E016CF91344CF096340CF038
:104EB00031CFC901880F991F8E589B4F1CCF91335A
:104EC0000CF4C1C394330CF025CFC901C1970E94E3
:104ED000A92220CF18160CF41DCFABCB8FEF800F7B
:104EE000833008F09CC060E08FE00E948D0BF601DB
:104EF0006485758520E040E08EC09FE9980F97306B
:104F000050F4880F990B8D589E4F0E943E19809146
:104F1000D70290E017C1893674F08C3674F4880F8C
:104F2000990B60E08D589E4F0E945219813079F3A1
:104F30001816ACF0E0C0883621F38C3611F39FEBE5
:104F4000980F973040F0982F9B7F983409F0D6C087
:104F500061E0825402C061E0892F0E949E1984EEB4
:104F600091E00E94460E182F61E0680F85E00E94D4
:104F7000530CC12CEE24E39400E020E248E260E010
:104F80008FE60E94D00D82E20E942B0B60E18DE43F
:104F900092E00E94ED0A80E00E942B0B83E393E0F5
:104FA0000E94AB04E3E0FE2EF10E49E465E082E0EE
:104FB000810F0E946B0CF5E2AF2EF3E0BF2EA5E34C
:104FC000CA2EA2E0DA2E6F2D600F88E00E94530CEB
:104FD00081E00E94640BF5016591749183E396E092
:104FE0000E940F3361E10E94ED0A81E00E94760B7E
:104FF000F601619171916F0121E041E081E6800F3E
:105000000E94411B802F8B7F09F068CFF6016485D9
:10501000758521E041E088E6800F0E94411B0F5F0B
:10502000F2E0AF0EB11C073071F649E465E08AE0AA
:10503000810F0E946B0C6CE0610F85E00E94530CA5
:1050400084EF91E00E949D0F8CE193E00E94AB04FD
:105050008AEF91E00E949D0F8EE093E00E94AB04E6
:105060008DE60E94280E84E093E00E94AB048EE659
:105070000E94280E88EF92E00E94AB0443E068E0B3
:105080008DE0810F0E946B0C6EE0610F85E00E9445
:10509000530C8FE60E94280E8CEE92E00E94AB0427
:1050A00084E092E00E949D0F8EED92E00E94AB049E
:1050B00082E20E942B0B81E00E94640B8091D70258
:1050C00090E001960E94A10D80E00E942B0B83E0EE
:1050D0000E9460098AE092E00E949D0F8DEC92E0B0
:1050E0000E94AB040E94980A68E08FE60E940E09B5
:1050F00018160CF402CF0E94250A9BCA60E08D3678
:1051000019F08E3619F461E08FEF27CF81330CF45C
:105110009EC285334CF481538093D70290E00E9465
:1051200045110E9453221BCF893344F08F3609F07A
:1051300016CF8DE492E00E94B711E9CE082E000C44
:10514000990BC5970E947A220ACF8EE395E00E94C0
:10515000B7118091D60290E00E94A9226ACA80917C
:10516000D2020E947B098093D2028093000194CBEB
:105170008091D8020E947B098093D8028DCBAA240B
:10518000A39480E192E00E94460E20E0482F6A2D11
:10519000892D0E944F1F8F5F0E94672001E0080F3A
:1051A00043E068E00E946B0C602F85E00E94530C86
:1051B00088E60E94280E83E194E00E94AB04602FF1
:1051C0008EE10E94530C4A2D11E01A25612F89E6C9
:1051D0000E94370E85E094E00E94AB04602F83E3C9
:1051E0000E94530C412F6A2D8AE60E94370E8AEFE7
:1051F00093E00E94AB0480E00E94640B0E94980A36
:1052000069E08AE60E940E09182F4A2D692D0E9436
:1052100081218111ECC1193609F413CB1A3609F436
:10522000AECF183609F0E0C110E01C8A1B8A1A8A3A
:105230001B861C861D861E861F86412C512C320122
:10524000312C212CF12CD12C1F82188619861A861C
:1052500036E1939EC0011124FC01E659FC4FF88F02
:10526000EF8B05C03C842D84FE84DF8411E06DEE5D
:1052700073E08FEB95E00E940F33EF89F88D80810A
:10528000813009F4E9C008F4BDC0823009F4EBC0F4
:105290008FEB95E00E94460E082F111104C06A2D75
:1052A000892D0E94591021E0402F6A2D892D0E94DE
:1052B0004F1FCC24C394C80E682F85E00E94530C66
:1052C0002B8520FB80F83A8930FB81F8E89482F83E
:1052D00020FB83F88B8980FB84F89C8990FB85F800
:1052E000E89486F8082D017080FE07C081E60E94D0
:1052F000280E88EC93E00E94AB04182D127081FEFA
:1053000007C082E60E94280E85EB93E00E94AB0462
:1053100082FE07C083E60E94280E87EA93E00E947F
:10532000AB0443E068E08C2D0E946B0CB82EC82EB5
:1053300083FE15C0682F85E00E94530C84E60E940E
:10534000280E88E993E00E94AB04CC24C394CB0CD4
:10535000432D522D6F2D7D2D8B2D0E94B11D84FE6E
:1053600013C06C2D85E00E94530C85E60E94280E28
:1053700089E893E00E94AB044C855D856E857F854E
:105380008C2DC3940E94B11D85FE13C06C2D85E049
:105390000E94530C86E60E94280E81E893E00E944A
:1053A000AB044F81588569857A858C2DC3940E9402
:1053B000B11D86FE10C06C2D85E00E94530C87E65F
:1053C0000E94280E88E793E00E94AB04B301A2017B
:1053D0008C2D0E94B11D0E94980A60E087E60E9411
:1053E0000E098E83843609F4D3C00CF060C0813678
:1053F00009F46EC0823609F4AEC02E8112160CF08C
:10540000C0CE34CF67EE73E08BEC95E00E940F3393
:1054100011113ECFF0917405FC87209175052D8701
:10542000309176053E87809177058F8791E09B8B41
:10543000E1E0EB8750EA452E56E8552E662463944A
:10544000712C68E0362E72E5272EF12CD12C1F82AC
:10545000188619861A861CCF61EE73E08BEC95E0F6
:105460000E940F3315CF6BED73E08BEC95E00E943B
:105470000F3311110DCFF0917C05FC8720917D0534
:105480002D8730917E053E8780917F058F8791E043
:105490009C8BE1E0EA8BF1E0FB87412C512C32013F
:1054A00020E6322E32E8232E4BE3F42ECFCFEE81CE
:1054B000E63609F479C00CF4D5CEE73609F09DCF75
:1054C00041E0C301B2010E94EA172B013C01CECE9C
:1054D000002309F4CBCE232D322D4F2D5D2D6A2DC7
:1054E000892D0E94D81D672B682B692B09F4BECE2D
:1054F0001E8A032D122D2F2D3D2DB12CC12C188A63
:10550000198A81E08D8B84E0E82E4A2D692D84E490
:1055100091E00E94DE2081E0FD898F1708F052C0E3
:105520002B2D3C2D488959896A2D892D0E94D81D23
:10553000672B682B692B09F443C0EE880B2D1C2DBB
:10554000288939894A2D692D84E491E00E94DE2062
:1055500081E08F5FE1CF112309F488CE2F81388558
:1055600049855A856A2D892D0E94D81D672B682B85
:10557000692B09F47BCEB32CC22CF88AD98A0F810F
:10558000188529853A8594E09E8BE2E0ED8BBBCFB0
:1055900041E0632D722D8F2D9D2D0E94EA17362E2E
:1055A000272EF82ED92E62CE41E06F81788589852D
:1055B0009A850E94EA176F83788789879A8756CEE3
:1055C00082E0C7CF1091D9020E94D0158091D902F4
:1055D000811710F40E94D0158091D402882309F419
:1055E0000CCF0E94D82209CF9FEC992E910E111654
:1055F0000CF4C7CDEBCA4091020150910301E12C9C
:1056000000E020E060910401809105010E9485077F
:105610002B013C01609174047091750480917604B3
:10562000909177040E9485188CE895E00E94B7114C
:105630000E94E20F640D751D861D971D9BCA813067
:1056400009F03EC90FCB913009F064CB59CB8130C2
:1056500009F45DCC84CC1F920F920FB60F921124E7
:105660002F933F938F939F93AF93BF9380916C053C
:1056700090916D05A0916E05B0916F0530916B050D
:1056800023E0230F2D3758F50196A11DB11D20935E
:105690006B0580936C0590936D05A0936E05B09398
:1056A0006F058091700590917105A0917205B09180
:1056B00073050196A11DB11D80937005909371052E
:1056C000A0937205B0937305BF91AF919F918F9195
:1056D0003F912F910F900FBE0F901F90189526E8C5
:1056E000230F0296A11DB11DD2CF1F920F920FB6AC
:1056F0000F9211242F933F934F935F936F937F9358
:105700008F939F93AF93BF93EF93FF9384E496E0BF
:105710000E943C04FF91EF91BF91AF919F918F91B7
:105720007F916F915F914F913F912F910F900FBE9D
:105730000F901F9018951F920F920FB60F92112481
:105740002F938F939F93EF93FF93E0915406F091E3
:1057500055068081E0915A06F0915B0682FD1BC0E0
:10576000908180915D068F5F8F7320915E06821716
:1057700041F0E0915D06F0E0EC5BF94F958F80938E
:105780005D06FF91EF919F918F912F910F900FBE2A
:105790000F901F9018958081F4CF1F920F920FB633
:1057A0000F9211242F933F934F935F936F937F93A7
:1057B0008F939F93AF93BF93EF93FF938091B90023
:1057C000887F803609F44AC0F0F5883209F4A7C012
:1057D00018F5803109F49BC0B8F4882309F4F9C0A6
:1057E000883009F494C0FF91EF91BF91AF919F91E0
:1057F0008F917F916F915F914F913F912F910F907A
:105800000FBE0F901F901895883109F488C0803220
:1058100051F78093070614C0803409F49DC040F40A
:105820008033B9F38833F9F68093070685ECB0C06E
:10583000803509F485C0883509F496C0883499F616
:105840000E947F11D0CF883909F48CC038F5883791
:1058500029F050F4883611F0803729F683E08093E0
:1058600009061092C80257C0883809F47BC08039F5
:1058700019F0803809F0B7CF8091C802803208F063
:1058800071C0E091C80281E08E0F8093C8028091C0
:10589000BB00F0E0E855FD4F80833DC0803B39F010
:1058A000E0F4803A09F479C0883A09F09CCF84E0AA
:1058B000809309061092A7021092A602E091CB02F3
:1058C000F091CC0209958091A60281110FC081E070
:1058D0008093A6021092860209C0803C09F4A6CFEC
:1058E000883C09F4A3CF883B09F07DCFE091A70263
:1058F00081E08E0F8093A702F0E0EA57FD4F808190
:105900008093BB009091A7028091A60229C080914C
:10591000E4058093BB0085EC8093BC0064CF90913C
:10592000060680910506981758F5E091060681E075
:105930008E0F80930606F0E0EB51FA4F8081E9CF9D
:10594000E091060681E08E0F809306068091BB00F1
:10595000F0E0EB51FA4F80839091060680910506A6
:105960009817C8F285E8D8CFE091060681E08E0F3F
:10597000809306068091BB00F0E0EB51FA4F8083E4
:105980008091080681115CCF81E08093E30584EA71
:105990008093BC001092090626CF85EC8093BC0052
:1059A000109209068091C802803230F4E091C8025A
:1059B000F0E0E855FD4F10826091C80270E0E09180
:1059C000C902F091CA0288EA92E009951092C802D1
:1059D0000ACF1092070634CFE4E4F6E01382128275
:1059E00088EE93E0A0E0B0E084839583A683B7833C
:1059F00022E231E03183208325EC30E035872487B3
:105A000024EC30E03787268720EC30E0318B208B88
:105A100021EC30E0338B228B22EC30E0358B248B71
:105A200026EC30E0378B268B118E128E138E148E5F
:105A3000E1EEF6E01382128284839583A683B78316
:105A400084E391E0918380830895CF93DF93CDB772
:105A5000DEB769970FB6F894DEBF0FBECDBF78945E
:105A600084B5826084BD84B5816084BD85B5826063
:105A700085BD85B5816085BD80916E008160809314
:105A80006E0010928100809181008260809381007D
:105A9000809181008160809381008091800081608D
:105AA000809380008091B10084608093B1008091E8
:105AB000B00081608093B00080917A008460809310
:105AC0007A0080917A00826080937A0080917A00D7
:105AD000816080937A0080917A00806880937A0058
