:100000000C94DC020C9404030C9404030C9404037D
:100010000C9404030C9404030C9404030C94040344
:100020000C9404030C9404030C9404030C94040334
:100030000C9404030C9404030C9404030C94040324
:100040000C94332B0C9404030C94A32B0C947D2B55
:100050000C9404030C9404030C9404030C94040304
:100060000C94D52B0C94040344455700434F3200A5
:1000700048554D00436972632E00496E74616B658B
:100080000045786861757374005254440070706D57
:100090000072482500C2B043005802840384034E16
:1000A000616D652C004F2C742C30004F2C4465770B
:1000B0002C31004F2C542C31004F2C48554D2C31F5
:1000C00000532C63004C2C31000100016472790054
:1000D000686967682C006D69642C006C6F772C0070
:1000E00043616C003A2000C2B043005D20403A00FA
:1000F0005B00455252000001030256616C3A200039
:10010000455252002056005374617475733A2000B2
:10011000536C61766520403A2000446F2028417579
:10012000746F2D29416464726573732865732900A7
:10013000283173742920284175746F2D2941646416
:1001400072657373203D2000446F20284175746FE1
:100150002D294E616D6528732900284175746F2D16
:10016000294E616D65203D200044656C65746520F5
:100170004E616D6528732900436C6561722043618F
:100180006C6962726174696F6E2873292020202067
:1001900020005265736574202020202000493243DE
:1001A0002C003D20002D50742E200020746F205311
:1001B000657474696E672D4E6F2E205B312D335D33
:1001C00000290020280020436F70792046554C4CB0
:1001D0002053455454494E4720007C20202054652C
:1001E0006D705254442020207C20202054656D7076
:1001F00048554D2020207C20202048756D69646979
:1002000074792020207C2020202020434F32202081
:10021000202020207C2020446577696E6720506F65
:10022000696E7420207C0000000000230026002955
:10023000007E007E003C007E003C007E003E003ED2
:10024000003A2000426F6F7420466F72205465722E
:100250006D696E616C2055736500426F6F7420414B
:1002600073204D6F6442555320536C617665202096
:1002700020202000890070006C0068004661696CD5
:100280005361666500746F6F4C6F772020207C206F
:100290002020204C6F7720202020207C2020202030
:1002A00048696768202020207C2020746F6F48698F
:1002B00067682020207C00204F4B2D5374657020F0
:1002C000200044656C617954696D65730020436F4B
:1002D0007079546F536574205B312D345D00205369
:1002E000656C656374536574203D200045646974D2
:1002F0004E616D652020200052756E416C6C436527
:100300006E742E0052756E414C4C202020002052FD
:10031000756E53696E676C65202020002045646906
:100320007420202000890081007A00740070006C25
:10033000006800207C202020202020204C4F5720C7
:100340002020202020207C202020202020484947D9
:1003500048202020202020207C20202020202056E3
:10036000616C75652020202020207C002D44756D57
:100370006D794E616D652D0053657420486967681D
:1003800000536574204C6F770053657420415647C5
:10039000204173204D6964005365742053696E6772
:1003A0006C652F4D696400446F20332D50742E20EE
:1003B00043616C2E00446F20322D50742E20436117
:1003C0006C2E202020202000446F20312D50742ED0
:1003D0002043616C2E202020202000434F32202D0E
:1003E0000048554D202D00525444202D002D20430F
:1003F000616C696272617465200053656C65637439
:1004000020414C4C0053656C6563742053696E67E2
:100410006C650043616C6962726174696F6E287308
:10042000292E2E2E002053656C2E53657474696E30
:1004300067205B312D335D203D2000536574746966
:100440006E672D4E616D65203D20004D616E7561BA
:100450006C2E2E2E0054696D657320262053746512
:1004600070732E2E2E2020200056616C7565732E21
:100470002E2E202020004D6F72652E2E2E20202043
:1004800000417344656661756C74004B6579436F18
:100490006C6F7220202000436F6C6F722020200050
:1004A00044696D005370656564203D2000416464BB
:1004B000722E203D200054696D652020200044618B
:1004C0007465202020005265426F6F742020200048
:1004D00052655363616E2020200048003B001B5B87
:1004E000001B5B324A006D001B5B001B5B316D0023
:1004F0001B5B32326D0044001B5B0043001B5B0042
:100500001B5B376D001B5B346D002040200020001A
:100510001B5B32346D003A002900207C20001B3721
:10052000001B5B32376D001B38003E3E2000000090
:100530000000240027002A000000000025002800F9
:100540002B00040404040404040402020202020254
:100550000303030303030102040810204080010287
:100560000408102001020408102000000008000206
:1005700001000003040700000000000000009500D7
:1005800091008D0095009500202020002020202043
:1005900053656C656374206B65792C206F72204500
:1005A0006E74657228666F722072657475726E293A
:1005B0002E2E2E000A00F42C11241FBECFEFD8E0FF
:1005C000DEBFCDBF26E0AAE2B2E001C01D92AD3D84
:1005D000B207E1F712E0A0E0B1E0EEE2FAE602C015
:1005E00005900D92AA32B107D9F712E0CCEDD2E016
:1005F00004C02197FE010E94D634CB3DD107C9F734
:100600000E942D2D0C9415350C94000080918905C5
:1006100090918A05891B990B0895833081F028F405
:10062000813099F08230A9F008958730A9F08830A0
:10063000C9F08430B1F4809180008F7D03C0809137
:1006400080008F7780938000089584B58F7784BD74
:10065000089584B58F7DFBCF8091B0008F77809314
:10066000B00008958091B0008F7DF9CF1F93CF9394
:10067000DF93282F30E0F901E659FA4F8491F90110
:10068000EA5AFA4FD491F901EE5BFA4FC491CC23A8
:10069000A9F0162F81110E940D03EC2FF0E0EE0F50
:1006A000FF1FE85CFA4FA591B4918FB7F894EC91D5
:1006B000111108C0D095DE23DC938FBFDF91CF915D
:1006C0001F910895DE2BF8CF3FB7F89480915C0519
:1006D00090915D05A0915E05B0915F0526B5A89B40
:1006E00005C02F3F19F00196A11DB11D3FBFBA2FC4
:1006F000A92F982F8827BC01CD01620F711D811D84
:10070000911D42E0660F771F881F991F4A95D1F708
:1007100008958F929F92AF92BF92CF92DF92EF9205
:10072000FF926B017C010E9464034B015C01C114C8
:10073000D104E104F104B9F00E9464036819790955
:100740008A099B09683E73408105910580F321E089
:10075000C21AD108E108F10888EE880E83E0981EDD
:10076000A11CB11CE4CFFF90EF90DF90CF90BF9021
:10077000AF909F908F90089508950895AF92BF9283
:10078000CF92DF92EF92FF920F931F93CF93DF935D
:100790006C017B018B01040F151FEB015E01AE188C
:1007A000BF08C017D10759F06991D601ED91FC91AE
:1007B0000190F081E02DC6010995892B79F7C501DB
:1007C000DF91CF911F910F91FF90EF90DF90CF902D
:1007D000BF90AF900895FC01538D448D252F30E0DC
:1007E000842F90E0821B930B541710F0CF9608953E
:1007F00001970895FC01918D828D981761F0A28D6B
:10080000AE0FBF2FB11D5D968C91928D9F5F9F7330
:10081000928F90E008958FEF9FEF0895FC01918DE6
:10082000828D981731F0828DE80FF11D858D90E053
:1008300008958FEF9FEF0895FC01918D228D892FF0
:1008400090E0805C9F4F821B91098F7399270895D8
:1008500080E396E00E941C0421E0892B09F420E04B
:10086000822F089580E090E0892B29F00E942804CF
:1008700081110C9400000895FC01A48DA80FB92FDC
:10088000B11DA35ABF4F2C91848D90E001968F73B8
:100890009927848FA689B7892C93A089B1898C91D7
:1008A000837080648C93938D848D981306C0028826
:1008B000F389E02D80818F7D80830895EF92FF92F0
:1008C0000F931F93CF93DF93EC0181E0888F9B8D73
:1008D0008C8D98131AC0E889F989808185FF15C02D
:1008E0009FB7F894EE89FF896083E889F989808150
:1008F0008370806480839FBF81E090E0DF91CF911F
:100900001F910F91FF90EF900895F62E0B8D10E040
:100910000F5F1F4F0F731127E02E8C8D8E110CC0AF
:100920000FB607FCFACFE889F989808185FFF5CFFA
:10093000CE010E943C04F1CFEB8DEC0FFD2FF11D99
:10094000E35AFF4FF0829FB7F8940B8FEA89FB8937
:1009500080818062CFCF0F931F93CF93DF938C0161
:10096000D0E0C0E0F801EC0FFD1F6491662341F078
:1009700080E396E00E945E04892B11F02196F2CF6D
:10098000CE01DF91CF911F910F910895682F80E3E1
:1009900096E00C945E04CF93DF93EC01888D88235E
:1009A000B9F0AA89BB89E889F9898C9185FD03C0D2
:1009B000808186FD0DC00FB607FCF7CF8C9185FFB7
:1009C000F2CF808185FFEDCFCE010E943C04E9CFBC
:1009D000DF91CF9108952091A602260F3327331F70
:1009E00021323105ECF42091F505FC0190E080E026
:1009F000243069F082E00895A091A6022191AC0113
:100A00004A575D4FA40FB52FB11D2C930196861741
:100A100098F38091A602680F6093A60280E0089583
:100A200081E008951092F50581E08093F40510921D
:100A3000CF0561E082E10E94360361E083E10E941C
:100A40003603E9EBF0E080818E7F808380818D7FAB
:100A5000808388E48093B80085E48093BC00089587
:100A6000CF93DF9391E0909385028823B9F0C091F2
:100A7000B800D091BA008091BC008A7B8093BC0002
:100A800060E082E10E94360360E083E10E94360369
:100A90000E941205D093BA00C093B800DF91CF91A5
:100AA00008958F929F92AF92BF92CF92DF92EF9272
:100AB000FF920F931F93CF93DF93D0911E06D132F5
:100AC00008F0D7C0182FC0911D060E9464036B0167
:100AD0007C018091F50581116BC082E08093F50562
:100AE0001093F4058FEF8093F3051092F205D093E5
:100AF000F105ADEFB5E0E1EDF5E080E0D81391C090
:100B00001092D0058091D005CC0FC82BC093D00592
:100B10008091CF05813009F088C01092CF050E94E6
:100B200064036B017C018091D0058093BB008091B0
:100B3000F7059091F805A091F905B091FA05892B78
:100B40008A2B8B2BA1F00E9464030091F705109172
:100B5000F8052091F9053091FA056C197D098E0987
:100B60009F09061717072807390708F442C0809124
:100B7000BC0083FDD8CF85EC8093BC000E94640349
:100B80006B017C018091F505823009F450C08091A1
:100B9000F3058F3F09F46FC08091F305803209F4AB
:100BA0006CC08091F305803309F469C084E026C0ED
:100BB0008091F7059091F805A091F905B091FA059B
:100BC000892B8A2B8B2B09F484CF0E94640380909D
:100BD000F7059090F805A090F905B090FA056C190A
:100BE0007D098E099F0986169706A806B90608F0A2
:100BF00070CF8091F6050E94300585E01092FC05CB
:100C000010921E061092FB05DF91CF911F910F915C
:100C1000FF90EF90DF90CF90BF90AF909F908F901C
:100C200008959D9191938F5F69CF85EEA5CF8091B7
:100C3000F7059091F805A091F905B091FA05892B77
:100C40008A2B8B2B09F49ECF0E9464030091F70539
:100C50001091F8052091F9053091FA056C197D097C
:100C60008E099F09061717072807390708F08ACF4A
:100C7000C0CF81E0C3CF80E0C1CF82E0BFCF83E0AF
:100C8000BDCF0895E0918A0580918905E81730F479
:100C9000F0E0E557FA4F808190E008958FEF9FEFE5
:100CA000089590918A05809189052FEF3FEF98175D
:100CB00048F4E92FF0E0E557FA4F208130E09F5FDC
:100CC00090938A05C9010895CF92DF92EF92FF9227
:100CD0000F931F93CF93DF937C01CB018A01209167
:100CE000FB05222389F0EB016B01C40ED51ECC1548
:100CF000DD0569F06991D701ED91FC910190F081DA
:100D0000E02DC7010995F3CF642F0E94EB04C801C1
:100D1000DF91CF911F910F91FF90EF90DF90CF90D7
:100D20000895CF93DF931F92CDB7DEB769832091EB
:100D3000FB052223F9F020911E06203258F021E015
:100D400030E0FC013383228390E080E00F90DF915C
:100D5000CF9108958091FC05E82FF0E0E350FA4F21
:100D6000998190838F5F8093FC0580931E0681E0BC
:100D700090E0ECCF61E0CE0101960E94EB04F7CF4A
:100D800090E080E008959C0164E670E00E94873462
:100D9000FC01C90183709927892B11F4309779F4EC
:100DA000C90160E971E00E9487349C01EF2B11F4C6
:100DB000892B19F481E0232B09F080E0089581E06C
:100DC0000895863029F034F4823051F0843031F4C3
:100DD0008EE108958930E1F38B30D1F38FE10895EE
:100DE000CB010E94C306882311F08DE108958CE1A8
:100DF00008952F923F924F925F926F927F928F92BF
:100E00009F92AF92BF92CF92DF92EF92FF920F9399
:100E10001F93CF93DF932B013C011A014901E80195
:100E200087EE97E09983888340E853E361EE71E0B1
:100E30004415550566057705B0F4888199810196BA
:100E400099838883441A550A660A770A0E94C30662
:100E500040E450E761E370E08111EACF40EC5EE1ED
:100E600060E370E0E5CF81E0F401808360E87EED2F
:100E700088E290E06415750586059705B0F4F401E5
:100E800020812F5F2083461A570A680A790A6881F1
:100E90007981822F0E94E106A82FB0E020E831E599
:100EA00041E050E00E943634E5CFC301B20120E8B2
:100EB00031E541E050E00E9414342F5FF1012083BE
:100EC00020E13EE040E050E00E941434F70120832E
:100ED0002CE330E040E050E00E941434F60120831F
:100EE000F5016083DF91CF911F910F91FF90EF90FB
:100EF000DF90CF90BF90AF909F908F907F906F903A
:100F00005F904F903F902F9008954F925F926F9215
:100F10007F928F929F92AF92BF92CF92DF92EF9289
:100F2000FF920F93CF93DF93C82FC62E3A01D22F93
:100F300097EE492E97E0592E812C912C540146149E
:100F40005704C0F4C2010E94C30681110CC020E8FE
:100F5000821A2CEC920A2EE1A20A2EEFB20A4FEF6F
:100F6000441A540AECCF3BE7931A3DE1A30A3EEF43
:100F7000B30AF5CF44244394512CD12C4C145D0476
:100F8000A4F4B301842D0E94E106A82FB0E020E86C
:100F900031E541E050E00E943634860E971EA81ECF
:100FA000B91E5FEF451A550AE9CF202F30E0ACE3B8
:100FB000B0E00E9478349B01AC012E0D311D411D23
:100FC000511D69017A012D2F30E0A0E1BEE00E94A1
:100FD0007834C60ED71EE81EF91E4C2F4150550B13
:100FE000DA0120E831E541E050E00E94CE346C0D9A
:100FF0007D1D8E1D9F1D680D791D8A1D9B1DDF9116
:10100000CF910F91FF90EF90DF90CF90BF90AF9076
:101010009F908F907F906F905F904F9008950F9367
:101020001F938FB7F89440915805509159056091DE
:101030005A0570915B058FBF009181021091820269
:101040002091830230918402DB01CA0140175107CD
:101050006207730718F40197A109B109801B910B6E
:10106000A20BB30B00917D0210917E0220917F02B2
:1010700030918002800F911FA21FB31F883E23E092
:101080009207A105B10508F4C7C0409381025093AF
:1010900082026093830270938402885E9340A10968
:1010A000B10980937D0290937E02A0937F02B0935A
:1010B00080028091790290917A02A0917B02B09196
:1010C0007C020196A11DB11D8093790290937A0252
:1010D000A0937B02B0937C02809178028F5F809313
:1010E00078028C3339F480917702109278028F5F06
:1010F00080937702809177028C3339F48091760265
:10110000109277028F5F8093760280917602883109
:1011100059F41092760280917402909175020196B2
:101120009093750280937402809173028F5F809315
:10113000730240917404509175046091760470912B
:1011400077044F5F5F4F6F4F7F4F4093740450930E
:10115000750460937604709377048C3339F480912E
:101160007202109273028F5F8093720280917202FA
:101170008C3339F480917102109272028F5F8093E8
:10118000710280917102883121F081E01F910F91ED
:10119000089510927102909105019F5F909305014F
:1011A00080910401823009F59D3170F08091020137
:1011B000909103010E94C306811106C081E08093D3
:1011C000050183E080930401809104018D30E9F6EC
:1011D00081E08093040180910201909103010196C6
:1011E0009093030180930201D0CF863019F020F450
:1011F000843031F42FE105C08930E1F38B30D1F335
:1012000020E2022E000C330B92171306E9F691E050
:10121000909305018F5FD6CF80E0B8CFCF92DF9259
:10122000EF92FF920F931F93CF93DF93CFEFDCE307
:10123000E62EF12C082F10E068018FE1C81AD108C2
:10124000DD23A1F10E940F088111D15080E396E0C7
:101250000E941C04892BA1F380E396E00E94FA030C
:10126000C82F803304F1082E000C990B9C012053E9
:101270003109E216F306D4F4C1369CF008171907B9
:10128000ACF48C159D0594F0CB3179F0CB3271F034
:10129000CD3261F0DCE38C2F8D7F8C3339F0CFEFD2
:1012A000D1CFC13474F7CD3079F7C0E08C2FDF9106
:1012B000CF911F910F91FF90EF90DF90CF90089505
:1012C000CF93C82FC15020F080E20E94C604FACF0D
:1012D000CF91089581E00C946009CF93C82F0E94AC
:1012E0006A098C2F0E94C604CF910C946A0980E091
:1012F00095E00C94AB04813671F02AE5853261F0FB
:10130000882349F021E0280F93EE980F983020F0C1
:101310008955883008F02EE1822F0895613091F4CC
:10132000E6E1E49FD0011124A659BC4FE89FF001EB
:101330001124E659FC4F81E02C919081291729F066
:1013400080E003C081E06230D9F708954F925F9248
:101350006F927F92AF92BF92CF92EF920F931F93B3
:10136000CF93DF9300D000D0CDB7DEB72B013C0187
:1013700029833A834B835C838E2DF501108240E0F4
:1013800050E0BA01411451046104710461F04091CC
:101390007404509175046091760470917704441937
:1013A000550966097709A02FB0E0AA0FBB1FA85402
:1013B000BB4F0D911C9130E020E004171507260764
:1013C000370778F4401B510B620B730B09811A81AC
:1013D0002B813C810417150726073707D8F091E0C9
:1013E0009083C1101BC08E5F60810E943603C301D1
:1013F000B2010F900F900F900F90DF91CF911F913E
:101400000F91EF90CF90BF90AF907F906F905F90D3
:101410004F900895412C512C3201E3CF8A5FE4CFE5
:1014200096E1899FF0011124E659FC4FE081F0E03C
:10143000EE0FFF1FE756FF4F65917491072E000CCA
:10144000880B990B0C948903CF93C2E060E08C2F3A
:101450000E943603CF5FC231C9F7CF910895FC01D6
:1014600001900020E9F73197AF01481B590BBC01EF
:1014700080E396E00C94BE038F929F92AF92BF924E
:101480000F931F93CF93DF93CDB7DEB7A1970FB61E
:10149000F894DEBF0FBECDBF19A2423008F44AE077
:1014A0008E010F5D1F4F842E912CB12CA12CA50114
:1014B00094010E941434E62FB901CA01EA30F4F411
:1014C000E05DD801EE938D01232B242B252B79F79A
:1014D00090E080E0109719F0CD010E942F0AA196AC
:1014E0000FB6F894DEBF0FBECDBFDF91CF911F9135
:1014F0000F91BF90AF909F908F900895E95CE1CFDE
:10150000009711F00C942F0A90E080E0089582E497
:1015100091E00C942F0ACF93DF930E94AB04EC016F
:101520000E94870A8C0F9D1FDF91CF91089584EB55
:1015300095E00E948B0A8CE895E00C94AB04CF9266
:10154000DF92FF920F931F93CF93DF93EB010990EC
:101550000020E9F72197C61BD70BCC2369F18B013B
:1015600091E09093FB0580931D061092FC0510926C
:101570001E06F12CEC2FE40FFF27FF1F6F018F2DAC
:1015800090E08C159D0554F4800F911FFC01608143
:101590008DEC96E00E949106F394F1CF81E00E94D9
:1015A000510581110BC08C2FDF91CF911F910F91AD
:1015B000FF90DF90CF90089580E0F6CF8FEFF4CFCB
:1015C00096E1899FF0011124E659FC4F40E065E463
:1015D00071E082810C949F0A0F931F93CF938C012B
:1015E000FC0101900020E9F73197E81BF90B6E1B15
:1015F000862F8695C62FC81B0E946009C8010E94CD
:10160000800A8C2FCF911F910F910C946009682F45
:1016100070E090E080E04AE00C943C0ACF93C82F41
:101620008DEF94E00E94AB048C2F0E94070B8BEF90
:1016300094E0CF910C94AB04CF93C82F88EF94E043
:101640000E94AB048C2F0E94070B86EF94E0CF9191
:101650000C94AB04CF93C82F811101C0C7E28091D5
:10166000700281110CC082EE8C0F883030F086EA57
:101670008C0F883010F0C73211F4C093010188EE4E
:1016800094E00E94AB048C2F0E94070B86EE94E03E
:101690000E94AB04C73211F0CF910895C1E3DFCFB0
:1016A000CF93C82F1092700280E00E94630B80914C
:1016B0000101CC2329F081E0809370028091000128
:1016C000CF910C942A0BCF93C82F8091700288235E
:1016D00019F080E00E94500B8BEE94E0C11102C023
:1016E00080EF94E0CF910C94AB04CF93C82F80E0AF
:1016F0000E94630B8AE195E00E94AB04CC2321F0A9
:1017000081E0CF910C94630BCF91089580E00E940B
:10171000750B81E00C941C0BCF93C62F0E946009BF
:1017200081E00E94750B8C2FCF910C946009CF93B0
:10173000C82F80E00E94500B8C2F0E942A0B81E062
:10174000CF910C94630B81110C94970B80E00E9455
:10175000630B80E00C942A0B8091D8020E94A30BAB
:1017600085E095E00C94AB0480E00E942A0B81EEAA
:1017700094E00C94AB048F929F92AF92BF92CF9261
:10178000DF92EF92FF920F931F9324E0829FC0019C
:1017900011249C0128543B4FF901EA58FF4FC080A7
:1017A000D180E280F38038974081518162817381DA
:1017B000709780809180A280B380805A9A4FFC01FC
:1017C00080819181A281B381225B3F4FF901008129
:1017D00011812281338180179107A207B307E4F0BA
:1017E00088159905AA05BB05CCF0C816D906EA06E6
:1017F000FB06B4F0481759076A077B079CF080E2A4
:101800001F910F91FF90EF90DF90CF90BF90AF901E
:101810009F908F900C942A0B84E2F2CF82E2F0CF5B
:101820008FE1EECF81E2ECCF0F931F938230B0F1C6
:1018300024E0829FC00111249C0128543B4FF901F0
:10184000E25AFF4F4081518162817381805A9A4FE1
:10185000FC0180819181A281B381225B3F4FF9011C
:10186000008111812281338180179107A207B3077C
:101870007CF084179507A607B70764F0803896496F
:10188000A849B1054CF480E21F910F910C942A0BEA
:1018900084E2FACF82E2F8CF8FE1F6CF1F910F9169
:1018A0000C94BB0BCF93DF93C82FD62F8EED94E013
:1018B0000E94AB048D2F0E94070B8CED94E00E94D8
:1018C000AB048C2F0E94070B8AED94E0DF91CF913F
:1018D0000C94AB041F93CF93DF93C82F862FD42F84
:1018E000CC2331F011E01C0F6C2F0E94520CC12F41
:1018F000D15020F08DE20E94C604FACF8C2FDF91E8
:10190000CF911F910895CF93C82F81E00E94630B60
:101910008AED91E00E94AB044CE463E08C2F0E94BE
:101920006A0CC82F80E00E94630B8C2FCF91089522
:101930009F92AF92BF92CF92DF92EF92FF920F935E
:101940001F93CF93DF93CDB7DEB729970FB6F894E7
:10195000DEBF0FBECDBF86E0E6E0F1E0DE0111960E
:1019600001900D928A95E1F780910C0190910D0103
:10197000A0910E018F839887A9873AE2C32E32E0A7
:10198000D32E760102E010E0A12CF801E659FA4FBF
:101990008491F801EA5AFA4FB490F801EE5BFA4FDD
:1019A0009490992079F081110E940D03E92DF0E0C7
:1019B000EE0FFF1FE95DFD4FA591B491EC91BE22A2
:1019C00081E009F480E0F70191917F01981721F0FF
:1019D00031978083AA24A3940F5F1F4F083011050D
:1019E000A1F680913002833029F083E080933002A9
:1019F000AA24A39480913102833029F083E080935C
:101A00003102AA24A39480913202833009F49DC04C
:101A100083E080933202CE0101967C0110E0609158
:101A20003402F70181917F010E94520CF6018191ED
:101A30006F01882309F4A2C081E00E94630B812F0B
:101A40000E94140C8FE392E00E94AB0481E00E949C
:101A5000500B8BE392E00E94AB041F5F1430F9F649
:101A60007E01F5E0EF0EF11C9EE2C92E92E0D92E28
:101A700010E060913402F70181917F010E94520CC5
:101A8000F60181916F01882309F488C081E00E94EA
:101A9000630B812F0E94140C89E392E00E94AB0437
:101AA00082E00E941C0B81E00E94500B87E392E0D1
:101AB0000E94AB04113009F06FC08E01095F1F4F07
:101AC00080E3E82E82E0F82E6E01FAE0CF0ED11C02
:101AD00060913402F80181918F010E94520C81E0E3
:101AE0000E94630B80E00E94BB0BF70181917F0194
:101AF0000E94070B80E00E942A0B80E00E94630B8B
:101B000083E392E00E94AB0483E00E941C0B81E31C
:101B100092E00E94AB04C016D106D1F681E080931A
:101B2000330280E029960FB6F894DEBF0FBECDBF1A
:101B3000DF91CF911F910F91FF90EF90DF90CF90A9
:101B4000BF90AF909F900C94A30BA11064CF809195
:101B50003302882309F45FCF29960FB6F894DEBFCD
:101B60000FBECDBFDF91CF911F910F91FF90EF90EE
:101B7000DF90CF90BF90AF909F90089581E00E943A
:101B8000500B8DE392E00E94AB0481E00E94630B56
:101B9000812F0E94140C5DCF11E06BCF81E00E9479
:101BA000500B85E392E084CFCF92DF92EF92FF92C9
:101BB0000F931F93CF93DF93C82F1092AB050E9412
:101BC00064036B017C018091F505811166C081E0A1
:101BD0008093F5058093F4059FEF9093F3051092A1
:101BE000F2059FE19093F1058093D0058091D00597
:101BF000CC0FC82BC093D0058091CF05813009F060
:101C0000A3C01092CF050E9464036B017C018091F8
:101C1000D0058093BB008091F7059091F805A091C5
:101C2000F905B091FA05892B8A2B8B2BA1F00E9424
:101C300064030091F7051091F8052091F9053091A2
:101C4000FA056C197D098E099F09061717072807E1
:101C5000390708F443C08091BC0083FDD8CF85ECE0
:101C60008093BC000E9464036B017C018091F505A8
:101C7000813009F46BC08091F205D0E2803210F41B
:101C8000D091F205A1EDB5E0EBE8F5E080E08D172D
:101C900051F19D9191938F5FFACF8091F7059091CB
:101CA000F805A091F905B091FA05892B8A2B8B2BA9
:101CB00009F489CF0E9464030091F7051091F8059B
:101CC0002091F9053091FA056C197D098E099F095B
:101CD000061717072807390708F075CF8091F60512
:101CE0000E943005D0E010928A05D093890511E05A
:101CF000C0E080918A05D817B1F0C132A4F48DEC10
:101D000096E00E945106112309F445C0813009F480
:101D10003FC0C0E08F3F39F0CFEF8E3F21F0CEEFD4
:101D2000823009F0CCEF81E00E945105882311F048
:101D3000C7FFCDEF8C2FDF91CF911F910F91FF90B7
:101D4000EF90DF90CF90089585EE8ACF8091F705D0
:101D50009091F805A091F905B091FA05892B8A2B8D
:101D60008B2B09F483CF0E9464030091F705109137
:101D7000F8052091F9053091FA056C197D098E0955
:101D80009F09061717072807390708F06FCFA6CF56
:101D9000C0E010E0AECFEC2F0C2E000CFF0BE55591
:101DA000FA4F8083882309F4BECFCF5FEC2FF0E099
:101DB000E555FA4F1082EDCFCF92DF92EF92FF926E
:101DC000CF93DF936C01092E000CEE08FF0897FFFC
:101DD00017C08DE20E94C604EC0166277727CB016D
:101DE0006C197D098E099F094AE00E943C0A8C0FFC
:101DF0009D1FDF91CF91FF90EF90DF90CF900895DE
:101E00004AE0C701B601DF91CF91FF90EF90DF90DC
:101E1000CF900C943C0ACF92EF920F931F93CF93E5
:101E2000DF93182FD42FC22F61110E946A09EE2070
:101E300011F0C11005C080E00E94500B0E94AC0B55
:101E4000DD2319F08D2F0E94C604812F0E94C60445
:101E500088E195E00E94AB04002321F086E195E043
:101E60000E94AB0480E00E94630B80E195E00E9439
:101E7000AB0401110E946A09CC2319F08C2F0E9437
:101E8000C60480E00E942A0BEE20A1F0C11014C00D
:101E900081E0DF91CF911F910F91EF90CF900C9443
:101EA000630B81E0DF91CF911F910F91EF90CF9065
:101EB0000C94500BC110F5CFDF91CF911F910F9172
:101EC000EF90CF900895CF92EF920F93C12CE12C19
:101ED00001E020E040E060E00E940B0F0F91EF90E6
:101EE000CF900895CF92EF920F93C42EE62E01E08B
:101EF00020E040E060E00E940B0F0F91EF90CF9048
:101F00000895CF93DF93EC010E94B40B80E00E9410
:101F10002A0B0E94770961E081E00E94520C81E067
:101F20000E94630B60E5CE010E94EC0A80E00E94F3
:101F3000630B81E295E00E94AB0482E0DF91CF91D8
:101F40000895CF93DF93EC0180E00E94500B0E9434
:101F5000AC0BCE010E94800A80E00E94500B80E111
:101F600095E00E94AB0480E0DF91CF910C94A30B2D
:101F7000CF93C82F682F85E00E94520C87E491E030
:101F80000E94A10F86EC91E00E94AB0482E20E94C5
:101F90002A0B86E395E00E94800A83EC91E00E9480
:101FA000AB048091D60290E001960E94DC0E81EC99
:101FB00091E00E94AB0480E00E942A0B8BEA91E042
:101FC0000E94AB0481E08C0FCF910895FF920F9394
:101FD0001F93CF93DF936BE471E08FE196E00E9453
:101FE0005133F12C00E010E0D0E0C0E00097E9F0C0
:101FF000C330D105E1F00E9423338C33910598F56D
:10200000209761F48831910574F5182F6BE471E025
:1020100090E080E00E9451332196E8CFC130D10595
:1020200011F4082FF3CFF82EF1CF2397E1F4212FED
:1020300030E0A0E1BEE00E9478342CE3029F8001F2
:102040001124012E000C220B330B600F711F821F15
:10205000931F6F0D711D811D911DDF91CF911F91F8
:102060000F91FF90089560E070E0CB01F6CFCF9321
:10207000DF93C82FD62F80E00E946009DD23C9F0CE
:1020800081E00E94500BEC2FF0E0EE0FFF1FE258B2
:10209000FA4F659174918FE196E00E944A330E9455
:1020A000800A83E00E94600980E0DF91CF910C9468
:1020B000500B80E00E942A0BE6CF6F927F928F92A6
:1020C0009F92AF92BF92CF92DF92EF92FF920F93C7
:1020D0001F93CF93DF93CDB7DEB7E6970FB6F89493
:1020E000DEBF0FBECDBF782E662E8AE6C82E83E0F7
:1020F000D82EF12CE12C8091D9028E151F0409F005
:102100000CF460C07E1441F04E2D662D872D0E9488
:102110008E09882309F44FC065EC70E0CE0101966A
:102120000E944A33F6018081813069F020F08230CC
:10213000C9F101E01BC061EC70E0CE010A960E947B
:102140004A3302E013C069EB70E0CE010A960E94A8
:102150004A3363EB70E0CE0143960E944A336BEA48
:1021600070E0CE014C960E944A3304E0CE01019605
:102170005C01912C812C10E080169106B4F440E0B3
:10218000B501F60182810E949F0A6CE271E080E055
:1021900090E00E948903FFEF8F1A9F0A89E0A80E42
:1021A000B11CEACF65EA70E0C8CF6CE271E080E074
:1021B00090E00E9489039FEFE91AF90AE6E1CE0E4A
:1021C000D11C99CFE6960FB6F894DEBF0FBECDBFF7
:1021D000DF91CF911F910F91FF90EF90DF90CF9003
:1021E000BF90AF909F908F907F906F9008950F93C6
:1021F0001F93CF93DF930DEC12E0C8EED3E0CE0136
:102200000E94EE33F80181938F012196C43FF3E0E1
:10221000DF07A9F76091CE027091CF028091D002C2
:102220009091D10220EB34E040E050E00E94143461
:10223000672B682B692B61F080E895E2A0E0B0E0A5
:102240008093CE029093CF02A093D002B093D1029C
:102250008091D602833020F01092D6021092D402E0
:102260008091D702843020F01092D7021092D402CD
:102270008091D5028D3020F01092D5021092D402B8
:102280008091D20280930001DF91CF911F910F9135
:1022900008950F931F93CF93DF9329E2289F800126
:1022A000299F100D1124C5E3D2E000581F4FC8012B
:1022B0008C0F9D1F0E94EE33899382E0CE35D807A4
:1022C000B1F7DF91CF911F910F9108950F931F9355
:1022D000CF93DF932FE8289F8001299F100D1124B1
:1022E000C8EBD4E0005B1340C8018C0F9D1F0E9417
:1022F000EE33899385E0C734D807B1F7DF91CF91EA
:102300001F910F91089585ED8093BC008091F70592
:102310009091F805A091F905B091FA050796A11DD5
:10232000B11D23E0B695A795979587952A95D1F786
:102330002091BC0024FD03C01092F5050895409142
:10234000F7055091F8056091F9057091FA05452B54
:10235000462B472B69F30097A105B10541F025E312
:102360002A95F1F700000197A109B109E1CF809109
:10237000F6050C9430052F923F924F925F926F9228
:102380007F928F929F92AF92BF92CF92DF92EF9205
:10239000FF920F931F93CF93DF937C01FC01019079
:1023A0000020E9F731977E2E781A20E1271518F4DE
:1023B000FC011082712C81E00E94630B8AE295E09F
:1023C0000E94AB0480E00E94630B84E20E942A0B0F
:1023D0008EE195E00E94AB04772049F00E947709D6
:1023E000C7010E94800A81E295E00E94AB04B70118
:1023F0008FE196E00E940535E72DF0E0E15EF94FB0
:102400001082572C172DC12CD12C212C912CC0E0DF
:10241000D0E090E1892E0CE3DD3009F4B1C10E94D7
:102420000F088823C9F00150B9F480E00E942A0BFC
:1024300080E0DF91CF911F910F91FF90EF90DF909F
:10244000CF90BF90AF909F908F907F906F905F9054
:102450004F903F902F90089580E396E00E941C04D7
:10246000892BD1F280E396E00E94FA03D82F412E07
:102470004518772009F493C1992493945C12912C08
:10248000DC2ED70C312E3D18CC24C394C30CDD3088
:1024900009F443C1A4F4D830B1F0DA3009F43DC1F5
:1024A0002C2E80EE8D0F8F3508F0B5CF103108F44B
:1024B0001AC1772009F4AFCFAA24A394DFC0DB317F
:1024C00029F0DF3769F72C2EA12CD8C02C2E6CE018
:1024D00070E080E090E00E94890300E0A12C612C74
:1024E000DBE180E396E00E941C04892B09F44BC0D9
:1024F000639480E396E00E94FA03D82F6CE070E0CA
:1025000080E090E00E948903F3E06F1651F1F61528
:1025100058F021E06216A9F032E06316A9F0AA246F
:10252000A394DFCF342CD3CF84E0681641F195E03B
:102530006912F5CF8FEB8D0F843088F70FE70D0F01
:10254000D0CFDB3561F7CDCFD53334F4D33314F4AA
:10255000D13329F70D2FC5CF8FEB8D0F8430F8F6CF
:10256000F9CFDB3309F4BDCFDE37C9F6013309F407
:10257000B8CFA8F28DEC800F823088F6B2CFD2337C
:1025800009F4AFCFCCCF662009F44FCFA11043CFD1
:10259000033409F456C0E0F4043389F058F40133ED
:1025A00009F449C0033309F45EC0772009F433CF3E
:1025B000412C0AC0013409F43EC00234B1F7642C46
:1025C000772009F44EC04318642C650C712C7AC036
:1025D000013C69F168F4043409F43BC0003C29F77C
:1025E000652C6194552009F416CF71105DC012C09E
:1025F000023C49F0033CC9F641E0511001C040E003
:10260000642E619405C066246394411001C0612C5E
:10261000711047C0662009F4DFC0762C652C670C6A
:10262000C52D17140CF44EC07194C62D4BC0642CEC
:102630004110DBCFF0CE772009F4CCC04C2E4518EA
:10264000C3CF7110C0CF6624639441100AC0612CBF
:1026500008C07110F3CF41E0511001C040E0642E7A
:102660006194712C7FC0711009C0511680F7DD2470
:10267000D394D50CC42C252C772473944C2D50E086
:102680006D2D70E0615E794F822D90E0815E994FF3
:102690000E94E1341719622CAA2009F497CF522C1A
:1026A00024C0662009F4B7CE8C2F870D9920A1F0A5
:1026B000C60D6C2EC81718F4982F8C2FC92F7C2E9E
:1026C000781AC82F87E295E00E94AB04772009F4BE
:1026D00085C0C11188C097C0680E862DC61578F7D1
:1026E0008C2FC62DECCF7110E7CE852D90E0FC012C
:1026F000E15EF94F5F01805E994F511680F4442DE1
:1027000050E04F5F5F4FBF010E94E134F501D0837D
:1027100066246394650C1F5F59CF2C2E7CCEFC0180
:102720001082F4CF81E295E00E94AB045C2E570C3E
:10273000852D90E09C01215E394F5901511638F4E6
:10274000F50181915F010E94C6045394F7CF5C2E7E
:10275000882D811B0E94600987E295E00E94AB04EE
:10276000C52D512C662009F456CE560C862D161414
:102770001CF40E940E0B4FCE81950E941C0B4BCE79
:10278000E12FF0E0E15EF94F108280E00E942A0B19
:102790006FE176E0C7010E94053581E04ACE8D30B9
:1027A00009F439CE34F4883051F08A3009F433CE4C
:1027B00078CE8B3109F4B6CE8F3709F072CE552022
:1027C00059F022242A94250CCC24C394C40CD52C73
:1027D000A12C52CF652C44CF712C1DCE512C11232E
:1027E00009F4B6CFC12F8FE1A82E86E0B82E512C68
:1027F000F50181915F010E94C60453945C12F8CFE9
:10280000772009F4A5CF0E9477095C2E2C2F270D85
:102810003327331F5901852D90E08A159B050CF055
:1028200081CF815E994FFC0180810E94C604539440
:10283000F2CF5F926F927F928F929F92AF92BF92F0
:10284000CF92DF92EF92FF920F931F93CF93DF937C
:1028500000D000D000D0CDB7DEB75C01762E542E6C
:10286000622ECE0101966C0186E0D6011D928A95FA
:10287000E9F70AE613E0F12CE12C8091D9028E15DC
:102880001F0409F00CF48CC07E1441F04E2D652D10
:10289000872D0E948E09882309F461C06FE970E0DA
:1028A0008BEA95E00E944A336620C1F0D801EC9192
:1028B000F0E0D601AE0FBF1F8C918F5F8C93EE0FAF
:1028C000FF1FEC58FD4F659174918FE196E00E94D7
:1028D0004A33BC0180EB95E00E9405358BEA882ED7
:1028E00085E0982EF40101900020E9F7CF01B501B1
:1028F00001970E940535662091F0F40101900020B7
:10290000E9F7EC5AF540FF27E555FA4FD8018C91CD
:10291000D601A80FB11D8C91805D808311820E9429
:10292000870AF80182810E94070B8BE491E00E94E4
:10293000800A8BEA95E00E942F0A0E94870A41E0F4
:102940006BEA75E0D80112968C910E949F0A1816C6
:1029500034F460EB75E0C80105960E9405356DE41E
:1029600071E080E090E00E948903F801828191E0AB
:102970009093FB0580931D061092FC0510921E0695
:1029800060E08DEC96E00E949106D80112968C9141
:102990000E945105BFEFEB1AFB0A0A5E1F4F6DCF75
:1029A00026960FB6F894DEBF0FBECDBFDF91CF9154
:1029B0001F910F91FF90EF90DF90CF90BF90AF905D
:1029C0009F908F907F906F905F900895FF920F93EC
:1029D0001F93CF93DF938C01F62E6EE270E00E947E
:1029E000FA34EC01892B11F0F1101BC04AE050E0E1
:1029F00070E060E0C8010E940C328B019C01F7FE80
:102A000008C0A8EEB3E0AC019B010E9436348B01F4
:102A10009C01C901B801DF91CF911F910F91FF90E7
:102A2000089518824AE050E070E060E0C8010E941A
:102A30000C329B01AC01A8EEB3E00E9436348B014E
:102A40009C01F12C37FF09C0309520951095019518
:102A50001F4F2F4F3F4FFF24F394FE01319684E622
:102A600090E0CAE0D0E041914423F9F0181619062D
:102A7000E4F4042E000C550B405351094A30510523
:102A800090F7489FB001499F700D589F700D112419
:102A9000AB01770F660B770B040F151F261F371F2F
:102AA000BE010E949B34CB01DECFFF2009F4B1CFE1
:102AB00030952095109501951F4F2F4F3F4FA9CF6F
:102AC000009721F09093CE058093CD056DE471E0E1
:102AD0008091CD059091CE050E9451330097A1F0D1
:102AE0001092CE051092CD05FC014081242F042EBA
:102AF000000C330B205331092A30310510F04D32D0
:102B000029F76FEF0C94E61460E070E0CB010895B4
:102B1000FF920F931F93CF93DF93082F10E096E15E
:102B2000899FE0011124C659DC4F8A810E94D40D8F
:102B300018168CF58BEA95E00E9460152CE0209F1A
:102B4000F001219FF00D1124E652FD4F6083718347
:102B500082839383FF24F394C801880F991F080F81
:102B6000191FE881F0E0E950FF4FE491FE16D0F420
:102B700090E080E00E946015F801EF0DF11DEE0F6E
:102B8000FF1FEE0FFF1FE652FD4F608371838283AC
:102B90009383F394E6CF80E0DF91CF911F910F9163
:102BA000FF90089581E0F8CF4F925F926F927F92ED
:102BB000BF92CF92DF92EF92FF920F931F93CF932A
:102BC000DF931092D9020E94870AC0E2D0E046E16A
:102BD000D42EBB24B394C7FD71C18091D9028C302F
:102BE00008F06CC180EB8C0F883008F45EC1C836E9
:102BF00009F45BC1DC1372C06DE471E080E090E029
:102C00000E948903D1116CC0B092FB05C0931D06D0
:102C10001092FC0510921E0681E00E945105811160
:102C200044C180E191E00E94AB048C2F0E94070B0D
:102C30008AE30E946D096DE471E080E090E00E94FB
:102C4000890340E06FE471E08C2F0E949F0A082EF8
:102C5000000C990B0E94DC0E8AE30E946D096DE462
:102C600071E080E090E00E9489038C2F0E94D40DD7
:102C7000182F082E000C990B0E94DC0E8AE30E948C
:102C80006D091C5F153008F415C18BEA95E00E94B0
:102C9000800A8AE30E946D098091AB058F3309F0A9
:102CA00009C18091AC05893409F004C1E091D902D1
:102CB000DE9EF0011124E659FC4F118215828091AD
:102CC000AE0501E011E08834A9F0823559F000E04A
:102CD00012E0833479F001E01FEF0CC0DC2F94CFB9
:102CE000D0E09FCF11E08091AF05843509F410E06A
:102CF000119501E0E12E012E000CFF08C7010E9492
:102D0000DC0E0E94870A1F3F09F4D4C0E091D9026B
:102D1000DE9EF0011124E659FC4FC28310838BEA3A
:102D200095E00E9460151091D902D19E9001112466
:102D3000A90146595C4F3A01FA0174836383002369
:102D4000B1F040E061E571E08C2F0E949F0A6DE4D4
:102D500071E080E090E00E9489038C2F0E94D40DE6
:102D600018162CF48091B0058053F301818340E064
:102D700067E571E08C2F0E949F0A6DE471E080E0AE
:102D800090E00E9489038C2F0E94D40D18164CF4F9
:102D90001D9DC001112461EB75E081599C4F0E947B
:102DA000053540E06EE571E08C2F0E949F0A87E0B8
:102DB00091E00E94AB046CE271E080E090E00E9440
:102DC00089038C2F0E94D40D18160CF05EC08091E0
:102DD000B3050E94C60480E40E946D0985EB95E06E
:102DE0000E94800A84E091E00E948B0A8AEF90E0C2
:102DF0000E94AB041091D902812F0E94E00A812F1A
:102E00000E94100A812F0E948815882309F44FC060
:102E1000C12C870109501F4FF8018491C816C0F5D5
:102E2000EC2CF12CE091D9028E2F90E0FC01EE0FFA
:102E3000FF1FE80FF91FEE0DFF1DEE0FFF1FEE0F36
:102E4000FF1FE652FD4F40805180628073804AE050
:102E5000C301B20177FE0BC08DE20E94C604662753
:102E60007727CB0164197509860997094AE00E9402
:102E70003C0AF80184918150990BE816F9061CF47C
:102E80008CE20E946D09C394C7CF80E091E0ACCF83
:102E900086EF90E00E948B0A0E94870A8091D902F7
:102EA0008F5F8093D9028093D502CF5F94CE82EF5B
:102EB00090E0F0CFCD13F9CFC150F7CFDF91CF9194
:102EC0001F910F91FF90EF90DF90CF90BF907F9078
:102ED0006F905F904F900895DF92EF92FF920F9363
:102EE0001F93CF93DF93142FD22F2AE04FE156E0A8
:102EF0000E9488334FE156E0FA0101900020E9F783
:102F0000AF0140525640C42F4430A8F4552784E006
:102F100090E07C01E41AF50A6FE176E0C701815E7A
:102F2000994F0E94E134A70160E370E08FE196E0E1
:102F30000E94F334C4E01D5FD12EDC1A1D14B4F4DA
:102F40004C2F50E06FE176E0ED2C0D2C000CFF08CB
:102F5000C701815E994F0E94E134602F000F770B0B
:102F6000A7018FE196E00E94F334C12F8C2F90E0EF
:102F70008C01045E194F43E050E0B801835E994F25
:102F80000E94E1348EE2F8018083CF5F12E01D0FD2
:102F90001D0D412F4C1B141664F4042E000C550B10
:102FA0008C2F90E060E370E0815E994F0E94F334D3
:102FB000C12FECEFEC0F80E0DD2321F08E2FEDEF41
:102FC000ED0FEC0FF0E0E15EF94F1082DF91CF9151
:102FD0001F910F91FF90EF90DF900895CF92DF92B5
:102FE000EF92FF920F93CF936B017C01C42F442388
:102FF000E9F000E223E041E00E946C176FE176E027
:1030000088E795E00E94053588E795E00E94BB11AE
:10301000882391F06C2F61958FE196E0CF910F910D
:10302000FF90EF90DF90CF900C94E6142AE048E7F1
:1030300055E00E948833E8CFC701B601CF910F91C8
:10304000FF90EF90DF90CF900895CF93DF93EC0146
:10305000688179818A819B8141E00E94EE176883B3
:1030600079838A839B8381E0DF91CF910895CF920A
:10307000DF92EF92FF920F931F93CF93DF93D62FA0
:103080007A01122FC02F282F30E0A8EEB3E00E9463
:10309000783400E320E042E00E946C176FE176E0B4
:1030A00088E795E00E94053588E7C82E85E0D82E90
:1030B000F60112832D2F30E0A8EEB3E00E947834A1
:1030C00020E042E00E946C176FE176E08BE795E02C
:1030D0000E940535F60115839701A8EEB3E00E9422
:1030E000783420E04C2F0E946C176FE176E08EE779
:1030F00095E00E940535EC2FF0E0E858FA4F168273
:10310000DF91CF911F910F91FF90EF90DF90CF90C3
:103110000895AF92BF92CF92DF92EF92FF920F93FA
:103120001F93CF93DF9300D01F92CDB7DEB71982E4
:103130001A821B829E012D5F3F4F59012150310998
:10314000690121503109790110E000E030E020E010
:1031500050E040E00E94F9064B8150E002E02AE393
:103160006A8189810E9437180F900F900F90DF912C
:10317000CF911F910F91FF90EF90DF90CF90BF9074
:10318000AF900895CF92DF92EF92FF920F93CF937B
:10319000DF93C0907902D0907A02E0907B02F090A9
:1031A0007C02C701B6010E948918C701B60120E858
:1031B00031E541E050E00E941434A8EEB3E00E94F3
:1031C000363400E220E043E00E946C1749E050E012
:1031D00068E775E08DE795E00E94E134C8E7D5E047
:1031E00083E0EFE1F6E0DE0101900D928A95E1F7D0
:1031F00084E68B8380E28C83CE01DF91CF910F91A7
:10320000FF90EF90DF90CF900C94800A0F931F9364
:10321000CF93DF93D82FC62F8A010E94770968E1E8
:1032200081E00E94520CDF3F49F589E20E942A0B9F
:1032300084E00E946009C8010E94800A80E00E9428
:10324000630B81E30E942A0B8AE095E00E94AB04A5
:103250000E94C218C11106C0E80109900020E9F7D8
:103260002197C01B88E28C1B0E94600981E295E0D7
:10327000DF91CF911F910F910C94AB0481E00E94DC
:10328000630BD6CFCF93DF93EC016881798190E017
:1032900080E00E94891888E795E00E94BB110E9497
:1032A000E60F79836883DF91CF910895CF93DF9301
:1032B000EC01662331F00E94421981E0DF91CF9149
:1032C00008956881798190E080E040E00E94EE17E7
:1032D00079836883F2CF0F9361E083E40E94520CFC
:1032E0000E9477090E94C21868E18DE30E94520C87
:1032F000409102015091030104E02EE2609104012B
:10330000809105010E94371888E795E00E94800AA5
:103310000E946A094091730250E002E02AE3609142
:103320007202809171020E94371888E795E00E942E
:10333000800A8EE095E00E94AB0481E295E00F9157
:103340000C94AB046F927F928F929F92AF92BF9238
:10335000CF92DF92EF92FF920F931F93CF93DF9361
:10336000CDB7DEB7C155D1090FB6F894DEBF0FBE99
:10337000CDBFD82EC62E89E0EFE0F1E0DE01A75BDD
:10338000BF4F01900D928A95E1F785E691E00E948A
:10339000810F182F61E0680F83E00E94520C82E0D9
:1033A000810F0E94830C182F4CE463E081E0810FB1
:1033B0000E946A0C1093340210923302E5E3F2E0AB
:1033C000DE0111968191919111969C938E9318969E
:1033D00022E0E334F207B1F7809143029091440276
:1033E0009AAF89AF80914B0290914C0223969FAF88
:1033F0008EAF2397FE01319680E0F12CE12CD81698
:1034000019F03FEFD31209C0208131812115310518
:1034100021F0E216F30608F479018F5F38968930BF
:1034200071F7FE01319640E0D41619F05FEFD51226
:103430005BC0208131812115310509F455C081E03F
:10344000C81609F4E4C0C701B9010E9487348B0192
:103450002617370708F48901C901B8010E9487348B
:103460005B01609FC001619F900D709F900D1124C2
:103470008217930718F49FEFA91AB90A0A9DC00191
:103480000B9D900D1A9D900D11242817390738F4C3
:103490000115110509F4C5C001501109DDCFB58230
:1034A000A482C701821B930BB8010E9487347783E3
:1034B00066836A0D7B1D609FC001619F900D709FA8
:1034C000900D11249701281B390BC90196958795FA
:1034D0009383828382819381892B31F486819781C2
:1034E00096958795938382834F5F3896493009F08C
:1034F0009BCF3FEFE31AF30AB12CA12C88E7882E6B
:1035000085E0982EE114F10409F46AC00E940F08C6
:10351000882309F45AC041E0E41AF108B70190E0A9
:1035200080E00E94891864E771E080E895E00E94DD
:103530000535F40101900020E9F7BF016957754096
:1035400048E755E080E00E9406199E01275B3F4F47
:1035500039018E010F5F1F4FC12CDC1419F03FEFB2
:10356000D3121AC0F80180819181892BA9F0828140
:103570009381A816B90680F024813581A501481BE6
:10358000590BCA0166817781620F731F0E948734CD
:1035900061E08217930708F060E08FEF8C0D8330B5
:1035A00020F0F30180810E943603C394FFEF6F1A6D
:1035B0007F0A085F1F4F29E0C212CFCF3FEFA31A47
:1035C000B30A0E946B190E94980C80E396E00E9457
:1035D0001C04892B09F496CF80E396E00E94FA033D
:1035E000CF5ADF4F0FB6F894DEBF0FBECDBFDF91CD
:1035F000CF911F910F91FF90EF90DF90CF90BF90F0
:10360000AF909F908F907F906F900C94240A358399
:103610002483C701821B930B9783868313821282B4
:1036200059CF0E94DC348F929F92AF92BF92EF925B
:103630000F93CF93DF934B015C01C42FD22F8E2DBC
:103640000E94630BDD23C1F02D2F4C2FC501B40167
:103650000E946C17C82F8FE196E00E94800A80E0DC
:103660000E94630B8C2FDF91CF910F91EF90BF9051
:10367000AF909F908F900895A8EEB3E0A5019401BC
:103680000E94363420E04C2FE3CFBF92CF92DF92DE
:10369000EF92FF920F931F93CF93DF93F82EEB01DE
:1036A000B42ED22E11E0209709F010E0C12EE12CAB
:1036B00000E020E240E060E08F2D0E940B0FBE0191
:1036C00090E080E0BB20F1F00E94891888E795E047
:1036D0000E94800ADD20E9F0C12EE12E00E020E00A
:1036E00048E261E080EE8F0D0E940B0F81E0DF91D8
:1036F000CF911F910F91FF90EF90DF90CF90BF90EF
:103700000C94750BE12C00E220E048E00E94131BB2
:10371000E1CF88E895E00E94AB04E8CFEF920F93E9
:103720001F93CF93DF93C82FD62F142F0E94140C12
:10373000612F8D2F0E94520C84E0C89FF00111244C
:10374000E05AFA4F6081718182819381EE24E39483
:1037500000E222E043E00E94131B60E08C2FDF9127
:10376000CF911F910F91EF900C943710EF920F9320
:10377000CF93C82F482F6EE080E00E948E1B4C2F05
:1037800063E281E00E948E1B82E00E94140C6C2F89
:1037900083E30E94520C60916805709169058091E5
:1037A0006A0590916B0528EE33E040E050E00E94FE
:1037B000AF34CA01B901EE24E39400E220E044E012
:1037C0000E94131B60E082E00E9437104C2F62E4DD
:1037D00083E00E948E1B81E08C0FCF910F91EF90C0
:1037E00008952F923F924F925F926F927F928F92A5
:1037F0009F92AF92BF92CF92DF92EF92FF920F9380
:103800001F93CF93DF93CDB7DEB7A1970FB6F89490
:10381000DEBF0FBECDBF888F809118019091190136
:10382000A0911A0189839A83AB8380911B019091A7
:103830001C01A0911D018C839D83AE8320E635E0A1
:103840003F872E87AE014C5F5F4F5F8B4E8BCE0163
:1038500001969D8B8C8B10E0188A123009F4B2C04F
:1038600081E090E0E2E0EB8BEE89FF892191FF8B14
:10387000EE8B298FEC89FD892191FD8BEC8B2F83B9
:103880004AE653E05A8B498BEAEDF2E0F987E88784
:10389000288C412C512C3201812C912C54011A86F8
:1038A0001B861C861D86D12CC12C312C9C01990FA6
:1038B000440B550B2E8F3F8F48A359A38091D902FB
:1038C0008C151D0409F00CF493C0E989FA898081F4
:1038D00081136AC03394E885F98580819181A28142
:1038E000B3812A853B854C855D85280F391F4A1F8A
:1038F0005B1F2A873B874C875D8784819581A681E2
:10390000B781880E991EAA1EBB1E80859185A2854F
:10391000B385480E591E6A1E7B1EF12CA6014F5F0F
:103920005F4F5B8F4A8FC601880F991FFC01EC0D1A
:10393000FD1DFD8FEC8F622D8F810E94520C8A8DB0
:103940009B8D0E94DC0E81E492E00E94AB04EC8D22
:10395000FD8DEF0DF11DEE0FFF1FEE0FFF1FE65265
:10396000FD4F60817181828193812E8D3F8D48A1B1
:1039700059A10E94AF34CA01B901EE24E39400E2D8
:103980002B89498D0E94131B113041F5FF2031F125
:103990002F81235D2F8361E085E08F190E9437100E
:1039A000F394113099F023944FEFC41AD40A898903
:1039B0009A8946969A8B898BE885F9853C96F98792
:1039C000E8877CCF88EE93E01B8A4ECFF2E0FF15AC
:1039D00008F0B1CF4F814C544F83E5CF61E0812F88
:1039E0000E9437101130E1F63F813E503F83D8CF1F
:1039F0003320A1F1C32CD12CF12CE12C6A857B85DD
:103A00008C859D85A70196010E94AF34EE85FF85C8
:103A100020833183428353831130E1F4C501B40123
:103A2000A70196010E94AF34209370053093710571
:103A30004093720550937305C301B201A70196012B
:103A40000E94AF3420936C0530936D0540936E0552
:103A500050936F05F889F31508F4388A1F5F2E8597
:103A60003F852C5F3F4F3F872E87133009F0F5CEFF
:103A7000888D3889830FA1960FB6F894DEBF0FBEEC
:103A8000CDBFDF91CF911F910F91FF90EF90DF900D
:103A9000CF90BF90AF909F908F907F906F905F90EE
:103AA0004F903F902F900895CF93DF930E94B40BD7
:103AB0000E9477098DE791E00E94810FC82F81E273
:103AC00095E00E94AB04D2E0DC0F61E06C0F83E074
:103AD0000E94520C8D2F0E94830CC82F4FE851E09A
:103AE00060E080E00E9406198C2F0E94F11B4CE4DC
:103AF00063E00E946A0C0E94B61B4CE463E00E94E3
:103B00006A0CC82F81E00E94630BC09334021092AC
:103B100033024CE463E081E08C0FDF91CF910C9491
:103B20006A0C8F929F92AF92BF92CF92EF920F93B7
:103B3000962F49015A01C12CE12C00E020E240E01F
:103B400060E0890F0E940B0F00E222E044E0C50113
:103B5000B4010E94131B80E00F91EF90CF90BF90B3
:103B6000AF909F908F900C94750B8F929F92AF9215
:103B7000BF92EF920F93CF93C82F4A015B0185EA62
:103B800091E00E94AB046C2F8DE10E94520C82EAFE
:103B900091E00E94AB04EE24E39400E222E044E0D2
:103BA000C501B4010E94131BCF910F91EF90BF90FC
:103BB000AF909F908F9008952F923F924F925F9277
:103BC0006F927F928F929F92AF92BF92CF92DF922D
:103BD000EF92FF920F931F93CF93DF9300D000D00B
:103BE000CDB7DEB7782E662E19012A0128E7298382
:103BF0001A821C82C12CD12C76018091D9023A8183
:103C0000381770F5032F10E046E1409FF001419F07
:103C1000F00D1124E659FC4F808181111DC08C816B
:103C20008F5F8C83832F0E94E00A8A810E94100A92
:103C30008A810E948815ECE0E09FC001E19F900D11
:103C4000112486529D4FFC0180819181A281B38114
:103C5000C80ED91EEA1EFB1EFA81FF5FFA83CDCF84
:103C60002C81222309F4AEC030E050E040E0C701CF
:103C7000B6010E94AF3449015A01809260059092CA
:103C80006105A0926205B09263050E94870A80E0F8
:103C90000E94500B0E94AC0B80EF90E00E94AB049E
:103CA000E12C00E222E044E0C201B1010E94131BBA
:103CB0008BEE90E00E94AB0480E00E94500B80E10C
:103CC00095E00E94AB0480E00E94A30B0E946A0969
:103CD00022E043E0C501B4010E94131B81E00E9471
:103CE000500B87EE90E00E94AB0480E00E94500BE6
:103CF00083E00E940E0B10E094E1F92E8091D9022E
:103D0000181708F075CF171541F0412F662D872D34
:103D10000E948E09882309F443C0812F0E94E00A83
:103D2000812F0E94100A812F0E948815812F90E018
:103D30009B838A83BC016F5F7F4F072E000C880B2B
:103D4000990BE12C00E320E042E00E94131B84EE7B
:103D500090E00E94AB042CE0EA81FB812E9FC00121
:103D60002F9F900D112486529D4FFC01608171811F
:103D700082819381EE24E39400E222E044E00E94F9
:103D8000131B80E00E94750BFEE0FF0E22E42F154E
:103D900038F40E94870A84E10E940E0B85E1F82E18
:103DA0000E940F08882319F039813150398380E34C
:103DB00096E00E941C04892B71F44981442359F038
:103DC0001F5F9CCF8090600590906105A090620578
:103DD000B090630552CF80E396E00E94FA034B97C0
:103DE00019F4812C912C5401C501B4010F900F904E
:103DF0000F900F90DF91CF911F910F91FF90EF9057
:103E0000DF90CF90BF90AF909F908F907F906F90FA
:103E10005F904F903F902F900895CF92EF92FF9236
:103E20000F931F93CF93DF93EB01142FF22ECC242B
:103E3000C394209709F0C12CE12C00E020E240E07F
:103E400060E00E940B0FFF20A1F0BE0190E080E037
:103E50000E94891888E795E00E94800A1123D9F012
:103E6000DF91CF911F910F91FF90EF90CF900C9425
:103E7000860B9E01A8EEB3E00E94783400E220E0B9
:103E800046E00E946C178FE196E00E94800A82E073
:103E90000E946009E3CFDF91CF911F910F91FF90B6
:103EA000EF90CF9008952F923F924F925F926F9232
:103EB0007F928F929F92AF92BF92CF92DF92EF92BA
:103EC000FF920F931F93CF93DF93082FD62E142FBB
:103ED000322EF12C8F3F19F4FF24F39400E04FE3CE
:103EE00065E0812F0E946A0CCAE6D3E02AED622EBB
:103EF00022E0722E912C812C402E512C26E1029F23
:103F0000C0011124FC01E659FC4F5F018091D902E8
:103F10008815190409F00CF4C0C09881F50180815E
:103F2000981719F0FF2009F4ADC01F5F22242394D5
:103F30004814590419F0D11001C0212C612F85E0DB
:103F40000E94520C31100FC0CC24C394C224E22C26
:103F500000E020E048E260E081E3880D0E940B0F62
:103F600081E00E941C0B81E0222009F493C00E9492
:103F7000630B83E00E940E0BCE0105960E94800A1F
:103F8000612F8AE10E94520C822D0E94750BF30171
:103F9000608171818281938100E222E045E00E948C
:103FA0006C1788810E94140C211003C081E00E94CC
:103FB000500B8FE196E00E94800A80E00E94A30BE4
:103FC00081E00E94500B0E946A09E881F0E0EE0F48
:103FD000FF1FE258FA4F659174918FE196E00E94BD
:103FE0004A330E94800A612F89E20E94520C80E0CD
:103FF0000E94750BE881F0E0EE0FFF1FEC58FD4FBB
:10400000659174918FE196E00E944A330E94800A84
:10401000612F80E30E94520C80E00E94750B6B813F
:104020007C8190E080E000E322E042E00E946C1797
:104030008FE196E00E94800A612F88E30E94520C73
:1040400080E00E94750B2A8130E0A8EEB3E00E9468
:10405000783400E220E043E00E946C178FE196E0A4
:104060000E94800A612F8EE30E94520C89810E9477
:10407000750B89810E94070B80E00E94630B80E032
:104080000E94750BFFEF8F1A9F0A66962CE0620E56
:10409000711C3CCF0E94500B6CCF80E00E94500BF3
:1040A0004FE365E081E0810F0E946A0C82E0810F9E
:1040B000DF91CF911F910F91FF90EF90DF90CF9004
:1040C000BF90AF909F908F907F906F905F904F9038
:1040D0003F902F9008950F93CF93DF93C82F682FB1
:1040E00085E00E94520C81E60E94630F82E991E014
:1040F0000E94AB0482E60E94630F88E791E00E9471
:10410000AB0483E60E94630F89E691E00E94AB0452
:10411000D2E0DC0F43E068E081E08C0F0E946A0C83
:104120006D2F85E00E94520C84E60E94630F8AE5A1
:1041300091E00E94AB0481E00E94630B8EE592E067
:104140000E94800A6D2F8AE20E94520C85E60E942E
:10415000630F88E491E00E94AB0443E068E083E0F1
:104160008C0F0E946A0C64E06C0F85E00E94520C78
:1041700086E60E94630F80E391E00E94AB0481E039
:104180000E94630B20916F0230E0A8EEB3E00E9422
:10419000783400E320E043E00E946C178FE196E062
:1041A0000E94800A85E00E94600987E60E94630FF2
:1041B0008AE191E00E94AB0485E08C0FDF91CF9102
:1041C0000F9108958F929F92AF92BF92CF92DF92FC
:1041D000EF92FF920F931F93CF93DF936C01D62F33
:1041E000F42E48015901CE2D60EE70E08BEA95E087
:1041F0000E944A33EE20E9F18CE28093AE05C33091
:1042000059F150F4C13099F066ED70E0C23089F098
:10421000C53078F5C4E012C0C53031F1C630C1F701
:104220006CEC70E08FEA95E00E944A3322C06BED9F
:1042300070E08FEA95E00E944A33C8E000E322E094
:1042400041E0C501B4010E946C178C2F90E06FE132
:1042500076E085559A4F0BC060ED70E08FEA95E0EF
:104260000E944A33C9E0EACFB6018FEA95E00E9486
:104270000535C0E086E1E82EED9E80011124065947
:104280001C4F8091D902C81798F5CD1739F04C2FE3
:104290006F2D8D2F0E948E09882341F1D801EC915A
:1042A000F0E0E753FF4FE491EE2301F10E94870A0B
:1042B000EC9EC0011124FC01E659FC4F6F01828184
:1042C0000E94070B8BE491E00E94800A8BEA95E044
:1042D0000E942F0A0E94870A40E06BEA75E0D6012F
:1042E00012968C910E949F0AF6011182CF5FC9CF6E
:1042F000DF91CF911F910F91FF90EF90DF90CF90C2
:10430000BF90AF909F908F900895CF92DF92EF92E1
:10431000FF920F931F93CF93DF93D62FF42E833604
:1043200009F46BC09CF4813609F461C00CF09CC0A8
:104330008F5F823008F45FC080E0DF91CF911F91E2
:104340000F91FF90EF90DF90CF900895853609F49C
:104350005FC00CF458C0863609F45EC0873661F73A
:10436000C0916F029AE6C92E93E0D92E10E000E0CA
:104370008091D9028017110609F00CF46CC080EB13
:104380008C0F883008F465C0C83609F4C9E6D01728
:1043900039F0402F6F2D8D2F0E948E09882309F14F
:1043A0006DE971E08FE196E00E944A334AE068E7E8
:1043B00075E08C2F90E00E947D3368E775E083E222
:1043C00096E00E94053540E06FE176E0F6018281DB
:1043D0000E949F0ACF5F6CE271E080E090E00E9453
:1043E00089030F5F1F4FF6E1CF0ED11CC1CF642FA1
:1043F0008D2F0E945D1081E0A0CF20E084E491E049
:104400000E941914F8CF8EE592E00E94BB11F3CF01
:1044100021E08EE592E0F4CF60916F0270E090E0D1
:1044200080E040E00E94EE1760936F022091D90275
:104430008FE790E0821B91096817190631F02CF084
:104440008FE7821B80936F02D6CF6032A0F680E2A6
:10445000F9CFC8E59CCF68EE73E080E090E00E9461
:1044600089030E94D415C7CF85E0E82E00E010E054
:10447000980184EA91E00E94E220BDCFFF920F9361
:104480001F93CF93DF93EC01F62E08811981C801A9
:104490000E94EE33F81621F06F2DC8010E94F6330A
:1044A000CE01DF91CF911F910F91FF900895EF9270
:1044B000FF920F931F93CF93DF9300D0CDB7DEB75A
:1044C0008DECE82E82E0F82E08EE13E01A830983C3
:1044D000F70161917F01CE0101960E943E220F5F9C
:1044E0001F4F043FF3E01F0789F70F900F90DF91F4
:1044F000CF911F910F91FF90EF900895EF92FF924F
:104500000F931F93CF93DF9300D0CDB7DEB729E28F
:10451000AC01249FC001259F900D112405E312E0FA
:10452000FC01E058FF4F7F01C701800F911F9A8364
:104530008983F80161918F01CE0101960E943E228C
:10454000F2E00E351F0781F70F900F90DF91CF91AA
:104550001F910F91FF90EF900895EF92FF920F93AC
:104560001F93CF93DF9300D0CDB7DEB72FE8AC0118
:10457000249FC001259F900D112408EB14E0FC013D
:10458000E05BF3407F01C701800F911F9A8389830D
:10459000F80161918F01CE0101960E943E22F5E063
:1045A00007341F0781F70F900F90DF91CF911F9174
:1045B0000F91FF90EF900895EF92FF920F931F934A
:1045C000CF93DF9300D0CDB7DEB78AE6E82E83E045
:1045D000F82E10E000E01A830983F70161917F0152
:1045E000CE0101960E943E220F5F1F4F0830F1E07E
:1045F0001F0789F70F900F90DF91CF911F910F91B7
:10460000FF90EF9008952F923F924F925F926F929A
:104610007F928F929F92AF92BF92CF92DF92EF9252
:10462000FF920F931F93CF93DF93CDB7DEB76897B9
:104630000FB6F894DEBF0FBECDBF8DE791E00E94AC
:10464000810F20E0482F61E08FEF0E94531FC82E9A
:10465000082E000CDD08682F85E00E94520C81E6D0
:104660000E94630F80ED94E00E94AB0482E60E94FA
:10467000630F86EC94E00E94AB0483E60E94630F14
:104680008EEB94E00E94AB0484E60E94630F86EBFD
:1046900094E00E94AB0485E60E94630F8DEA94E0EB
:1046A0000E94AB046091D30270E090E080E0EE24C1
:1046B000E39400E320E043E00E94131B43E068E042
:1046C00081E08C0D0E946A0CB6016E5F7F4F85E021
:1046D0000E94520C86E60E94630F84EA94E00E94D6
:1046E000AB0481E00E94630B6091CE027091CF0217
:1046F0008091D0029091D1024AE00E943C0A80E071
:104700000E94630B83E00E94600987E60E94630FAA
:1047100080EA94E00E94AB0481E00E94500B87E99C
:1047200094E00E94AB0480E00E94500B88E60E9457
:10473000630F8BE894E00E94AB046091D40241E0E7
:10474000611140E089E60E94720F81E894E00E94C6
:10475000AB0443E068E083E08C0D0E946A0C182FE4
:10476000682F85E00E94520C8AE60E94630F86E75C
:1047700094E00E94AB048BE60E94630F89E694E00C
:104780000E94AB048CE60E94630F85E594E00E94D2
:10479000AB048DE60E94630F8BE494E00E94AB04AF
:1047A00043E068E081E0810F0E946A0C62E0610FE3
:1047B00085E00E94520C8EE60E94630F8BE394E02A
:1047C0000E94AB0482E20E94970B86E395E00E9470
:1047D000800A83E00E9460098AEA91E00E94A10FAA
:1047E00085E294E00E94AB0482E20E94970B8091E4
:1047F000D60290E001960E94DC0E80E00E94A30B9E
:104800000E94970A6091D90281E70E940E098D8368
:10481000873609F4ACC40CF046C0823609F460C196
:10482000B4F48F3F34F018160CF0DCC1813609F473
:104830004EC19D802FEC920E6CE673E08EE592E007
:104840000E944A3381E280936F02A12CA2C42D8181
:10485000243609F494C10CF447C1253609F4DDC1AE
:10486000263639F76091CE027091CF028091D00246
:104870009091D10240E00E94EE176093CE027093B7
:10488000CF028093D0029093D10220EB34E040E03D
:1048900050E00E941434672B682B692B09F0CAC1C1
:1048A0000E945722CACE3D813C3609F43BC20CF02F
:1048B000A0C0393609F4C1C10CF462C43A3609F417
:1048C000ABC03B3609F0B5CF8DEB91E00E94810F74
:1048D000082F61E0680F8CE00E94520C61E080E0DC
:1048E0000E948C0B8CE792E00E94AB0462E081E0B6
:1048F0000E948C0B85E892E00E94AB044CE463E0DC
:1049000082E0800F0E946A0C94E0F92EF00E63E0C2
:10491000600F83E00E94520C24E7A22E22E0B22E08
:1049200036EFC32E34E0D32E10E081E00E94630BFB
:10493000F501659174918FE196E00E944A3369E038
:104940000E94EC0A80E00E94750BF60121913191E2
:10495000419151916F01612F81E60E94911DF601F5
:104960002485358546855785612F85E60E94911DF2
:10497000F601248D358D468D578D612F89E60E9475
:10498000911D123090F4F60124A535A546A557A532
:10499000612F8DE60E94911DF60124A935A946A933
:1049A00057A9612F8FE60E94911D6F2D610F83E043
:1049B0000E94520C1F5FF2E0AF0EB11C143009F0E0
:1049C000B4CF88E0800F0E94B80F0E94970A63E07E
:1049D00080E70E940E0918160CF02FCE81360CF4D9
:1049E0005FC185360CF03AC124E08202C001112477
:1049F0003BC18D818E3609F4B0C30CF4B8C2823746
:104A00000CF017CF8D818F568093D60290E00E94D4
:104A100066110E945722E2C081E280936F026CE629
:104A200073E08EE592E00E944A3380EB91E00E94B1
:104A3000810F21E0482F61E08FEF0E94531F0E94F9
:104A40006B20182F43E068E00E946A0C61E0610F60
:104A500085E00E94520C6091CD0241E0611140E07E
:104A600088E60E94720F8AE592E00E94AB0480E023
:104A70000E94500B4091CD0261E0411160E089E657
:104A80000E94720F84E492E00E94AB0480E00E94D6
:104A9000500B0E94970A6FEF89E60E940E09182FAB
:104AA00042E060E00E948521811104C0183631F097
:104AB000193651F011160CF4B8CFBFCD81E08093B8
:104AC000CD020E945722B1CF1092CD02FACF0E94A0
:104AD000B40B61E081E00E94520C0E94D415ADCD70
:104AE000F0E0E0E00995A9CD60917404709175043F
:104AF00080917604909177041C821B821A8219821D
:104B0000B12CA12CD12CC12CF12CE12C8E010F5FEA
:104B10001F4F9E012D5F3F4FAE014C5F5F4F0E94C4
:104B2000F90649815A8104E02EE26B818C810E9452
:104B3000371888E795E00E94BB1162EA71E08FE1C7
:104B400096E00E94513310E000E0009709F45BC545
:104B50000330110509F457C50E94233397FD53C54F
:104B60000115110519F480970CF04DC562EA71E04A
:104B700090E080E00E9451330F5F1F4FE6CF60E06E
:104B800070E0CB0143E7A42E42E0B42E52E7C52EDD
:104B900052E0D52EE1E7EE2EE2E0FE2E02E011E03B
:104BA00024E031E045E051E00E94F9064091020125
:104BB00050910301E0907302009172022091710202
:104BC00060910401809105010E948507609374043F
:104BD0007093750480937604909377043D81131647
:104BE0000CF42BCD0E94541D68960FB6F894DEBFCE
:104BF0000FBECDBFDF91CF911F910F91FF90EF902E
:104C0000DF90CF90BF90AF909F908F907F906F90EC
:104C10005F904F903F902F9008956091D30270E085
:104C200090E080E040E00E94EE176093D3026F3F77
:104C300009F036CE0E94F71000CD81E09091D402A9
:104C4000911180E08093D4020E9457228091D40277
:104C5000882309F4F2CC0E94DC22EFCC893674F46C
:104C600034E08302C00111248E589C4F0E94251805
:104C7000813019F58091D60290E01CC08D362CF45D
:104C8000E4E08E02C0011124EFCF8F362CF4F4E063
:104C90008F02C0011124E8CF81370CF015CEA4CECD
:104CA00081330CF4D4C483330CF00ECE082E000CE8
:104CB000990BC1970E94AD2207CE18160CF404CEB2
:104CC000BCCC4CE463E081E0D3C01F5FD5C080372B
:104CD00044F083370CF4EEC089E8890F833008F480
:104CE000E9C061E019160CF0A8CC292F092E000CA0
:104CF000330B91360CF4E0C0983674F4C901880F78
:104D0000991F8A509C4F0E945619813009F0EAC0C1
:104D10008091D60290E0E3C09F3684F3963774F317
:104D20009B3764F38CEC91E00E94810F11E0180F27
:104D300005E2A02E03E0B02E88EBC82E84E0D82E2A
:104D400000E0002321F0612F0430E9F41F5F612FA0
:104D50008CE00E94520C81E00E94750B82EC92E084
:104D60000E94AB0462E080E00E948C0B85E892E038
:104D70000E94AB044CE463E081E0810F0E946A0C66
:104D8000612F6E5F1D5F83E00E94520CFF24F3943D
:104D90008FEF800F833008F4F12C81E00E94630BC9
:104DA000F501659174918FE196E00E944A3369E0C4
:104DB0000E94EC0A0E94860BF601619171916F01CD
:104DC0002F2D40E081E6800F0E940D1F0E94860B70
:104DD000F601648575852F2D41E088E6800F0E94DD
:104DE0000D1FF601628D738D2F2D41E08FE6800F30
:104DF0000E940D1F0530A0F4F60160A571A52F2DAE
:104E000041E086E7800F0E940D1FF60162A973A999
:104E10002F2D40E081E4800F0E940D1F0E94860B21
:104E2000612F83E00E94520C033009F44ACF043012
:104E300019F101114ACF4CE463E0812F0E946A0C02
:104E4000182F61E0680F8CE00E94520C81E00E94F4
:104E5000750B87EB92E00E94AB0462E080E00E9459
:104E60008C0B85E892E00E94AB044CE463E082E0A6
:104E7000810F0E946A0C182F0F5FF2E0AF0EB11C79
:104E8000073009F05ECF81E0810F0E94B80F0E94C9
:104E9000970A63E08AE70E940E09982F8C360CF07F
:104EA00016CF89363CF482340CF41BCF8EE995344E
:104EB0000CF013CF60E016CF91344CF096340CF028
:104EC00031CFC901880F991F86599B4F1CCF913351
:104ED0000CF4C1C394330CF025CFC901C1970E94D3
:104EE000AD2220CF18160CF41DCFA7CB8FEF800F6B
:104EF000833008F09CC060E08FE00E948C0BF601CC
:104F00006485758520E040E08EC09FE9980F97305A
:104F100050F4880F990B8D589E4F0E944219809132
:104F2000D70290E017C1893674F08C3674F4880F7C
:104F3000990B60E08D589E4F0E945619813079F38D
:104F40001816ACF0E0C0883621F38C3611F39FEBD5
:104F5000980F973040F0982F9B7F983409F0D6C077
:104F600061E0825402C061E0892F0E94A21984EEA0
:104F700091E00E94810F182F61E0680F85E00E9488
:104F8000520CC12CEE24E39400E020E248E260E001
:104F90008FE60E940B0F82E20E942A0B60E18DE4F3
:104FA00092E00E94EC0A80E00E942A0B83E393E0E7
:104FB0000E94AB04E3E0FE2EF10E49E465E082E0DE
:104FC000810F0E946A0CF5E2AF2EF3E0BF2EA5E33D
:104FD000CA2EA2E0DA2E6F2D600F88E00E94520CDC
:104FE00081E00E94630BF501659174918FE196E079
:104FF0000E944A3361E10E94EC0A81E00E94750B35
:10500000F601619171916F0121E041E081E6800F2D
:105010000E94451B802F8B7F09F068CFF6016485C5
:10502000758521E041E088E6800F0E94451B0F5FF7
:10503000F2E0AF0EB11C073071F649E465E08AE09A
:10504000810F0E946A0C6CE0610F85E00E94520C97
:1050500084EF91E00E94A10F8CE193E00E94AB04E9
:105060008AEF91E00E94A10F8EE093E00E94AB04D2
:105070008DE60E94630F84E093E00E94AB048EE60D
:105080000E94630F88EF92E00E94AB0443E068E067
:105090008DE0810F0E946A0C6EE0610F85E00E9436
:1050A000520C8FE60E94630F8CEE92E00E94AB04DC
:1050B00084E092E00E94A10F8EED92E00E94AB048A
:1050C00082E20E942A0B81E00E94630B8091D7024A
:1050D00090E001960E94DC0E80E00E942A0B83E0A3
:1050E0000E9460098AE092E00E94A10F8DEC92E09C
:1050F0000E94AB040E94970A68E08FE60E940E09A6
:1051000018160CF402CF0E94240A97CA60E08D366C
:1051100019F08E3619F461E08FEF27CF81330CF44C
:105120009EC285334CF481538093D70290E00E9455
:1051300049110E9457221BCF893344F08F3609F062
:1051400016CF8DE492E00E94BB11E9CE082E000C30
:10515000990BC5970E947E220ACF86E395E00E94B4
:10516000BB118091D60290E00E94AD2266CA809168
:10517000D2020E947B098093D2028093000190CBDF
:105180008091D8020E947B098093D80289CBAA24FF
:10519000A39480E192E00E94810F20E0482F6A2DC5
:1051A000892D0E94531F8F5F0E946B2001E0080F22
:1051B00043E068E00E946A0C602F85E00E94520C78
:1051C00088E60E94630F83E194E00E94AB04602FA5
:1051D0008EE10E94520C4A2D11E01A25612F89E6BA
:1051E0000E94720F85E094E00E94AB04602F83E37D
:1051F0000E94520C412F6A2D8AE60E94720F8AEF9C
:1052000093E00E94AB0480E00E94630B0E94970A27
:1052100069E08AE60E940E09182F4A2D692D0E9426
:1052200085218111ECC1193609F40FCB1A3609F426
:10523000AECF183609F0E0C110E01C8A1B8A1A8A2A
:105240001B861C861D861E861F86412C512C320112
:10525000312C212CF12CD12C1F82188619861A860C
:1052600036E1939EC0011124FC01E659FC4FF88FF2
:10527000EF8B05C03C842D84FE84DF8411E06DEE4D
:1052800073E08BEA95E00E944A33EF89F88D8081C4
:10529000813009F4E9C008F4BDC0823009F4EBC0E4
:1052A0008BEA95E00E94810F082F111104C06A2D2E
:1052B000892D0E945D1021E0402F6A2D892D0E94CA
:1052C000531FCC24C394C80E682F85E00E94520C53
:1052D0002B8520FB80F83A8930FB81F8E89482F82E
:1052E00020FB83F88B8980FB84F89C8990FB85F8F0
:1052F000E89486F8082D017080FE07C081E60E94C0
:10530000630F88EC93E00E94AB04182D127081FEAD
:1053100007C082E60E94630F85EB93E00E94AB0416
:1053200082FE07C083E60E94630F87EA93E00E9433
:10533000AB0443E068E08C2D0E946A0CB82EC82EA6
:1053400083FE15C0682F85E00E94520C84E60E94FF
:10535000630F88E993E00E94AB04CC24C394CB0C88
:10536000432D522D6F2D7D2D8B2D0E94B51D84FE5A
:1053700013C06C2D85E00E94520C85E60E94630FDD
:1053800089E893E00E94AB044C855D856E857F853E
:105390008C2DC3940E94B51D85FE13C06C2D85E035
:1053A0000E94520C86E60E94630F81E893E00E94FF
:1053B000AB044F81588569857A858C2DC3940E94F2
:1053C000B51D86FE10C06C2D85E00E94520C87E64C
:1053D0000E94630F88E793E00E94AB04B301A2012F
:1053E0008C2D0E94B51D0E94970A60E087E60E94FE
:1053F0000E098E83843609F4D3C00CF060C0813668
:1054000009F46EC0823609F4AEC02E8112160CF07B
:10541000C0CE34CF67EE73E087EB95E00E944A334D
:1054200011113ECFF0916005FC87209161052D8719
:10543000309162053E87809163058F8791E09B8B59
:10544000E1E0EB8750EA452E56E8552E662463943A
:10545000712C68E0362E72E5272EF12CD12C1F829C
:10546000188619861A861CCF61EE73E087EB95E0EB
:105470000E944A3315CF6BED73E087EB95E00E94F5
:105480004A3311110DCFF0916805FC872091690511
:105490002D8730916A053E8780916B058F8791E05B
:1054A0009C8BE1E0EA8BF1E0FB87412C512C32012F
:1054B00020E6322E32E8232E4BE3F42ECFCFEE81BE
:1054C000E63609F479C00CF4D5CEE73609F09DCF65
:1054D00041E0C301B2010E94EE172B013C01CECE88
:1054E000002309F4CBCE232D322D4F2D5D2D6A2DB7
:1054F000892D0E94DC1D672B682B692B09F4BECE19
:105500001E8A032D122D2F2D3D2DB12CC12C188A52
:10551000198A81E08D8B84E0E82E4A2D692D84E480
:1055200091E00E94E22081E0FD898F1708F052C0CF
:105530002B2D3C2D488959896A2D892D0E94DC1D0F
:10554000672B682B692B09F443C0EE880B2D1C2DAB
:10555000288939894A2D692D84E491E00E94E2204E
:1055600081E08F5FE1CF112309F488CE2F81388548
:1055700049855A856A2D892D0E94DC1D672B682B71
:10558000692B09F47BCEB32CC22CF88AD98A0F81FF
:10559000188529853A8594E09E8BE2E0ED8BBBCFA0
:1055A00041E0632D722D8F2D9D2D0E94EE17362E1A
:1055B000272EF82ED92E62CE41E06F81788589851D
:1055C0009A850E94EE176F83788789879A8756CECF
:1055D00082E0C7CF1091D9020E94D4158091D902E0
:1055E000811710F40E94D4158091D402882309F405
:1055F0000CCF0E94DC2209CF9FEC992E910E111640
:105600000CF4C7CDEBCA4091020150910301E12C8B
:1056100000E020E060910401809105010E9485076F
:105620002B013C01609174047091750480917604A3
:10563000909177040E94891888E795E00E94BB1139
:105640000E94E60F640D751D861D971D9BCA813053
:1056500009F03AC90FCB913009F064CB59CB8130B6
:1056600009F45DCC84CC1F920F920FB60F921124D7
:105670002F933F938F939F93AF93BF938091580540
:1056800090915905A0915A05B0915B05309157054D
:1056900023E0230F2D3758F50196A11DB11D20934E
:1056A00057058093580590935905A0935A05B093D8
:1056B0005B0580915C0590915D05A0915E05B091C0
:1056C0005F050196A11DB11D80935C0590935D055A
:1056D000A0935E05B0935F05BF91AF919F918F91AD
:1056E0003F912F910F900FBE0F901F90189526E8B5
:1056F000230F0296A11DB11DD2CF1F920F920FB69C
:105700000F9211242F933F934F935F936F937F9347
:105710008F939F93AF93BF93EF93FF9380E396E0B4
:105720000E943C04FF91EF91BF91AF919F918F91A7
:105730007F916F915F914F913F912F910F900FBE8D
:105740000F901F9018951F920F920FB60F92112471
:105750002F938F939F93EF93FF93E0914006F091E7
:1057600041068081E0914606F091470682FD1BC00C
:105770009081809149068F5F8F7320914A0682172E
:1057800041F0E0914906F0E0E05DF94F958F80939C
:105790004906FF91EF919F918F912F910F900FBE2E
:1057A0000F901F9018958081F4CF1F920F920FB623
:1057B0000F9211242F933F934F935F936F937F9397
:1057C0008F939F93AF93BF93EF93FF938091B90013
:1057D000887F803609F44AC0F0F5883209F4A7C002
:1057E00018F5803109F49BC0B8F4882309F4F9C096
:1057F000883009F494C0FF91EF91BF91AF919F91D0
:105800008F917F916F915F914F913F912F910F9069
:105810000FBE0F901F901895883109F488C0803210
:1058200051F78093F30514C0803409F49DC040F40F
:105830008033B9F38833F9F68093F30585ECB0C073
:10584000803509F485C0883509F496C0883499F606
:105850000E948311D0CF883909F48CC038F588377D
:1058600029F050F4883611F0803729F683E08093D0
:10587000F5051092C80257C0883809F47BC08039FA
:1058800019F0803809F0B7CF8091C802803208F053
:1058900071C0E091C80281E08E0F8093C8028091B0
:1058A000BB00F0E0E855FD4F80833DC0803B39F000
:1058B000E0F4803A09F479C0883A09F09CCF84E09A
:1058C0008093F5051092A7021092A602E091CB02F8
:1058D000F091CC0209958091A60281110FC081E060
:1058E0008093A6021092860209C0803C09F4A6CFDC
:1058F000883C09F4A3CF883B09F07DCFE091A70253
:1059000081E08E0F8093A702F0E0EA57FD4F80817F
:105910008093BB009091A7028091A60229C080913C
:10592000D0058093BB0085EC8093BC0064CF909140
:10593000F2058091F105981758F5E091F20581E0A4
:105940008E0F8093F205F0E0EF52FA4F8081E9CF9D
:10595000E091F20581E08E0F8093F2058091BB000B
:10596000F0E0EF52FA4F80839091F2058091F105BB
:105970009817C8F285E8D8CFE091F20581E08E0F44
:105980008093F2058091BB00F0E0EF52FA4F8083E4
:105990008091F40581115CCF81E08093CF0584EA8A
:1059A0008093BC001092F50526CF85EC8093BC0057
:1059B0001092F5058091C802803230F4E091C8025F
:1059C000F0E0E855FD4F10826091C80270E0E09170
:1059D000C902F091CA0288EA92E009951092C802C1
:1059E0000ACF1092F30534CFE0E3F6E0138212827F
:1059F00088EE93E0A0E0B0E084839583A683B7832C
:105A000022E231E03183208325EC30E035872487A2
:105A100024EC30E03787268720EC30E0318B208B78
:105A200021EC30E0338B228B22EC30E0358B248B61
:105A300026EC30E0378B268B118E128E138E148E4F
:105A4000EDECF6E01382128284839583A683B783FC
:105A500084E391E0918380830895CF93DF93CDB762
:105A6000DEB76F970FB6F894DEBF0FBECDBF789448
:105A700084B5826084BD84B5816084BD85B5826053
:105A800085BD85B5816085BD80916E008160809304
:105A90006E0010928100809181008260809381006D
:105AA000809181008160809381008091800081607D
:105AB000809380008091B10084608093B1008091D8
:105AC000B00081608093B00080917A008460809300
:105AD0007A0080917A00826080937A0080917A00C7
