:100000000C943C030C9464030C9464030C946403FC
:100010000C9464030C9464030C9464030C946403C4
:100020000C9464030C9464030C9464030C946403B4
:100030000C9464030C9464030C9464030C946403A4
:100040000C940F2B0C9464030C947F2B0C94592B61
:100050000C9464030C9464030C9464030C94640384
:100060000C94B12B0C9464034A7573742D56616C17
:100070007565730041534349490052545500546516
:10008000726D696E616C0044455700434F32004801
:10009000554D00436972632E0052544400706572DE
:1000A0006D616E656E74006175746F6D6174696306
:1000B0000043697263756C6174696F6E00496E7498
:1000C000616B650045786861757374003C3C20483D
:1000D000554D003C3C2052544400444557203E3E80
:1000E00000434F32203E3E0048554D203E3E0052D8
:1000F0005444203E3E0070706D0072482500C2B02E
:1001000043005802840384034E616D652C004F2C1C
:10011000742C30004F2C4465772C31004F2C542C1C
:1001200031004F2C48554D2C3100532C63004C2C82
:10013000310001000164727900686967682C006D04
:1001400069642C006C6F772C0043616C003A2000CE
:10015000C2B043005D20403A005B004552520000AF
:1001600001030256616C3A200045525200205600AD
:100170005374617475733A2000536C617665204046
:100180003A2000446F20416464722E286573290070
:10019000416464722E203D20004E616D65203D203B
:1001A00000446F204E616D652873290044656C2002
:1001B0004E616D6528732920202000436C656172B3
:1001C0002043616C287329202020005265736574D8
:1001D000202020004932432C003D20002D50742E59
:1001E000200020746F2053657474696E672D4E6F04
:1001F0002E205B312D345D00290020280020436F24
:1002000070792046554C4C2053455454494E472054
:10021000003A20007C20202054656D705254442008
:1002200020207C20202054656D7048554D202020D2
:100230007C20202048756D69646974792020207CB9
:100240002020202020434F322020202020207C20EE
:1002500020446577696E6720506F696E7420207C3A
:1002600000616E616C6F670062696E617279005344
:10027000746570706572202020207C20466972733E
:1002800074506F7274207C20204C617374506F72B4
:1002900074207C2020537465704C6F676963207CE8
:1002A000007E007A0074006800426F6F74204D6F0A
:1002B000646573203D200099008F008B0087004605
:1002C00061696C5361666500746F6F4C6F772020B5
:1002D000207C202020204C6F7720202020207C2094
:1002E00020202048696768202020207C2020746F0F
:1002F0006F486967682020207C0020205570446585
:100300006C617920207C2020446F776E44656C619D
:1003100079207C2020537461727453746570207C42
:100320002020204D696E5374657020207C20202091
:100330004D617853746570009900C400BD0093004E
:100340008F008B00870044656C617954696D65731B
:100350000052756E204C6F6F702E2E2E00536574F8
:100360002054656D7054696D65203D2000205465F2
:100370006D706F726172792056616C7565202020F6
:1003800000204170706C792054656D7054696D6502
:1003900000205065726D616E656E742056616C75DB
:1003A00065202020002053776974636820537461AE
:1003B00074652020200061290070290074656D702B
:1003C0002E202800A7009D00EF00E800E100DA00E1
:1003D000D300CC00C400BD00B1007C202020202030
:1003E000537461746520202020207C207065726D1C
:1003F00056616C7565207C20202074656D70556E8B
:1004000074696C20207C2074656D7056616C756514
:10041000207C002D44756D6D794E616D652D005306
:100420006574204869676800536574204C6F7700D5
:1004300053657420415647204173204D6964005331
:1004400065742053696E676C652F4D696400446F55
:1004500020332D50742E2043616C2E00446F2032C7
:100460002D50742E2043616C2E202020202000442B
:100470006F20312D50742E2043616C2E20202020BF
:100480002000434F32202D0048554D202D0052545E
:1004900044202D002D2043616C69627261746520D7
:1004A0000053656C65637420414C4C0053656C656A
:1004B00063742053696E676C650043616C69627296
:1004C0006174696F6E2873292E2E2E002053656C7F
:1004D0002E53657474696E67205B312D345D203D49
:1004E000200053657474696E672D4E616D65203D03
:1004F00020004D616E75616C2E2E2E0054696D6565
:100500007320262053746570732E2E2E2020200019
:1005100056616C7565732E2E2E202020004D6F7253
:10052000652E2E2E20202000417344656661756C77
:1005300074004B6579436F6C6F7220202000436F0D
:100540006C6F722020200044696D005370656564F3
:10055000203D2000416464722E203D200054696DCE
:1005600065202020004461746520202000526542EF
:100570006F6F742020200052655363616E2020202D
:100580000048003B001B5B001B5B324A006D001BF8
:100590005B001B5B316D001B5B32326D0044001B46
:1005A0005B0043001B5B001B5B376D001B5B346D06
:1005B00000207C20000D0A00204020001B37001B7B
:1005C00038003E3E200000000000240027002A00E2
:1005D000000000002300260029007E007E003C0071
:1005E0007E003C007E003E003E001B5B32376D000B
:1005F000200000000000250028002B000404040453
:1006000004040404020202020202030303030303BC
:100610000102040810204080010204081020010299
:100620000408102000000008000201000003040775
:100630000000000000000000FE00FA00F600FE00CE
:10064000FE002020202053656C656374206B657963
:100650002C206F7220456E74657228666F7220724E
:10066000657475726E292E2E2E000A001B5B3234C3
:100670006D003A002900D02C11241FBECFEFD8E026
:10068000DEBFCDBF26E0A0E1B2E001C01D92A83FD1
:10069000B207E1F712E0A0E0B1E0EEE0F0E702C05F
:1006A00005900D92A031B107D9F713E0CCE3D3E068
:1006B00004C02197FE010E94C337CB33D107C9F78D
:1006C0000E94092D0C9405380C9400008091A4051B
:1006D0009091A505891B990B0895833081F028F42A
:1006E000813099F08230A9F008958730A9F08830E0
:1006F000C9F08430B1F4809180008F7D03C0809177
:1007000080008F7780938000089584B58F7784BDB3
:10071000089584B58F7DFBCF8091B0008F77809353
:10072000B00008958091B0008F7DF9CF1F93CF93D3
:10073000DF93282F30E0F901EC5DF94F8491F90146
:10074000E05FF94FD491F901E450FA4FC491CC2302
:10075000A9F0162F81110E946D03EC2FF0E0EE0F2F
:10076000FF1FEE50FA4FA591B4918FB7F894EC911A
:10077000111108C0D095DE23DC938FBFDF91CF919C
:100780001F910895DE2BF8CF3FB7F894809188052C
:1007900090918905A0918A05B0918B0526B5A89BFB
:1007A00005C02F3F19F00196A11DB11D3FBFBA2F03
:1007B000A92F982F8827BC01CD01620F711D811DC3
:1007C000911D42E0660F771F881F991F4A95D1F748
:1007D00008958F929F92AF92BF92CF92DF92EF9245
:1007E000FF926B017C010E94C4034B015C01C114A8
:1007F000D104E104F104B9F00E94C4036819790935
:100800008A099B09683E73408105910580F321E0C8
:10081000C21AD108E108F10888EE880E83E0981E1C
:10082000A11CB11CE4CFFF90EF90DF90CF90BF9060
:10083000AF909F908F90089508950895AF92BF92C2
:10084000CF92DF92EF92FF920F931F93CF93DF939C
:100850006C017B018B01040F151FEB015E01AE18CB
:10086000BF08C017D10759F06991D601ED91FC91ED
:100870000190F081E02DC6010995892B79F7C5011A
:10088000DF91CF911F910F91FF90EF90DF90CF906C
:10089000BF90AF900895FC01538D448D252F30E01B
:1008A000842F90E0821B930B541710F0CF9608957D
:1008B00001970895FC01918D828D981761F0A28DAA
:1008C000AE0FBF2FB11D5D968C91928D9F5F9F7370
:1008D000928F90E008958FEF9FEF0895FC01918D26
:1008E000828D981731F0828DE80FF11D858D90E093
:1008F00008958FEF9FEF0895FC01918D228D892F30
:1009000090E0805C9F4F821B91098F739927089517
:100910008BE496E00E947C0421E0892B09F420E01E
:10092000822F089580E090E0892B29F00E948804AE
:1009300081110C9400000895FC01A48DA80FB92F1B
:10094000B11DA35ABF4F2C91848D90E001968F73F7
:100950009927848FA689B7892C93A089B1898C9116
:10096000837080648C93938D848D981306C0028865
:10097000F389E02D80818F7D80830895EF92FF922F
:100980000F931F93CF93DF93EC0181E0888F9B8DB2
:100990008C8D98131AC0E889F989808185FF15C06C
:1009A0009FB7F894EE89FF896083E889F98980818F
:1009B0008370806480839FBF81E090E0DF91CF915E
:1009C0001F910F91FF90EF900895F62E0B8D10E080
:1009D0000F5F1F4F0F731127E02E8C8D8E110CC0EF
:1009E0000FB607FCFACFE889F989808185FFF5CF3A
:1009F000CE010E949C04F1CFEB8DEC0FFD2FF11D79
:100A0000E35AFF4FF0829FB7F8940B8FEA89FB8976
:100A100080818062CFCF0F931F93CF93DF938C01A0
:100A2000D0E0C0E0F801EC0FFD1F6491662341F0B7
:100A30008BE496E00E94BE04892B11F02196F2CF40
:100A4000CE01DF91CF911F910F910895682F8BE414
:100A500096E00C94BE04CF93DF93EC01888D88233D
:100A6000B9F0AA89BB89E889F9898C9185FD03C011
:100A7000808186FD0DC00FB607FCF7CF8C9185FFF6
:100A8000F2CF808185FFEDCFCE010E949C04E9CF9B
:100A9000DF91CF91089520915502260F3327331F00
:100AA00021323105ECF420911006FC0190E080E049
:100AB000243069F082E00895A09155022191AC01A3
:100AC0004B5C5D4FA40FB52FB11D2C93019686177B
:100AD00098F380915502680F6093550280E0089565
:100AE00081E008951092100681E080930F06109225
:100AF000EA0561E082E10E94960361E083E10E94E1
:100B00009603E9EBF0E080818E7F808380818D7F8A
:100B1000808388E48093B80085E48093BC000895C6
:100B2000CF93DF9391E0909334028823B9F0C09182
:100B3000B800D091BA008091BC008A7B8093BC0041
:100B400060E082E10E94960360E083E10E949603E8
:100B50000E947205D093BA00C093B800DF91CF9184
:100B600008958F929F92AF92BF92CF92DF92EF92B1
:100B7000FF920F931F93CF93DF93D0913906D13219
:100B800008F0D7C0182FC09138060E94C4036B012B
:100B90007C018091100681116BC082E08093100669
:100BA00010930F068FEF80930E0610920D06D093D0
:100BB0000C06A8E1B6E0ECEEF5E080E0D81391C0B9
:100BC0001092EB058091EB05CC0FC82BC093EB0581
:100BD0008091EA05813009F088C01092EA050E94F0
:100BE000C4036B017C018091EB058093BB00809175
:100BF000120690911306A0911406B0911506892B48
:100C00008A2B8B2BA1F00E94C40300911206109135
:100C1000130620911406309115066C197D098E0972
:100C20009F09061717072807390708F442C0809163
:100C3000BC0083FDD8CF85EC8093BC000E94C40328
:100C40006B017C0180911006823009F450C08091C4
:100C50000E068F3F09F46FC080910E06803209F4B2
:100C60006CC080910E06803309F469C084E026C010
:100C70008091120690911306A0911406B09115066A
:100C8000892B8A2B8B2B09F484CF0E94C40380907C
:100C9000120690901306A0901406B09015066C19D9
:100CA0007D098E099F0986169706A806B90608F0E1
:100CB00070CF809111060E94900585E01092170672
:100CC0001092390610921606DF91CF911F910F9165
:100CD000FF90EF90DF90CF90BF90AF909F908F905C
:100CE00008959D9191938F5F69CF85EEA5CF8091F7
:100CF000120690911306A0911406B0911506892B47
:100D00008A2B8B2B09F49ECF0E94C40300911206FC
:100D10001091130620911406309115066C197D0967
:100D20008E099F09061717072807390708F08ACF89
:100D3000C0CF81E0C3CF80E0C1CF82E0BFCF83E0EE
:100D4000BDCF0895E091A5058091A405E81730F482
:100D5000F0E0EA55FA4F808190E008958FEF9FEF21
:100D600008959091A5058091A4052FEF3FEF981766
:100D700048F4E92FF0E0EA55FA4F208130E09F5F18
:100D80009093A505C9010895CF92DF92EF92FF924B
:100D90000F931F93CF93DF937C01CB018A012091A6
:100DA0001606222389F0EB016B01C40ED51ECC156B
:100DB000DD0569F06991D701ED91FC910190F08119
:100DC000E02DC7010995F3CF642F0E944B05C801A0
:100DD000DF91CF911F910F91FF90EF90DF90CF9017
:100DE0000895CF93DF931F92CDB7DEB7698320912B
:100DF00016062223F9F020913906203258F021E01E
:100E000030E0FC013383228390E080E00F90DF919B
:100E1000CF91089580911706E82FF0E0E85EF94F32
:100E2000998190838F5F809317068093390681E0C4
:100E300090E0ECCF61E0CE0101960E944B05F7CF28
:100E400090E080E008950F931F93CF93DF938BE49E
:100E500096E00E945A04082F11E0C1E0D0E08A33E6
:100E600019F010E0D0E0C0E06CE070E080E090E0CD
:100E70000E94E9038BE496E00E947C04892BB9F080
:100E800021968BE496E00E945A048A3341F41F5F56
:100E9000143029F4C430D10511F4109277056CE0B8
:100EA00070E080E090E00E94E90300E0E3CF802F53
:100EB000DF91CF911F910F9108959C0164E670E03E
:100EC0000E947C37FC01C90183709927892B11F49A
:100ED000309779F4C90160E971E00E947C379C0188
:100EE000EF2B11F4892B19F481E0232B09F080E01A
:100EF000089581E00895863029F030F4823051F071
:100F0000843031F48EE108958930E1F38B30D1F3F0
:100F10008FE10895CB010E945D07882311F08DE1D8
:100F200008958CE108952F923F924F925F926F92B5
:100F30007F928F929F92AF92BF92CF92DF92EF9269
:100F4000FF920F931F93CF93DF932B013C011A0164
:100F50004901E80187EE97E09983888340E853E3ED
:100F600061EE71E0441655066606770690F08881BA
:100F70009981019699838883441A550A660A770AEB
:100F80000E945D07882351F340E055E862EE71E06E
:100F9000E9CF81E0F401808360E87EED88E290E0B3
:100FA0004616570668067906B0F0F40120812F5FD7
:100FB0002083461A570A680A790A68817981822F44
:100FC0000E947B07A82FB0E020E831E541E050E027
:100FD0000E942B37E5CFC301B20120E831E541E0A3
:100FE00050E00E9409372F5FF101208320E13EE0AD
:100FF00040E050E00E940937F70120832CE330E005
:1010000040E050E00E940937F6012083F50160833B
:10101000DF91CF911F910F91FF90EF90DF90CF90D4
:10102000BF90AF909F908F907F906F905F904F9008
:101030003F902F9008956F927F928F929F92AF92E0
:10104000BF92CF92DF92EF92FF920F931F93CF93B5
:10105000DF93C82FF62E6A01D22F87EE682E87E025
:10106000782E812C912C54016C147D04C0F4C301A2
:101070000E945D0781110CC020E8821A2CEC920AB4
:101080002EE1A20A2EEFB20A4FEF641A740AECCFD7
:101090003BE7931A3DE1A30A3EEFB30AF5CF11E017
:1010A0001F1590F4B601812F0E947B07A82FB0E096
:1010B00020E831E541E050E00E942B37860E971E74
:1010C000A81EB91E1F5FECCF202F30E0ACE3B0E0CC
:1010D0000E946D379B01AC012E0D311D411D511D2C
:1010E00069017A012D2F30E0A0E1BEE00E946D374A
:1010F000C60ED71EE81EF91E4C2F4150550BDA01C3
:1011000020E831E541E050E00E94C9376C0D7D1DBB
:101110008E1D9F1D680D791D8A1D9B1DDF91CF912E
:101120001F910F91FF90EF90DF90CF90BF90AF9005
:101130009F908F907F906F9008950F931F938FB71C
:10114000F8944091840550918505609186057091D1
:1011500087058FBF00913002109131022091320239
:1011600030913302DB01CA01401751076207730750
:1011700018F40197A109B109801B910BA20BB30BC5
:1011800000912C0210912D0220912E0230912F02FD
:10119000800F911FA21FB31F883E23E09207A10575
:1011A000B10508F4C7C040933002509331026093F8
:1011B000320270933302885E9340A109B109809393
:1011C0002C0290932D02A0932E02B0932F028091B7
:1011D000280290912902A0912A02B0912B02019637
:1011E000A11DB11D8093280290932902A0932A0289
:1011F000B0932B02809127028F5F809327028C335C
:1012000039F480912602109227028F5F8093260284
:10121000809126028C3339F48091250210922602A7
:101220008F5F8093250280912502883159F41092B6
:10123000250280912302909124020196909324022A
:10124000809323028091A2028F5F8093A20240913B
:1012500073055091740560917505709176054F5F27
:101260005F4F6F4F7F4F40937305509374056093AA
:101270007505709376058C3339F48091A102109234
:10128000A2028F5F8093A1028091A1028C3339F476
:101290008091A0021092A1028F5F8093A0028091A2
:1012A000A002883121F081E01F910F9108951092E2
:1012B000A002909102019F5F90930201809103012F
:1012C000823009F59D3170F0809104019091050103
:1012D0000E945D07811106C081E08093020183E0D6
:1012E00080930301809103018D30E9F681E08093C2
:1012F00003018091040190910501019690930501ED
:1013000080930401D0CF863019F020F4843031F47A
:101310002FE105C08930E1F38B30D1F320E2022EBA
:10132000000C330B92171306E9F691E0909302013B
:101330008F5FD6CF80E0B8CFCF92DF92EF92FF924F
:101340000F931F93CF93CCE3E62EF12C082F10E0E0
:1013500068018FE1C81AD1080E949D088111C1500F
:101360008BE496E00E947C04892BB9F10E9423074C
:10137000982F892F992369F190334CF0292F092E4A
:10138000000C330B20533109E216F306D4F49136E6
:1013900034F1292F092E000C330B021713078CF49C
:1013A000292F092E000C330B2C153D0554F09B31D1
:1013B000D1F09B3231F09D3221F0CCE39D7F9C3304
:1013C00059F6CF911F910F91FF90EF90DF90CF9042
:1013D0000895C111C1CF8FEFF4CF90E0CACF9134FF
:1013E000FCF69D3021F780E0ECCFCF93C82FC150A1
:1013F00020F080E20E942605FACFCF91089581E087
:101400000C94F509CF93C82F0E94FF098C2F0E94DE
:101410002605CF910C94FF0987EA95E00C940B0503
:10142000813671F02AE5853261F0882349F021E0A8
:10143000280F93EE980F983020F08955883008F0E7
:101440002EE1822F0895613091F4E6E1E49FD0010E
:101450001124AB57BC4FE89FF0011124EB57FC4F10
:1014600081E02C919081291729F080E003C081E070
:101470006230D9F708954F925F926F927F92AF9248
:10148000BF92CF92DF92EF92FF920F931F93CF9371
:10149000DF9300D000D0CDB7DEB72B013C0129830C
:1014A0003A834B835C83D5011C9240E050E0BA0143
:1014B000411451046104710461F04091730550912D
:1014C0007405609175057091760544195509660992
:1014D0007709E02FF0E0EE0FFF1FEC52FB4F008189
:1014E000118130E020E0041715072607370780F444
:1014F000401B510B620B730B09811A812B813C81BC
:10150000041715072607370708F455C081E08C93A8
:1015100082E0C11086E08E0D282F2250330B890106
:10152000220F331FB901600F711F69537D4FFB01FB
:101530009081992311F091819C93B801660F771FD8
:10154000660F771FAB014D555D4FFA014081518108
:10155000628173814115510561057105A1F0C0904B
:101560007305D0907405E0907505F0907605C4166B
:10157000D506E606F70618F5F801E20FF31FE95362
:10158000FD4F92819C936C910E949603C301B2011E
:101590000F900F900F900F90DF91CF911F910F91AF
:1015A000FF90EF90DF90CF90BF90AF907F906F90C3
:1015B0005F904F900895412C512C3201A9CF108299
:1015C000118212821382DFCF96E1899FF0011124EC
:1015D000EB57FC4FE081F0E0EE0FFF1FEE5FFE4F98
:1015E00065917491072E000C880B990B0C94E903FC
:1015F000AF92BF92CF92DF92FF920F931F93CF9340
:10160000DF93262F30E0C82FD0E0FE01EE0FFF1F42
:10161000E050FB4F808191812817390710F4682F23
:101620000AC0FE01EE0FFF1FE65FFA4F8081918135
:1016300082179307A0F386E08C9FF0018D9FF00D39
:101640001124EE51FD4F60838091730590917405D4
:10165000A0917505B091760581839283A383B483AD
:101660008091A0048583C858DD4FF8806E0123E087
:10167000C20ED11C062F10E05E0136E0A30EB11C95
:10168000F60180818F15D8F088812F2D281B330B10
:10169000C901F5012081222361F0B80102C07595CE
:1016A00067958A95E2F761708F2D0E949603F394F7
:1016B000E7CF61E080179107BCF360E0F5CFDF91E1
:1016C000CF911F910F91FF90DF90CF90BF90AF907F
:1016D0000895FC0101900020E9F73197AF01481B04
:1016E000590BBC018BE496E00C941E048F929F92E0
:1016F000AF92BF920F931F93CF93DF93CDB7DEB717
:10170000A1970FB6F894DEBF0FBECDBF19A242302D
:1017100008F44AE08E010F5D1F4F842E912CB12CEE
:10172000A12CA50194010E940937E62FB901CA0135
:10173000EA30F4F4E05DD801EE938D01232B242BE5
:10174000252B79F790E080E0109719F0CD010E94E9
:10175000690BA1960FB6F894DEBF0FBECDBFDF9127
:10176000CF911F910F91BF90AF909F908F90089550
:10177000E95CE1CF462F682F70E090E080E00C94A8
:10178000760BCF93C82F84EA95E00E940B056AE0A0
:1017900070E08C2F0E94BA0B82EA95E0CF910C94F6
:1017A0000B05CF93C82F8FE995E00E940B056AE0E7
:1017B00070E08C2F0E94BA0B8DE995E0CF910C94CC
:1017C0000B05CF93C82F811101C0C7E2809122027F
:1017D00081110CC082EE8C0F883030F086EA8C0FBD
:1017E000883010F0C73211F4C09301018FE895E002
:1017F0000E940B056AE070E08C2F0E94BA0B8DE806
:1018000095E00E940B05C73211F0CF910895C1E316
:10181000DDCFCF93C82F1092220280E00E941C0CD3
:1018200080910101CC2329F081E0809322028091F4
:101830000001CF910C94E10BCF93C82F809122022D
:10184000882319F080E00E94090C82E995E0C1111B
:1018500002C087E995E0CF910C940B05CF93C82F78
:1018600080E00E941C0C81EB95E00E940B05CC23CC
:1018700021F081E0CF910C941C0CCF91089580E071
:101880000E942E0C81E00C94D10BCF93C62F0E94A6
:10189000F50981E00E942E0C8C2FCF910C94F50954
:1018A000CF93C82F80E00E94090C8C2F0E94E10B7F
:1018B00081E0CF910C941C0C81110C94500C80E0B1
:1018C0000E941C0C80E00C94E10B809182050E9428
:1018D0005C0C8CEA95E00C940B0580E00E94E10B17
:1018E00088E895E00C940B058F929F92AF92BF927F
:1018F000CF92DF92EF92FF920F931F9324E0829F8B
:10190000C00111249C012C523B4FF901EA58FF4FB2
:10191000C080D180E280F38038974081518162811C
:101920007381709780809180A280B38084579A4F92
:10193000FC0180819181A281B381225B3F4FF9013B
:10194000008111812281338180179107A207B3079B
:10195000E4F088159905AA05BB05CCF0C816D90690
:10196000EA06FB06B4F0481759076A077B079CF0A4
:1019700080E21F910F91FF90EF90DF90CF90BF908A
:10198000AF909F908F900C94E10B84E2F2CF82E2B3
:10199000F0CF8FE1EECF81E2ECCF0F931F93823037
:1019A000B0F124E0829FC00111249C012C523B4FD6
:1019B000F901E25AFF4F408151816281738184575E
:1019C0009A4FFC0180819181A281B381225B3F4FBC
:1019D000F901008111812281338180179107A207CB
:1019E000B3077CF084179507A607B70764F0803823
:1019F0009649A849B1054CF480E21F910F910C94CF
:101A0000E10B84E2FACF82E2F8CF8FE1F6CF1F91AB
:101A10000F910C94740CCF93DF93C82FD62F85E8C9
:101A200095E00E940B056AE070E08D2F0E94BA0BD2
:101A300083E895E00E940B056AE070E08C2F0E941D
:101A4000BA0B81E895E0DF91CF910C940B051F93C1
:101A5000CF93DF93C82F862FD42FCC2331F011E002
:101A60001C0F6C2F0E940B0DC12FD15020F08DE266
:101A70000E942605FACF8C2FDF91CF911F910895F8
:101A8000009711F00C94690B90E080E008958FE8C6
:101A900092E00C94400DCF93C82F83E491E0C031C5
:101AA00010F48FE391E00E94400D60E170E08C2F14
:101AB000CF910C94BA0BFF920F931F93CF93DF93A8
:101AC000F82E8AE491E00E94400D07EC15E0D1E089
:101AD000C0E0F80181918F01C8270E944B0DDF5FA4
:101AE000FD12F7CF8C2F0E944B0D85EB95E0DF9117
:101AF000CF911F910F91FF900C940B05E6ECF5E050
:101B00009AE39083818381E0828363834483258386
:101B100086E00C945B0D81E491E00C94690BCF930B
:101B2000DF930E940B05EC010E948B0D8C0F9D1F13
:101B3000DF91CF9108958AE696E00E948F0D82E4AE
:101B400096E00C940B05CF92DF92FF920F931F93B8
:101B5000CF93DF93EB0109900020E9F72197C61B93
:101B6000D70BCC2369F18B0191E0909316068093FB
:101B700038061092170610923906F12CEC2FE40F5C
:101B8000FF27FF1F6F018F2D90E08C159D0554F4EA
:101B9000800F911FFC01608188EE96E00E94F106A3
:101BA000F394F1CF81E00E94B10581110BC08C2F1D
:101BB000DF91CF911F910F91FF90DF90CF9008950B
:101BC00080E0F6CF8FEFF4CF96E1899FF0011124EA
:101BD000EB57FC4F40E064E471E082810C94A30D6C
:101BE0000F931F93CF938C01FC0101900020E9F724
:101BF0003197E81BF90B6E1B862F8695C62FC81BE5
:101C00000E94F509C8010E94400D8C2FCF911F91B1
:101C10000F910C94F509EF920F931F93CF93DF93DD
:101C20006AE471E08AE396E00E944636E12C00E027
:101C300010E0D0E0C0E0009741F1C330D10569F475
:101C4000212F47EE57E061E081E00E941B08DF9101
:101C5000CF911F910F91EF9008950E9418368C3309
:101C6000B0F4209759F4883190F4182F6AE471E0A9
:101C700090E080E00E9446362196DDCFC130D1054C
:101C800011F0E82EF3CF082FF1CF2397C9F260E0CF
:101C900070E0CB01DCCFCF92DF92EF92FF920F93F7
:101CA0001F93CF93DF93C82F1092C6050E94C403E1
:101CB0006B017C0180911006811166C081E08093E8
:101CC000100680930F069FEF90930E0610920D065C
:101CD0009FE190930C068093EB058091EB05CC0F70
:101CE000C82BC093EB058091EA05813009F0A3C0B1
:101CF0001092EA050E94C4036B017C018091EB0500
:101D00008093BB008091120690911306A091140657
:101D1000B0911506892B8A2B8B2BA1F00E94C4034E
:101D200000911206109113062091140630911506A9
:101D30006C197D098E099F090617170728073907AF
:101D400008F443C08091BC0083FDD8CF85EC80931C
:101D5000BC000E94C4036B017C018091100681309D
:101D600009F46BC080910D06D0E2803210F4D0915E
:101D70000D06ACEEB5E0E6EAF5E080E08D1751F136
:101D80009D9191938F5FFACF8091120690911306E7
:101D9000A0911406B0911506892B8A2B8B2B09F480
:101DA00089CF0E94C403009112061091130620915E
:101DB0001406309115066C197D098E099F090617C6
:101DC00017072807390708F075CF809111060E9480
:101DD0009005D0E01092A505D093A40511E0C0E0D5
:101DE0008091A505D817B1F0C132A4F488EE96E031
:101DF0000E94B106112309F445C0813009F43FC0A7
:101E0000C0E08F3F39F0CFEF8E3F21F0CEEF823030
:101E100009F0CCEF81E00E94B105882311F0C7FFE3
:101E2000CDEF8C2FDF91CF911F910F91FF90EF900D
:101E3000DF90CF90089585EE8ACF80911206909121
:101E40001306A0911406B0911506892B8A2B8B2BB3
:101E500009F483CF0E94C403009112061091130667
:101E600020911406309115066C197D098E099F0981
:101E7000061717072807390708F06FCFA6CFC0E06D
:101E800010E0AECFEC2F0C2E000CFF0BEA53FA4FF4
:101E90008083882309F4BECFCF5FEC2FF0E0EA53B4
:101EA000FA4F1082EDCFCF92DF92EF92FF92CF9355
:101EB000DF936C01092E000CEE08FF0897FF17C096
:101EC0008DE20E942605EC0166277727CB016C196D
:101ED0007D098E099F094AE00E94760B8C0F9D1F99
:101EE000DF91CF91FF90EF90DF90CF9008954AE07F
:101EF000C701B601DF91CF91FF90EF90DF90CF90B7
:101F00000C94760BEF92FF920F931F93CF93DF9376
:101F1000F82E162FC42FD22F002311F0E11005C088
:101F200080E00E94090C0E94650C112319F0812F9A
:101F30000E9426058F2D0E94260584E796E00E94C8
:101F40000B05DD2321F082E796E00E940B0580E07F
:101F50000E941C0C8CE696E00E940B05D1110E9499
:101F6000FF09CC2319F08C2F0E94260580E00E94E7
:101F7000E10B0023A1F0E11014C081E0DF91CF91CB
:101F80001F910F91FF90EF900C941C0C81E0DF915A
:101F9000CF911F910F91FF90EF900C94090CE110DD
:101FA000F5CFDF91CF911F910F91FF90EF900895A2
:101FB000EF920F93E12C00E021E040E060E00E940E
:101FC000820F0F91EF900895EF920F93E42E062F5A
:101FD00021E040E060E00E94820F0F91EF900895B1
:101FE000CF93DF93EC010E946D0C80E00E94E10B27
:101FF0000E940C0A61E081E00E940B0D81E00E94CA
:102000001C0C60E5CE010E94F00D80E00E941C0CCB
:102010008AEE95E00E940B0582E0DF91CF91089552
:10202000CF93DF93EC0180E00E94090C0E94650CC5
:10203000CE010E94400D80E00E94090C8CE696E0E3
:102040000E940B0580E0DF91CF910C945C0CCF9344
:10205000C82F682F85E00E940B0D86E491E00E9456
:1020600010108DEF91E00E940B0582E20E94E10BBF
:1020700082E595E00E94400D8AEF91E00E940B05F9
:102080008091800590E001960E94530F88EF91E0C7
:102090000E940B0580E00E94E10B82EE91E00E941D
:1020A0000B0581E08C0FCF910895CF93DF93C82F5C
:1020B000D62F80E00E94F509DD23C9F081E00E945F
:1020C000090CEC2FF0E0EE0FFF1FE85CF94F659173
:1020D00074918AE396E00E943F360E94400D83E0AF
:1020E0000E94F50980E0DF91CF910C94090C80E00B
:1020F0000E94E10BE6CF6F927F928F929F92AF92F8
:10210000BF92CF92DF92EF92FF920F931F93CF93E4
:10211000DF93CDB7DEB7E6970FB6F894DEBF0FBEFC
:10212000CDBF782E662E85E8C82E83E0D82EF12C00
:10213000E12C8091F4028E151F0409F00CF460C0AC
:102140007E1441F04E2D662D872D0E94230A882390
:1021500009F44FC06EE271E0CE0101960E943F3655
:10216000F6018081813069F020F08230C9F101E010
:102170001BC06AE271E0CE010A960E943F3602E07F
:1021800013C062E271E0CE010A960E943F366CE114
:1021900071E0CE0143960E943F3664E171E0CE01CA
:1021A0004C960E943F3604E0CE0101965C01912CD2
:1021B000812C10E080169106B4F440E0B501F601E0
:1021C00082810E94A30D6CE271E080E090E00E94A9
:1021D000E903FFEF8F1A9F0A89E0A80EB11CEACF2E
:1021E0006EE071E0C8CF6CE271E080E090E00E94A8
:1021F000E9039FEFE91AF90AE6E1CE0ED11C99CF67
:10220000E6960FB6F894DEBF0FBECDBFDF91CF913B
:102210001F910F91FF90EF90DF90CF90BF90AF9004
:102220009F908F907F906F9008950F931F93CF93FF
:10223000DF9307E715E0C8EED3E0CE010E94E33656
:10224000F80181938F012196C43FF3E0DF07A9F7DE
:10225000609178057091790580917A0590917B0560
:1022600020EB34E040E050E00E940937672B682BF8
:10227000692B61F080E895E2A0E0B0E080937805FA
:1022800090937905A0937A05B0937B0580918005A2
:10229000833020F01092800510927E058091810598
:1022A000843020F01092810510927E0580917F0588
:1022B0008D3020F010927F0510927E0580917C0574
:1022C00080930001DF91CF911F910F9108950F939B
:1022D0001F93CF93DF932FE8289F8001299F100D34
:1022E0001124C4EDD4E00C5C1340C8018C0F9D1F79
:1022F0000E94E336899385E0C336D807B1F7DF91B2
:10230000CF911F910F91089585ED8093BC0080912E
:10231000120690911306A0911406B0911506079627
:10232000A11DB11D23E0B695A795979587952A9590
:10233000D1F72091BC0024FD03C01092100608952F
:102340004091120650911306609114067091150683
:10235000452B462B472B69F30097A105B10541F0AA
:102360002AE22A95F1F700C00197A109B109E1CF4E
:10237000809111060C9490055F926F927F928F92DC
:102380009F92AF92BF92CF92DF92EF92FF920F9304
:102390001F93CF93DF9300D000D000D0CDB7DEB72E
:1023A0005C01762E542E622ECE0101966C0186E0E1
:1023B000D6011D928A95E9F705E813E0F12CE12C8E
:1023C0008091F4028E151F0409F00CF48EC07E1467
:1023D00041F04E2D652D872D0E94230A882309F494
:1023E00063C068E071E086EC95E00E943F366620AD
:1023F000C1F0D801EC91F0E0D601AE0FBF1F8C9177
:102400008F5F8C93EE0FFF1FE954FD4F6591749120
:102410008AE396E00E943F36BC018BEC95E00E9477
:10242000F53786EC882E85E0982EF4010190002087
:10243000E9F7CF01B50101970E94F537662091F0C9
:10244000F40101900020E9F7E75CF540FF27EA532B
:10245000FA4FD8018C91D601A80FB11D8C91805DE7
:10246000808311820E948B0D6AE070E0F801828106
:102470000E94BA0B8AE491E00E94400D86EC95E040
:102480000E94690B0E948B0D41E066EC75E0D8015B
:1024900012968C910E94A30D181634F46BEC75E023
:1024A000C80105960E94F5376DE471E080E090E088
:1024B0000E94E903F801828191E0909316068093CF
:1024C0003806109217061092390660E088EE96E002
:1024D0000E94F106D80112968C910E94B105BFEFBF
:1024E000EB1AFB0A0A5E1F4F6BCF26960FB6F894C5
:1024F000DEBF0FBECDBFDF91CF911F910F91FF9037
:10250000EF90DF90CF90BF90AF909F908F907F9093
:102510006F905F9008952F923F924F925F926F92CB
:102520007F928F929F92AF92BF92CF92DF92EF9263
:10253000FF920F931F93CF93DF937C01FC010190D7
:102540000020E9F731977E2E781A20E1271518F43C
:10255000FC011082712C81E00E941C0C82EC95E041
:102560000E940B0580E00E941C0C84E20E94E10B9B
:102570008CEB95E00E940B05772049F00E940C0A35
:10258000C7010E94400D8AEE95E00E940B05B7013D
:102590008AE396E00E94F537E72DF0E0E65CF94F1C
:1025A0001082572C172DC12CD12C212C912CC0E03E
:1025B000D0E090E1892E0CE3DD3009F4B1C10E9436
:1025C0009D088823C9F00150B9F480E00E94E10B16
:1025D00080E0DF91CF911F910F91FF90EF90DF90FE
:1025E000CF90BF90AF909F908F907F906F905F90B3
:1025F0004F903F902F9008958BE496E00E947C04CA
:10260000892BD1F28BE496E00E945A04D82F412EF8
:102610004518772009F493C1992493945C12912C66
:10262000DC2ED70C312E3D18CC24C394C30CDD30E6
:1026300009F443C1A4F4D830B1F0DA3009F43DC153
:102640002C2E80EE8D0F8F3508F0B5CF103108F4A9
:102650001AC1772009F4AFCFAA24A394DFC0DB31DD
:1026600029F0DF3769F72C2EA12CD8C02C2E6CE076
:1026700070E080E090E00E94E90300E0A12C612C72
:10268000DBE18BE496E00E947C04892B09F44BC0CB
:1026900063948BE496E00E945A04D82F6CE070E0BB
:1026A00080E090E00E94E903F3E06F1651F1F61527
:1026B00058F021E06216A9F032E06316A9F0AA24CE
:1026C000A394DFCF342CD3CF84E0681641F195E09A
:1026D0006912F5CF8FEB8D0F843088F70FE70D0F60
:1026E000D0CFDB3561F7CDCFD53334F4D33314F409
:1026F000D13329F70D2FC5CF8FEB8D0F8430F8F62E
:10270000F9CFDB3309F4BDCFDE37C9F6013309F465
:10271000B8CFA8F28DEC800F823088F6B2CFD233DA
:1027200009F4AFCFCCCF662009F44FCFA11043CF2F
:10273000033409F456C0E0F4043389F058F401334B
:1027400009F449C0033309F45EC0772009F433CF9C
:10275000412C0AC0013409F43EC00234B1F7642CA4
:10276000772009F44EC04318642C650C712C7AC094
:10277000013C69F168F4043409F43BC0003C29F7DA
:10278000652C6194552009F416CF71105DC012C0FC
:10279000023C49F0033CC9F641E0511001C040E061
:1027A000642E619405C066246394411001C0612CBD
:1027B000711047C0662009F4DFC0762C652C670CC9
:1027C000C52D17140CF44EC07194C62D4BC0642C4B
:1027D0004110DBCFF0CE772009F4CCC04C2E451849
:1027E000C3CF7110C0CF6624639441100AC0612C1E
:1027F00008C07110F3CF41E0511001C040E0642ED9
:102800006194712C7FC0711009C0511680F7DD24CE
:10281000D394D50CC42C252C772473944C2D50E0E4
:102820006D2D70E0665C794F822D90E0865C994F4B
:102830000E94D1371719622CAA2009F497CF522C85
:1028400024C0662009F4B7CE8C2F870D9920A1F003
:10285000C60D6C2EC81718F4982F8C2FC92F7C2EFC
:10286000781AC82F8FEB95E00E940B05772009F4AA
:1028700085C0C11188C097C0680E862DC61578F72F
:102880008C2FC62DECCF7110E7CE852D90E0FC018A
:10289000E65CF94F5F01855C994F511680F4442D39
:1028A00050E04F5F5F4FBF010E94D137F501D083E9
:1028B00066246394650C1F5F59CF2C2E7CCEFC01DF
:1028C0001082F4CF8AEE95E00E940B055C2E570C27
:1028D000852D90E09C01265C394F5901511638F442
:1028E000F50181915F010E9426055394F7CF5C2E7C
:1028F000882D811B0E94F5098FEB95E00E940B0546
:10290000C52D512C662009F456CE560C862D161472
:102910001CF40E94C10B4FCE81950E94D10B4BCE6F
:10292000E12FF0E0E65CF94F108280E00E94E10BBD
:102930006AE376E0C7010E94F53781E04ACE8D3028
:1029400009F439CE34F4883051F08A3009F433CEAA
:1029500078CE8B3109F4B6CE8F3709F072CE552080
:1029600059F022242A94250CCC24C394C40CD52CD1
:10297000A12C52CF652C44CF712C1DCE512C11238C
:1029800009F4B6CFC12F8AE3A82E86E0B82E512CC9
:10299000F50181915F010E94260553945C12F8CFE6
:1029A000772009F4A5CF0E940C0A5C2E2C2F270D4E
:1029B0003327331F5901852D90E08A159B050CF0B4
:1029C00081CF865C994FFC0180810E94260553943B
:1029D000F2CFFF920F931F93CF93DF938C01F62ECC
:1029E0006EE270E00E94EA37EC01892B11F0F110E1
:1029F0001BC04AE050E070E060E0C8010E94013571
:102A00008B019C01F7FE08C0A8EEB3E0AC019B016E
:102A10000E942B378B019C01C901B801DF91CF9136
:102A20001F910F91FF90089518824AE050E070E0E6
:102A300060E0C8010E9401359B01AC01A8EEB3E043
:102A40000E942B378B019C01F12C37FF09C0309578
:102A50002095109501951F4F2F4F3F4FFF24F39462
:102A6000FE01319684E690E0CAE0D0E04191442333
:102A7000F9F018161906E4F4042E000C550B405317
:102A800051094A30510590F7489FB001499F700D98
:102A9000589F700D1124AB01770F660B770B040F55
:102AA000151F261F371FBE010E949037CB01DECFB6
:102AB000FF2009F4B1CF30952095109501951F4F57
:102AC0002F4F3F4FA9CF009721F09093E9058093B6
:102AD000E8056CE471E08091E8059091E9050E94B9
:102AE00046360097A1F01092E9051092E805FC0126
:102AF0004081242F042E000C330B205331092A303F
:102B0000310510F04D3229F76FEF0C94E91460E0B5
:102B100070E0CB010895FF920F931F93CF93DF9343
:102B2000082F10E096E1899FE0011124CB57DC4F7C
:102B30008A810E944B0E18168CF586EC95E00E9457
:102B400063152CE0209FF001219FF00D1124EB5024
:102B5000FD4F6083718382839383FF24F394C801C4
:102B6000880F991F080F191FE881F0E0E05AFE4F07
:102B7000E491FE16D0F490E080E00E946315F80125
:102B8000EF0DF11DEE0FFF1FEE0FFF1FEB50FD4F7E
:102B90006083718382839383F394E6CF80E0DF9137
:102BA000CF911F910F91FF90089581E0F8CF4F9240
:102BB0005F926F927F92BF92CF92DF92EF92FF92DD
:102BC0000F931F93CF93DF931092F4020E948B0D0B
:102BD000C0E2D0E046E1D42EBB24B394C7FD73C15C
:102BE0008091F4028C3008F06EC180EB8C0F88303D
:102BF00008F460C1C83609F45DC1DC1374C06DE42B
:102C000071E080E090E00E94E903D1116EC0B092C3
:102C10001606C0933806109217061092390681E006
:102C20000E94B105811146C189E791E00E940B0520
:102C30006AE070E08C2F0E94BA0B8AE30E94020ABD
:102C40006DE471E080E090E00E94E90340E06EE412
:102C500071E08C2F0E94A30D082E000C990B0E948E
:102C6000530F8AE30E94020A6DE471E080E090E075
:102C70000E94E9038C2F0E944B0E182F082E000C87
:102C8000990B0E94530F8AE30E94020A1C5F1530C1
:102C900008F415C186EC95E00E94400D8AE30E947D
:102CA000020A8091C6058F3309F009C18091C705DA
:102CB000893409F004C1E091F402DE9EF001112490
:102CC000EB57FC4F118215828091C90501E011E09C
:102CD0008834A9F0823559F000E012E0833479F0AD
:102CE00001E01FEF0CC0DC2F92CFD0E09DCF11E0B0
:102CF0008091CA05843509F410E0119501E0E12EB8
:102D0000012E000CFF08C7010E94530F0E948B0D7B
:102D10001F3F09F4D4C0E091F402DE9EF0011124BB
:102D2000EB57FC4FC283108386EC95E00E9463153D
:102D30001091F402D19E90011124A9014B575C4FD0
:102D40003A01FA01748363830023B1F040E060E547
:102D500071E08C2F0E94A30D6DE471E080E090E0A3
:102D60000E94E9038C2F0E944B0E18162CF48091C0
:102D7000CB058053F301818340E066E571E08C2F41
:102D80000E94A30D6DE471E080E090E00E94E903F1
:102D90008C2F0E944B0E18164CF41D9DC00111245F
:102DA0006CEC75E086579C4F0E94F53740E06DE56E
:102DB00071E08C2F0E94A30D80E791E00E940B052B
:102DC0006CE271E080E090E00E94E9038C2F0E94A9
:102DD0004B0E18160CF05EC08091CE050E942605A1
:102DE00080E40E94020A80ED95E00E94400D8DE68D
:102DF00091E00E948F0D83E691E00E940B051091F7
:102E0000F402812F0E94E40D812F0E94E40A812F99
:102E10000E948B15882309F44FC0C12C8701005AEA
:102E20001E4FF8018491C816C0F5EC2CF12CE091EE
:102E3000F4028E2F90E0FC01EE0FFF1FE80FF91F48
:102E4000EE0DFF1DEE0FFF1FEE0FFF1FEB50FD4FAE
:102E500040805180628073804AE0C301B20177FEF6
:102E60000BC08DE20E94260566277727CB016419E7
:102E70007509860997094AE00E94760BF80184914A
:102E80008150990BE816F9061CF48CE20E94020AA4
:102E9000C394C7CF89E691E0ACCF8FE591E00E9463
:102EA0008F0D0E948B0D8091F4028F5F8093F4024E
:102EB00080937F05CF5F92CE8BE591E0F0CFCD136D
:102EC000F9CFC150F7CFDF91CF911F910F91FF90B4
:102ED000EF90DF90CF90BF907F906F905F904F907A
:102EE0000895DF92EF92FF920F931F93CF93DF939A
:102EF000142FD22F2AE04AE356E00E947D364AE39F
:102F000056E0FA0101900020E9F7AF014B5356401B
:102F1000C42F4430A8F4552784E090E07C01E41AE3
:102F2000F50A6AE376E0C701865C994F0E94D137C3
:102F3000A70160E370E08AE396E00E94E337C4E013
:102F40001D5FD12EDC1A1D14B4F44C2F50E06AE33F
:102F500076E0ED2C0D2C000CFF08C701865C994F24
:102F60000E94D137602F000F770BA7018AE396E00C
:102F70000E94E337C12F8C2F90E08C01095C194F20
:102F800043E050E0B801885C994F0E94D1378EE24F
:102F9000F8018083CF5F12E01D0F1D0D412F4C1BE8
:102FA000141664F4042E000C550B8C2F90E060E393
:102FB00070E0865C994F0E94E337C12FECEFEC0F75
:102FC00080E0DD2321F08E2FEDEFED0FEC0FF0E030
:102FD000E65CF94F1082DF91CF911F910F91FF9026
:102FE000EF90DF900895CF92DF92EF92FF920F93D0
:102FF000CF936B017C01C42F4423E9F000E223E06E
:1030000041E00E9471176AE376E08FE892E00E9447
:10301000F5378FE892E00E948B12882391F06C2F95
:1030200061958AE396E0CF910F91FF90EF90DF904A
:10303000CF900C94E9142AE04FE852E00E947D36CC
:10304000E8CFC701B601CF910F91FF90EF90DF90CD
:10305000CF900895CF93DF93EC01688179818A81C5
:103060009B8141E00E94F317688379838A839B8365
:1030700081E0DF91CF910895CF92DF92EF92FF929E
:103080000F931F93CF93DF93D62F7A01122FC02F68
:10309000282F30E0A8EEB3E00E946D3700E320E077
:1030A00042E00E9471176AE376E08FE892E00E94A6
:1030B000F5378FE8C82E82E0D82EF60112832D2F27
:1030C00030E0A8EEB3E00E946D3720E042E00E94BD
:1030D00071176AE376E082E992E00E94F537F60123
:1030E00015839701A8EEB3E00E946D3720E04C2FC6
:1030F0000E9471176AE376E085E992E00E94F53755
:10310000EC2FF0E0E157FD4F1682DF91CF911F9138
:103110000F91FF90EF90DF90CF900895AF92BF9204
:10312000CF92DF92EF92FF920F931F93CF93DF9393
:1031300000D01F92CDB7DEB719821A821B829E0182
:103140002D5F3F4F5901215031096901215031094B
:10315000790110E000E030E020E050E040E00E9423
:1031600093074B8150E002E02AE36A8189810E9443
:103170003C180F900F900F90DF91CF911F910F91FE
:10318000FF90EF90DF90CF90BF90AF900895CF93D6
:10319000DF93EC016881798190E080E00E948E18D5
:1031A0008FE892E00E948B120E940B0E7983688355
:1031B000DF91CF910895CF93DF93EC01662331F037
:1031C0000E94C71881E0DF91CF91089568817981CD
:1031D00090E080E040E00E94F31779836883F2CFAB
:1031E0008F929F92AF92BF92EF920F93CF93DF9304
:1031F0004B015C01C42FD22F8E2D0E941C0CDD23AD
:10320000C1F02D2F4C2FC501B4010E947117C82F9A
:103210008AE396E00E94400D80E00E941C0C8C2FF7
:10322000DF91CF910F91EF90BF90AF909F908F90D3
:103230000895A8EEB3E0A50194010E942B3720E089
:103240004C2FE3CFEF920F931F93CF93DF93C82FB1
:10325000D62F142F0E94CD0C612F8D2F0E940B0DA5
:1032600084E0C89FF0011124E457FA4F6081718116
:1032700082819381EE24E39400E222E043E00E9405
:10328000F01860E08C2FDF91CF911F910F91EF909C
:103290000C945510EF920F93CF93C82F482F6EE0E8
:1032A00080E00E9422194C2F63E281E00E942219E3
:1032B00082E00E94CD0C6C2F83E30E940B0D609185
:1032C000940570919505809196059091970528EE4B
:1032D00033E040E050E00E94A437CA01B901EE2477
:1032E000E39400E220E044E00E94F01860E082E015
:1032F0000E9455104C2F62E483E00E94221981E065
:103300008C0FCF910F91EF9008952F923F924F9293
:103310005F926F927F928F929F92AF92BF92CF9265
:10332000DF92EF92FF920F931F93CF93DF93CDB76E
:10333000DEB7A1970FB6F894DEBF0FBECDBF888F62
:103340008091060190910701A091080189839A83D9
:10335000AB838091090190910A01A0910B018C83AC
:103360009D83AE832CE835E03F872E87AE014C5F0E
:103370005F4F5F8B4E8BCE0101969D8B8C8B10E047
:10338000188A123009F4B7C081E090E0E2E0EB8BDC
:10339000EE89FF892191FF8BEE8B2B8FEC89FD89C4
:1033A0002191FD8BEC8B2F8345E853E05A8B498BA1
:1033B000E5EFF2E0F987E887288C412C512C3201A7
:1033C000812C912C54011A861B861C861D86D12CBB
:1033D000C12C312C9C01990F440B550B2E8F3F8F24
:1033E00048A359A38091F4028C151D0409F00CF434
:1033F000C2C0E989FA89808181136DC03394E88560
:10340000F98580819181A281B3812A853B854C8594
:103410005D85280F391F4A1F5B1F2A873B874C8712
:103420005D8784819581A681B781880E991EAA1E29
:10343000BB1E80859185A285B385480E591E6A1EE4
:103440007B1EF12CC601880F991FAC014C0D5D1D30
:103450005A8F498FC60101969D8F8C8F8091770579
:1034600081115FC0622D8F810E940B0D8C8D9D8D0F
:103470000E94530F81E192E00E940B05E98DFA8DC5
:10348000EF0DF11DEE0FFF1FEE0FFF1FEB50FD4F75
:1034900060817181828193812E8D3F8D48A159A1D8
:1034A0000E94A437CA01B901EE24E39400E22B89FB
:1034B0004B8D0E94F018113051F5FF2041F1EF8142
:1034C000E35DEF8361E085E08F190E945510F3946E
:1034D0001130A9F02394FFEFCF1ADF0A29893A8926
:1034E0002A5E3F4F3A8B298B48855985445F5F4F51
:1034F0005987488777CF88EE93E01B8A49CF92E0BF
:103500009F1508F0ABCF4F814C544F83E3CF61E060
:10351000812F0E9455101130D1F6FF81FE50FF839C
:10352000D6CF8330A0F2E98DFA8DEF0DF11DEE0FAD
:10353000FF1FEE0FFF1FEB50FD4F80819181228115
:10354000338140917D055AE35093C6054093C705EA
:10355000E2E0E093C805C092C905F092CA05309335
:10356000CB052093CC059093CD058093CE0589E0C3
:103570000E945B0DACCF3320A1F1C32CD12CF12CD8
:10358000E12C6A857B858C859D85A70196010E942B
:10359000A437EE85FF852083318342835383113026
:1035A000E1F4C501B401A70196010E94A43720935C
:1035B0009C0530939D0540939E0550939F05C30144
:1035C000B201A70196010E94A43720939805309379
:1035D000990540939A0550939B05F889F31508F4D3
:1035E000388A1F5F2E853F852C5F3F4F3F872E8790
:1035F000133009F0C6CE888D3889830FA1960FB697
:10360000F894DEBF0FBECDBFDF91CF911F910F9118
:10361000FF90EF90DF90CF90BF90AF909F908F90F2
:103620007F906F905F904F903F902F9008958F9272
:103630009F92AF92BF92EF920F93962F49015A013A
:10364000E12C00E020E040E260E0890F0E94820F60
:1036500000E222E044E0C501B4010E94F01880E0DD
:103660000F91EF90BF90AF909F908F900C942E0C85
:103670008F929F92AF92BF92EF920F93CF93C82FEA
:103680004A015B018CED91E00E940B056C2F8DE1EE
:103690000E940B0D89ED91E00E940B05EE24E3944E
:1036A00000E222E044E0C501B4010E94F018CF918D
:1036B0000F91EF90BF90AF909F908F9008952F92B1
:1036C0003F924F925F926F927F928F929F92AF92B2
:1036D000BF92CF92DF92EF92FF920F931F93CF93FF
:1036E000DF9300D000D0CDB7DEB7782E662E19015B
:1036F0002A0128E729831A821C82C12CD12C760149
:103700008091F4023A81381770F5032F10E046E1FA
:10371000409FF001419FF00D1124EB57FC4F808139
:1037200081111DC08C818F5F8C83832F0E94E40DDB
:103730008A810E94E40A8A810E948B15ECE0E09F56
:10374000C001E19F900D11248B509D4FFC018081A1
:103750009181A281B381C80ED91EEA1EFB1EFA8197
:10376000FF5FFA83CDCF2C81222309F4AEC030E075
:1037700050E040E0C701B6010E94A43749015A0158
:1037800080928C0590928D05A0928E05B0928F0547
:103790000E948B0D80E00E94090C0E94650C89E557
:1037A00091E00E940B05E12C00E222E044E0C2011E
:1037B000B1010E94F01884E591E00E940B0580E0C1
:1037C0000E94090C8CE696E00E940B0580E00E94A6
:1037D0005C0C0E94FF0922E043E0C501B4010E9495
:1037E000F01881E00E94090C80E591E00E940B0531
:1037F00080E00E94090C83E00E94C10B10E094E17C
:10380000F92E8091F402181708F075CF171541F0C2
:10381000412F662D872D0E94230A882309F443C077
:10382000812F0E94E40D812F0E94E40A812F0E94C3
:103830008B15812F90E09B838A83BC016F5F7F4F44
:10384000072E000C880B990BE12C00E320E042E0EE
:103850000E94F0188DE491E00E940B052CE0EA81B3
:10386000FB812E9FC0012F9F900D11248B509D4FE7
:10387000FC016081718182819381EE24E39400E2F6
:1038800022E044E00E94F01880E00E942E0CFEE04E
:10389000FF0E22E42F1538F40E948B0D84E10E9464
:1038A000C10B85E1F82E0E949D08882319F039810B
:1038B000315039838BE496E00E947C04892B71F4AB
:1038C0004981442359F01F5F9CCF80908C059090D4
:1038D0008D05A0908E05B0908F0552CF8BE496E0B9
:1038E0000E945A044B9719F4812C912C5401C50164
:1038F000B4010F900F900F900F90DF91CF911F9117
:103900000F91FF90EF90DF90CF90BF90AF909F907E
:103910008F907F906F905F904F903F902F90089581
:10392000EF92FF920F931F93CF93DF93EB01142F2E
:10393000F22EEE24E394209709F0E12C00E020E041
:1039400040E260E00E94820FFF2089F0BE0190E01B
:1039500080E00E948E180E94470D1123D1F0DF9164
:10396000CF911F910F91FF90EF900C943F0C9E010F
:10397000A8EEB3E00E946D3700E220E046E00E942E
:1039800071178AE396E00E94400D82E00E94F509DB
:10399000E4CFDF91CF911F910F91FF90EF900895A9
:1039A0003F924F925F926F927F928F929F92AF92CF
:1039B000BF92CF92DF92EF92FF920F931F93CF931C
:1039C000DF93082F162FC42FF22ED0E08F3F11F473
:1039D000D1E000E04FE365E08C2F0E94270D25E841
:1039E000C22E23E0D22E35EF632E32E0732E912CBF
:1039F000812C402E512C26E1029FC0011124DC01B4
:103A0000AB57BC4F5D018091F4028815190409F091
:103A10000CF4CDC0F6019081D5018C91981719F066
:103A2000DD2309F4B7C0CF5F33243394481459041D
:103A300019F0111101C0312C6C2F85E00E940B0D83
:103A4000F1100EC0EE24E394E324032D20E040E0C7
:103A500068E281E3880D0E94820F81E00E94D10B11
:103A600081E0332009F4A0C00E941C0C83E00E9476
:103A7000C10BC60105960E94400D6C2F8AE10E9481
:103A80000B0D832D0E942E0CF301608171818281C8
:103A9000938100E222E045E00E947117D6018C91EB
:103AA0000E94CD0C311003C081E00E94090C8AE312
:103AB00096E00E94400D80E00E945C0C81E00E9434
:103AC000090C0E94FF09D601EC91F0E0EE0FFF1FF8
:103AD000E85CF94F659174918AE396E00E943F3665
:103AE0000E94400D6C2F89E20E940B0D80E00E9425
:103AF0002E0CD601EC91F0E0EE0FFF1FE954FD4FC4
:103B0000659174918AE396E00E943F360E94400DD1
:103B10006C2F80E30E940B0D80E00E942E0CF601BA
:103B20006381748190E080E000E322E042E00E9443
:103B300071178AE396E00E94400D6C2F88E30E9483
:103B40000B0D80E00E942E0CD60112962C9130E0D5
:103B5000A8EEB3E00E946D3700E220E043E00E944F
:103B600071178AE396E00E94400D6C2F8EE30E944D
:103B70000B0DF60181810E942E0C6AE070E0D601E7
:103B800011968C910E94BA0B80E00E941C0C80E080
:103B90000E942E0CBFEF8B1A9B0AE6E1CE0ED11CC1
:103BA000FCE06F0E711C2FCF0E94090C5FCF80E0EC
:103BB0000E94090C4FE365E081E08C0F0E94270D05
:103BC00082E08C0FDF91CF911F910F91FF90EF90CA
:103BD000DF90CF90BF90AF909F908F907F906F902D
:103BE0005F904F903F9008950F93CF93C82F682F09
:103BF00085E00E940B0D81E60E94D80F8BEC91E0CE
:103C00000E940B0582E60E94D80F8BEB91E00E9488
:103C10000B0583E60E94D80F8CEA91E00E940B0509
:103C200084E60E94D80F81EA91E00E940B0561E0D2
:103C30006C0F85E00E940B0D85E60E94D80F89E984
:103C400091E00E940B0581E00E941C0C80E192E053
:103C50000E94400D83E00E94F50986E60E94D80F7D
:103C600080E991E00E940B0581E00E941C0C2091EC
:103C7000210230E0A8EEB3E00E946D3700E320E0BF
:103C800043E00E9471178AE396E00E94400D83E0B2
:103C90000E94F50987E60E94D80F83E891E00E9410
:103CA0000B0582E08C0FCF910F9108958F929F9218
:103CB000AF92BF92CF92DF92EF92FF920F931F933A
:103CC000CF93DF936C01D62FF42E48015901CE2DEE
:103CD00069E471E086EC95E00E943F36EE20E9F160
:103CE0008CE28093C905C33059F150F4C13099F08A
:103CF0006FE371E0C23089F0C53078F5C4E012C0DE
:103D0000C53031F1C630C1F765E371E08AEC95E06A
:103D10000E943F3622C064E471E08AEC95E00E9484
:103D20003F36C8E000E322E041E0C501B4010E9453
:103D300071178C2F90E06AE376E08A539A4F0BC09C
:103D400069E371E08AEC95E00E943F36C9E0EACF72
:103D5000B6018AEC95E00E94F537C0E086E1E82ED6
:103D6000ED9E800111240B571C4F8091F402C8175F
:103D7000A8F5CD1739F04C2F6F2D8D2F0E94230AF7
:103D8000882351F1D801EC91F0E0EE5CFE4FE49114
:103D9000EE2311F10E948B0DEC9EC0011124FC0159
:103DA000EB57FC4F6F016AE070E082810E94BA0B12
:103DB0008AE491E00E94400D86EC95E00E94690B38
:103DC0000E948B0D40E066EC75E0D60112968C9156
:103DD0000E94A30DF6011182CF5FC7CFDF91CF9173
:103DE0001F910F91FF90EF90DF90CF90BF90AF9019
:103DF0009F908F900895CF92DF92EF92FF920F9352
:103E0000CF93DF93C0902802D0902902E0902A023D
:103E1000F0902B02C701B6010E948E18C701B601AF
:103E200020E831E541E050E00E940937A8EEB3E018
:103E30000E942B3700E220E043E00E94711749E026
:103E400050E06FE872E084E992E00E94D137CFE859
:103E5000D2E083E0EAE3F6E0DE0101900D928A957C
:103E6000E1F784E68B8380E28C83DF91CF910F9121
:103E7000FF90EF90DF90CF900C94470DFF920F933F
:103E80001F93CF93DF93F82EC62F8A01D22F0E9463
:103E90000C0A68E181E00E940B0D8FEFF8122FC031
:103EA00089E20E94E10B84E00E94F509C8010E94AA
:103EB000400D80E00E941C0C81E30E94E10B88EB26
:103EC00095E00E940B056AE070E08D2F0E94BA0B0E
:103ED0000E94FB1EC11106C0E80109900020E9F70D
:103EE0002197C01B88E28C1B0E94F5098AEE95E0A1
:103EF000DF91CF911F910F91FF900C940B0581E002
:103F00000E941C0CD0CFCF9380917705C0E0811127
:103F10002DC00E946D0C0E940C0A84E691E00E9464
:103F2000F00FC82F8AEE95E00E940B0561E06C0F40
:103F300083E00E940B0D81E00E941C0C84E192E062
:103F40000E940B054CE463E082E08C0F0E94270D79
:103F5000C82F80E00E941C0C80917705811106C05B
:103F600020E046E751E060E00E943E1F8C2F0E9457
:103F7000851990917705911119C04CE463E00E9476
:103F8000270D0E944A194CE463E00E94270DC82FB8
:103F900081E00E941C0CC093850210928F044CE4B7
:103FA00063E081E08C0FCF910C94270DCF910895A1
:103FB000CF92DF92EF92FF920F931F93CF93DF93F5
:103FC000D62FF42E833609F46BC09CF4813609F4A5
:103FD00061C00CF09CC08F5F823008F45FC080E04D
:103FE000DF91CF911F910F91FF90EF90DF90CF90D5
:103FF0000895853609F45AC00CF45DC0863609F47C
:104000005EC0873661F7C091210295E8C92E93E022
:10401000D92E10E000E08091F4028017110609F01B
:104020000CF46CC080EB8C0F883008F465C0C83687
:1040300009F4C9E6D01739F0402F6F2D8D2F0E945B
:10404000230A882309F164ED71E08AE396E00E9477
:104050003F364AE06FE872E08C2F90E00E947236A3
:104060006FE872E08EE396E00E94F53740E06AE385
:1040700076E0F60182810E94A30DCF5F6CE271E0D1
:1040800080E090E00E94E9030F5F1F4FF6E1CF0E42
:10409000D11CC1CF642F8D2F0E947B1081E0A0CF57
:1040A00020E083E491E00E94BC11F8CF80E192E02F
:1040B0000E948B12F3CF21E080E192E0F4CF609177
:1040C000210270E090E080E040E00E94F3176093EE
:1040D00021022091F4028FE790E0821B910968177A
:1040E000190631F02CF08FE7821B80932102D6CF86
:1040F0006032A0F680E2F9CFC8E59CCF68EE73E0AD
:1041000080E090E00E94E9030E94D715C7CF85E0C8
:10411000E82E00E010E098018BE891E00E94561E26
:10412000BDCFFF920F931F93CF93DF93EC01F62E39
:1041300008811981C8010E94E336F81621F06F2D1D
:10414000C8010E94EB36CE01DF91CF911F910F91F4
:10415000FF900895EF92FF920F931F93CF93DF93F9
:1041600000D0CDB7DEB787E7E82E85E0F82E08EE61
:1041700013E01A830983F70161917F01CE01019653
:104180000E9491200F5F1F4F043FF3E01F0789F744
:104190000F900F90DF91CF911F910F91FF90EF90B3
:1041A0000895EF92FF920F931F93CF93DF9300D068
:1041B000CDB7DEB788E7E82E82E0F82E0FE513E0F2
:1041C0001A830983F70161917F01CE0101960E9454
:1041D00091200F5F1F4F0836F3E01F0789F70F90FC
:1041E0000F90DF91CF911F910F91FF90EF90089565
:1041F000EF92FF920F931F93CF93DF9300D0CDB731
:10420000DEB787ECE82E82E0F82E04E413E01A8390
:104210000983F70161917F01CE0101960E949120EF
:104220000F5F1F4F0F35F3E01F0789F70F900F90B7
:10423000DF91CF911F910F91FF90EF900895EF9232
:10424000FF920F931F93CF93DF9300D0CDB7DEB7CC
:104250002FE8AC01249FC001259F900D112404ED8F
:1042600014E0FC01EC5CF3407F01C701800F911F5B
:104270009A838983F80161918F01CE0101960E9492
:104280009120F5E003361F0781F70F900F90DF9123
:10429000CF911F910F91FF90EF900895EF92FF92B1
:1042A0000F931F93CF93DF9300D0CDB7DEB785E890
:1042B000E82E83E0F82E10E000E01A830983F7016E
:1042C00061917F01CE0101960E9491200F5F1F4FE7
:1042D0000830F1E01F0789F70F900F90DF91CF9121
:1042E0001F910F91FF90EF9008952F923F924F9260
:1042F0005F926F927F928F929F92AF92BF92CF9276
:10430000DF92EF92FF920F931F93CF93DF93CDB77E
:10431000DEB768970FB6F894DEBF0FBECDBF84E658
:1043200091E00E94F00F20E0482F61E08FEF0E94A3
:10433000D01CC82E082E000CDD08682F85E00E94D6
:104340000B0D81E60E94D80F87E795E00E940B05D0
:1043500082E60E94D80F8DE695E00E940B0583E669
:104360000E94D80F85E695E00E940B0584E60E9426
:10437000D80F8DE595E00E940B0585E60E94D80FC9
:1043800084E595E00E940B0560917D0570E090E06A
:1043900080E0EE24E39400E320E043E00E94F01884
:1043A00043E068E081E08C0D0E94270DB6016E5F4E
:1043B0007F4F85E00E940B0D86E60E94D80F8BE4AC
:1043C00095E00E940B0581E00E941C0C609178052D
:1043D0007091790580917A0590917B054AE00E9461
:1043E000760B80E00E941C0C83E00E94F50987E6B2
:1043F0000E94D80F87E495E00E940B0581E00E949F
:10440000090C8EE395E00E940B0580E00E94090CE8
:1044100088E60E94D80F82E395E00E940B05609128
:104420007E0541E0611140E089E60E94E40F88E2E8
:1044300095E00E940B0543E068E083E08C0D0E944C
:10444000270D182F682F85E00E940B0D8AE60E9429
:10445000D80F8DE195E00E940B058BE60E94D80FE6
:1044600080E195E00E940B058CE60E94D80F8CEF4E
:1044700094E00E940B058DE60E94D80F82EF94E035
:104480000E940B0543E068E081E0810F0E94270D48
:1044900062E0610F85E00E940B0D8EE60E94D80F4E
:1044A00082EE94E00E940B0582E20E94500C82E5AD
:1044B00095E00E94400D83E00E94F50981E991E0BA
:1044C0000E9410108CEC94E00E940B0582E20E9486
:1044D000500C8091800590E001960E94530F80E07F
:1044E0000E945C0C0E949B0D6091F40282E70E9486
:1044F0009C098D83873609F401C60CF046C08236CC
:1045000009F437C2B4F48F3F34F018160CF0A3C589
:10451000813609F425C29D803FEC930E63E174E07F
:1045200080E192E00E943F3681E280932102F12CEB
:10453000F7C52D81243609F46BC20CF41EC2253652
:1045400009F49AC2263639F7609178057091790599
:1045500080917A0590917B0540E00E94F31760936B
:1045600078057093790580937A0590937B0520EB0D
:1045700034E040E050E00E940937672B682B692B3C
:1045800009F087C20E94AA20CACE3D813C3609F4B8
:10459000FCC20CF0AEC0393609F47EC20CF4B7C5CB
:1045A0003A3609F4B9C03B3609F0B5CF84EA91E058
:1045B0000E94F00F082F61E0680F8CE00E940B0D45
:1045C00061E080E00E94450C8FEB92E00E940B05B9
:1045D00062E081E00E94450C88EC92E00E940B05AD
:1045E0004CE463E082E0800F0E94270DF4E0BF2ED0
:1045F000B00E63E0600F83E00E940B0DA7EBCA2EA4
:10460000A2E0DA2EB2E1EB2EB5E0FB2E10E081E065
:104610000E941C0CF601659174918AE396E00E9459
:104620003F3669E00E94F00D80E00E942E0CD70119
:104630002D913D914D915D917D01612F81E60E940B
:10464000171BF7012485358546855785612F85E63B
:104650000E94171BD7015C962D913D914D915C9165
:104660005F97612F89E60E94171B1230A0F4F701B3
:1046700024A535A546A557A5612F8DE60E94171BD9
:10468000D701D4962D913D914D915C91D797612F93
:104690008FE60E94171B6B2D610F83E00E940B0DAC
:1046A0001F5FB2E0CB0ED11C143009F0B0CF88E010
:1046B000800F0E9427100E949B0D64E080E70E94FB
:1046C0009C0918160CF02BCE81360CF413C28536DB
:1046D0000CF0F3C1E4E08E02C001112482579C4F1C
:1046E0000E942A18813009F012C28091800590E062
:1046F0000BC28D818E3609F4F7C40CF424C38337C2
:104700000CF009CF8D818F568093800590E00E9438
:1047100067110E94AA20ABC181E28093210263E16C
:1047200074E080E192E00E943F3687E991E00E94C8
:10473000F00F21E0482F61E08FEF0E94D01C0E9413
:10474000F41D182F43E068E00E94270D61E0610F1F
:1047500085E00E940B0D88E60E94D80F89EA92E05E
:104760000E940B0581E00E941C0CE0917705F0E0AF
:10477000EE0FFF1FEF55FD4F659174918AE396E0B0
:104780000E943F360E94400D80E00E941C0C43E0D6
:1047900068E082E0810F0E94270D63E0610F83E1F2
:1047A0000E940B0D8FE692E00E940B0545E36FE03F
:1047B00084E0810F0E94270D44EDA42E43E0B42E27
:1047C00058E7C52E52E0D52E69E6F62E7CE9972EE5
:1047D000910E692D6F0D8FE00E940B0D81E00E94FC
:1047E0001C0CF501659174918AE396E00E943F36B6
:1047F0006EE00E94F00D81E00E942E0C41E0D60197
:104800008C91811101C040E060E08F2D0E94E40F87
:10481000F601608170E090E080E0E12C00E220E0B1
:1048200045E00E94F01881E00E942E0C41E0D60184
:1048300013968C91811101C040E060E083E08F0D00
:104840000E94E40FF601638170E090E080E0E12CCB
:1048500000E220E045E00E94F01881E00E942E0C6A
:1048600086E08F0D0E94D80FD60116968C91882372
:1048700009F43DC088E692E00E940B0581E00E94A9
:104880002E0CB2E0AB0EB11CEFEFCE1ADE0AF394A1
:10489000FCE6FF129ECF45E36FE088E0810F0E94A7
:1048A000270D0E949B0D6FEF81E70E949C09F82E57
:1048B00042E060E00E94D81F811137C00F2D0F2CFD
:1048C000000C110BE8E9EF0DEA3078F50E2E000C24
:1048D000FF0BE359FB4D0C94C3377A2487248724BC
:1048E0008724992499249924A724A724A72481E61E
:1048F00092E0C2CF809177058F5F843028F4809357
:1049000077050E94AA2011CF10927705FACF015F98
:104910001D4FD8016C9170E090E080E040E00E9473
:10492000F317F80160830E94D1201F140CF4FDCE10
:10493000F6CC045F1D4FD80113966C9170E090E0A7
:1049400080E040E00E94F317F8016383ECCFF801A8
:10495000E75FFD4F81E09681911180E08683E5CF8E
:104960000E946D0C61E081E00E940B0D0E94D71542
:10497000D6CCF0E0E0E00995D2CC6091730570915F
:10498000740580917505909176051C821B821A82B0
:104990001982B12CA12CD12CC12CF12CE12C8E012F
:1049A0000F5F1F4F9E012D5F3F4FAE014C5F5F4F6A
:1049B0000E94930749815A8104E02EE26B818C8129
:1049C0000E943C188FE892E00E948B1269E871E027
:1049D0008AE396E00E94463610E000E0009709F472
:1049E000D9C50330110509F4D5C50E94183697FDC5
:1049F000D1C50115110519F480970CF0CBC569E8F4
:104A000071E090E080E00E9446360F5F1F4FE6CFD6
:104A100060E070E0CB0112EAA12E12E0B12E01EAB3
:104A2000C02E02E0D02E20EAE22E22E0F22E04E098
:104A300011E023E031E042E051E00E949307409111
:104A4000040150910501E090A2020091A102209181
:104A5000A00260910301809102010E941B086093F3
:104A600073057093740580937505909376058D8119
:104A700018160CF454CCEFC260917D0570E090E004
:104A800080E040E00E94F31760937D056F3F09F0DE
:104A900079CD0E94151143CC81E090917E05911152
:104AA00080E080937E050E94AA2080917E05882365
:104AB00009F435CC0E944E2132CC89362CF4F4E036
:104AC0008F02C00111240ACE8D362CF424E082021C
:104AD000C001112403CE8F362CF434E08302C001D0
:104AE0001124FCCD81370CF061CDA4E08A02C00115
:104AF0001124F4CD81330CF471C585330CF056CDFF
:104B0000082E000C990BC1970E941F214FCD18163B
:104B10000CF44CCD04CC4CE463E081E0DAC01F5FC0
:104B2000DCC0803744F083370CF4F5C089E8890F86
:104B3000833008F4F0C061E019160CF0F0CB292F97
:104B4000092E000C330B91360CF4E7C098365CF458
:104B5000C901880F991F8E5E9B4F0E94C7188091D4
:104B6000800590E0EDC09F369CF3963764F4C90150
:104B7000880F991F8E5E9B4F0E94DB18813079F35E
:104B800018161CF0CCCB9B3794F383EB91E00E947A
:104B9000F00F11E0180F78E3A72E73E0B72EE4EDC5
:104BA000EE2EE4E0FE2E00E0002321F0612F043021
:104BB000E9F41F5F612F8CE00E940B0D81E00E94E1
:104BC0002E0C86E493E00E940B0562E080E00E94D8
:104BD000450C88EC92E00E940B054CE463E081E018
:104BE000810F0E94270D612F6E5F1D5F83E00E9481
:104BF0000B0DDD24D3948FEF800F833008F4D12C7C
:104C000081E00E941C0CF501659174918AE396E0A5
:104C10000E943F3669E00E94F00D0E943F0CF701B0
:104C2000619171917F0121E040E081E6800F0E9457
:104C3000901C0E943F0CD7011C966D917C9121E045
:104C400041E088E6800F0E94901CF701628D738D11
:104C50002D2D41E08FE6800F0E94901C0530A8F4B6
:104C6000D70198966D917C912D2D41E086E7800FBC
:104C70000E94901CF70162A973A92D2D40E081E4E8
:104C8000800F0E94901C0E943F0C612F83E00E94C5
:104C90000B0D033009F43FCF0430F9F001113FCF81
:104CA0004CE463E0812F0E94270D182F61E0680F0C
:104CB0008CE00E940B0D81E00E942E0C8AEF92E0A6
:104CC0000E940B0560E082E00E94450C4CE463E02A
:104CD00082E0810F0E94270D182F0F5FF2E0AF0EC8
:104CE000B11C073009F060CF81E0810F0E942710CE
:104CF0000E949B0D64E08AE70E949C09982F8C36E5
:104D00000CF00FCF89363CF482340CF414CF8EE9CA
:104D100095340CF00CCF60E00FCF91344CF096340A
:104D20000CF033CFC901880F991F8A579B4F24CFAE
:104D300091330CF458C495330CF027CFC901C197B7
:104D40000E941F2122CF34E8232E33E0332E412C42
:104D5000512C8BEC91E00E94F00F182F61E0680F4E
:104D600084E10E940B0D81E00E941C0C8AED93E00F
:104D70000E940B0503E0F02EF10E47E465E082E0AF
:104D8000810F0E94270D83EAA82E82E0B82E97ECAF
:104D9000C92E92E0D92E28EC622E23E0722E10E06C
:104DA000D5014D915D916D917C91809173059091AC
:104DB0007405A0917505B091760584179507A6072F
:104DC000B70728F0F501108211821282138299240C
:104DD00093949F0C6F2D85E00E940B0D81E00E9443
:104DE0001C0CF301659174918AE396E00E943F36B2
:104DF0006EE00E94F00D81E00E942E0C81E6810F92
:104E00000E94D80FF50180819181A281B381892B05
:104E10008A2B8B2B09F0E9C0D6018C91823018F0D7
:104E20001C920E94F820D601EC91F0E0EE0FFF1FDB
:104E3000EC53FC4F659174918AE396E00E943F36F3
:104E40000E94400D81E00E942E0C8AE6810F0E9494
:104E5000D80FD60111966C9170E090E080E0E12CC3
:104E600000E220E045E00E94F01881E0F501408179
:104E7000518162817381452B462B472B09F480E0D9
:104E80000E942E0C83E7810F183009F481E40E9400
:104E9000D80F81E0D5014D915D916D917C91452BAD
:104EA000462B472B09F080E00E94090CF501608138
:104EB0007181828193810E948E180E94470D81E04A
:104EC0000E942E0C82E4810F0E94D80FD601129608
:104ED0006C9170E090E080E0E12C00E220E045E0A1
:104EE0000E94F01880E00E942E0C153009F48DC04D
:104EF000183009F48AC0133009F487C0F92C1F5FF9
:104F0000B4E0AB0EB11CE3E0CE0ED11CF2E06F0EAC
:104F1000711C193009F044CF61E06F0D85E00E94EB
:104F20000B0D8BED91E00E94101085EA93E00E943A
:104F30000B0581EE91E00E94101081E993E00E9440
:104F40000B0587EE91E00E94101081E893E00E942B
:104F50000B0543E068E082E08F0D0E94270D63E0BF
:104F60006F0D85E00E940B0D81EF91E00E94101003
:104F70008DE693E00E940B0581E30E94D80F8DE53A
:104F800093E00E940B0581E00E941C0CC201B1015C
:104F90000E948E180E94470D83E00E94F50982E36B
:104FA0000E94D80F81E593E00E940B050E949B0DA3
:104FB00062E08AE70E949C0918160CF0B0C981369D
:104FC00064F18A360CF013C3815690E0FC01EE0FB9
:104FD000FF1FE80FF91FE953FD4F81E09081911108
:104FE00080E080830E94F820B4CE8CEB93E00E9496
:104FF0000B05F6018081882329F089EB93E00E945C
:105000000B0520CF86EB93E0FACFF394F39447E4BB
:1050100065E0892D0E94270D72CF8234BCF18B345C
:10502000BCF5825490E08C01000F111F080F191F6E
:1050300009531D4FD80112966C9170E090E080E00A
:1050400040E00E94F317F8016283CCCF8B3784F1E4
:10505000823309F045C00E94831F68960FB6F8940A
:10506000DEBF0FBECDBFDF91CF911F910F91FF909B
:10507000EF90DF90CF90BF90AF909F908F907F90F8
:105080006F905F904F903F902F900895813479F00A
:105090008133F1F6C201B1010E948E188FE892E0CF
:1050A0000E948B120E940B0E1B012C0152CE8BE72B
:1050B000835724E0829FF0011124ED55FD4F80912C
:1050C000730590917405A0917505B0917605820DD8
:1050D000931DA41DB51D80839183A283B38339CE14
:1050E000813009F036CE7ECF82E595E00E948B12AA
:1050F0008091800590E00E941F2111C980917C055C
:105100000E94100A80937C05809300013BCA809125
:1051100082050E94100A8093820534CAFF24F3940A
:1051200087EF91E00E94F00F20E0482F6F2D892D2E
:105130000E94D01C8F5F0E94F41D01E0080F43E025
:1051400068E00E94270D602F85E00E940B0D88E625
:105150000E94D80F8AEB94E00E940B05602F8EE12D
:105160000E940B0D4F2D11E01F25612F89E60E9433
:10517000E40F8CEA94E00E940B05602F83E30E9409
:105180000B0D412F6F2D8AE60E94E40F81EA94E017
:105190000E940B0580E00E941C0C0E949B0D69E0A0
:1051A0008AE60E949C09182F4F2D692D0E94D81F56
:1051B0008111ECC1193609F4BAC91A3609F4AECF17
:1051C000183609F0E0C110E01D8A1C8A1B8A1A8675
:1051D0001B861C861D861E86212C312C2101D12C7C
:1051E000C12CB12CA12C1F8218861986612CA6E136
:1051F0009A9EC0011124FC01EB57FC4FF88FEF8BF6
:1052000005C0DB84CC84BD84AE8411E064E974E025
:1052100086EC95E00E943F36AF89B88D8C91813045
:1052200009F4E9C008F4BDC0823009F4EBC086EC93
:1052300095E00E94F00F082F111104C06F2D892DE9
:105240000E947B1021E0402F6F2D892D0E94D01CE1
:1052500011E0180F682F85E00E940B0D8A8580FBF6
:1052600080F89B8990FB81F8E89482F880FB83F8B2
:10527000AC89A0FB84F8BD89B0FB85F8E89486F87A
:10528000E82DE170EE2E80FE07C081E60E94D80F67
:105290008FE694E00E940B05082D027081FE07C086
:1052A00082E60E94D80F8CE594E00E940B0582FEF6
:1052B00007C083E60E94D80F8EE494E00E940B059D
:1052C00043E068E0812F0E94270D182F782E83FE7F
:1052D00015C0682F85E00E940B0D84E60E94D80F50
:1052E0008FE394E00E940B0577247394710E4D2D8B
:1052F0005C2D6B2D7A2D812F0E94381B84FE13C0EC
:10530000672D85E00E940B0D85E60E94D80F80E393
:1053100094E00E940B054B855C856D857E85872D0D
:1053200073940E94381B85FE13C0672D85E00E9490
:105330000B0D86E60E94D80F88E294E00E940B05D0
:105340004F8158856985762D872D73940E94381B6F
:1053500086FE10C0672D85E00E940B0D87E60E9437
:10536000D80F8FE194E00E940B05B201A101872DB7
:105370000E94381B0E949B0D60E087E60E949C09FA
:105380008E83843609F4D3C00CF060C0813609F4F2
:105390006EC0823609F4AEC03E8113160CF0C0CE4A
:1053A00034CF6EE874E082ED95E00E943F36111133
:1053B0003ECFB0918C05BB87E0918D05EC87F091D5
:1053C0008E05FD8720918F052E8731E03C8B81E093
:1053D0008A8750EA252E56E8352E44244394512CD2
:1053E00068E0D62E72E5C72EB12CA12C1F8218863C
:1053F0001986612C1CCF68E874E082ED95E00E946C
:105400003F3615CF62E874E082ED95E00E943F36AA
:1054100011110DCF909194059B87A0919505AC87B4
:10542000B0919605BD87E0919705EE87F1E0FD8B81
:1054300021E02B8B31E03A87212C312C210120E611
:10544000D22E32E8C32E4BE3B42ECFCFFE81F636F8
:1054500009F479C00CF4D5CEF73609F09DCF41E0C0
:10546000C201B1010E94F3171B012C01CECEEE2028
:1054700009F4CBCE2D2D3C2D4B2D5A2D6F2D892D82
:105480000E945F1B672B682B692B09F4BECE1A8A1A
:105490000D2D1C2D2B2D3A2D712C1F86188A198A43
:1054A00091E09E8B84E0E82E4F2D692D83E491E0FE
:1054B0000E94561E81E02E89821708F052C0272DC7
:1054C0003F85488959896F2D892D0E945F1B672B65
:1054D000682B692B09F443C0EA88072D1F852889AA
:1054E00039894F2D692D83E491E00E94561E81E099
:1054F0008F5FE1CF002309F488CE2F81388549855D
:10550000562D6F2D892D0E945F1B672B682B692BF1
:1055100009F47BCE7D2CCF86B88AA98A0F811885A5
:105520002985362DA4E0AA8BB2E0BE8BBBCF41E02B
:105530006D2D7C2D8B2D9A2D0E94F317D62EC72E04
:10554000B82EA92E62CE41E06F8178858985962D8F
:105550000E94F3176F8378878987692E56CE82E081
:10556000C7CF1091F4020E94D7158091F4028117E1
:1055700010F40E94D71580917E05882309F40CCF82
:105580000E944E2109CF9FEC992E910E11160CF41A
:10559000C7CD6DCA4091040150910501E12C00E096
:1055A00020E060910301809102010E941B086B01C1
:1055B0007C016091730570917405809175059091DF
:1055C00076050E948E188FE892E00E948B120E944E
:1055D0000B0E6C0D7D1D8E1D9F1D1DCA813011F09F
:1055E0000C94D62282C8913009F4B9CACECA833746
:1055F0000CF02CCD8A5690E08C01000F111F080F83
:10560000191F09531D4FD80111966C9170E090E05D
:1056100080E040E00E94F317F8016183E3CC1F9221
:105620000F920FB60F9211242F933F938F939F9356
:10563000AF93BF938091840590918505A0918605D5
:10564000B09187053091830523E0230F2D3758F55E
:105650000196A11DB11D209383058093840590932D
:105660008505A0938605B093870580918805909164
:105670008905A0918A05B0918B050196A11DB11DE8
:105680008093880590938905A0938A05B0938B0534
:10569000BF91AF919F918F913F912F910F900FBE2E
:1056A0000F901F90189526E8230F0296A11DB11D9B
:1056B000D2CF1F920F920FB60F9211242F933F93C8
:1056C0004F935F936F937F938F939F93AF93BF930A
:1056D000EF93FF938BE496E00E949C04FF91EF917F
:1056E000BF91AF919F918F917F916F915F914F91FA
:1056F0003F912F910F900FBE0F901F9018951F9202
:105700000F920FB60F9211242F938F939F93EF93C5
:10571000FF93E0915B06F0915C068081E091610669
:10572000F091620682FD1BC09081809164068F5FBC
:105730008F7320916506821741F0E0916406F0E0D6
:10574000E55BF94F958F80936406FF91EF919F91F0
:105750008F912F910F900FBE0F901F901895808101
:10576000F4CF1F920F920FB60F9211242F933F93F5
:105770004F935F936F937F938F939F93AF93BF9359
:10578000EF93FF938091B900887F803609F44AC077
:10579000F0F5883209F4A7C018F5803109F49BC0F0
:1057A000B8F4882309F4F9C0883009F494C0FF9153
:1057B000EF91BF91AF919F918F917F916F915F9189
:1057C0004F913F912F910F900FBE0F901F90189502
:1057D000883109F488C0803251F780930E0614C0D6
:1057E000803409F49DC040F48033B9F38833F9F66E
:1057F00080930E0685ECB0C0803509F485C08835ED
:1058000009F496C0883499F60E948411D0CF883963
:1058100009F48CC038F5883729F050F4883611F037
:10582000803729F683E0809310061092770257C0E4
:10583000883809F47BC0803919F0803809F0B7CF77
:1058400080917702803208F071C0E091770281E0A8
:105850008E0F809377028091BB00F0E0E95AFD4FF4
:1058600080833DC0803B39F0E0F4803A09F479C090
:10587000883A09F09CCF84E080931006109256027B
:1058800010925502E0918302F09184020995809173
:10589000550281110FC081E08093550210923502AC
:1058A00009C0803C09F4A6CF883C09F4A3CF883B0B
:1058B00009F07DCFE091560281E08E0F8093560271
:1058C000F0E0EB5CFD4F80818093BB00909156022D
:1058D0008091550229C08091EB058093BB0085EC37
:1058E0008093BC0064CF90910D0680910C069817B0
:1058F00058F5E0910D0681E08E0F80930D06F0E0E3
:10590000E451FA4F8081E9CFE0910D0681E08E0FDE
:1059100080930D068091BB00F0E0E451FA4F808344
:1059200090910D0680910C069817C8F285E8D8CFA3
:10593000E0910D0681E08E0F80930D068091BB00F3
:10594000F0E0E451FA4F808380910F0681115CCF23
:1059500081E08093EA0584EA8093BC0010921006EF
:1059600026CF85EC8093BC001092100680917702C0
:10597000803230F4E0917702F0E0E95AFD4F108276
:105980006091770270E0E0918102F091820287E5F8
:1059900092E00995109277020ACF10920E0634CF4A
:1059A000EBE4F6E01382128288EE93E0A0E0B0E030
:1059B00084839583A683B7832FE131E031832083ED
:1059C00025EC30E03587248724EC30E037872687C4
:1059D00020EC30E0318B208B21EC30E0338B228BBC
:1059E00022EC30E0358B248B26EC30E0378B268B95
:1059F000118E128E138E148EE8EEF6E01382128250
:105A000084839583A683B78381E391E09183808328
:105A10000895CF93DF93CDB7DEB7E0970FB6F89434
:105A2000DEBF0FBECDBF789484B5826084BD84B5DF
:105A3000816084BD85B5826085BD85B5816085BD89
:105A400080916E00816080936E0010928100809141
:105A500081008260809381008091810081608093C9
:105A60008100809180008160809380008091B100EE
:105A700084608093B1008091B00081608093B00019
:105A800080917A00846080937A0080917A008260AD
:105A900080937A0080917A00816080937A0080916F
:105AA0007A00806880937A001092C1000E941511DC
:105AB000F7ECEF2EF2E0FF2E04E413E0C8010E94A1
:105AC000E336D7018D937D010F5F1F4F0F35B3E094
:105AD0001B07A1F7E8E7EE2EE2E0FE2EC8010E94C8
